:020000040800F2
:20000000401200200D020008150200081702000819020008991200081D020008000000001A
:200020000000000000000000000000001F020008210200080000000023020008BD4E00082C
:20004000270200082702000827020008270200082702000827020008270200082702000818
:200060002702000827020008270200082702000827020008270200082702000827020008F8
:2000800027020008270200082702000827020008F5560008270200082702000827020008B6
:2000A0002702000827020008270200082702000827020008270200082702000827020008B8
:2000C00027020008270200082702000827020008270200081552000827020008A55200088C
:2000E0002702000827020008BD55000827020008270200082702000827020008270200088F
:20010000270200082702000827020008270200082702000827020008270200082702000857
:200120002702000827020008270200082702000800F002F800F05AF80AA090E8000C8244DB
:200140008344AAF10107DA4501D100F04FF8AFF2090EBAE80F0013F0010F18BFFB1A43F072
:200160000103184750670000706700000A444FF0000C10F8013B13F0070408BF10F8014B88
:200180001D1108BF10F8015B641E05D010F8016B641E01F8016BF9D113F0080F1EBF10F88B
:2001A000014BAD1C0C1B09D16D1E58BF01F801CBFAD505E014F8016B01F8016B6D1EF9D5D8
:2001C0009142D6D3704700000023002400250026103A28BF78C1FBD8520728BF30C148BFE5
:2001E0000B6070471FB51FBD10B510BD00F0A8F81146FFF7F7FF05F0F1FE00F0C6F803B47F
:20020000FFF7F2FF03BC00F0CBF800000948804709480047FEE7FEE7FEE7FEE7FEE7FEE777
:20022000FEE7FEE7FEE7FEE704480549054A064B70470000CD4E000831010008400C002070
:2002400040120020400E0020400E0020032A40F2308010F0030C00F0158011F8013BBCF1BB
:20026000020F624498BF11F801CB00F8013B38BF11F8013BA2F1040298BF00F801CB38BF80
:2002800000F8013B11F0030300F02580083AC0F0088051F8043B083A51F804CBA0E8081092
:2002A000F5E7121D5CBF51F8043B40F8043BAFF30080D20724BF11F8013B11F801CB48BF1A
:2002C00011F8012B24BF00F8013B00F801CB48BF00F8012B704710B5203AC0F00B80B1E839
:2002E0001850203AA0E81850B1E81850A0E81850BFF4F5AF5FEA027C24BFB1E81850A0E8D1
:20030000185044BF18C918C0BDE810405FEA827C24BF51F8043B40F8043B08BF7047D20744
:2003200028BF31F8023B48BF11F8012B28BF20F8023B48BF00F8012B7047704770477047F1
:20034000754600F029F8AE4605006946534620F00700854618B020B5FFF766FFBDE82040B1
:200360004FF000064FF000074FF000084FF0000B21F00701AC46ACE8C009ACE8C009ACE808
:20038000C009ACE8C0098D4670470446AFF300802046FFF734FF000000487047DC0B0020AC
:2003A00001491820ABBEFEE7260002007047C94301607047002904D0816841F00101816070
:2003C0007047816821F001018160704710B5154988420AD144150121204604F07DF820465A
:2003E000BDE81040002104F077B80F4988420AD104150121204604F06FF82046BDE8104070
:20040000002104F069B8094988420AD10121CC03204604F061F82046BDE81040002104F09B
:200420005BB810BD0024014000280140003C01400146002089684907002900DA012070470E
:20044000C06C80B270470246002012680A4200D0012070470146002089680907002900DA46
:200460000120704710B542680E4B1A400C790B6842EA04221343436082680B4B1A40D1E9EB
:20048000024323434C7942EA440213438360C26A22F47002097C491EC9B242EA0151C16285
:2004A00010BD0000FFFEF0FFFDF7F1FF70B5072609290AD9C568A1F10A0404EB4404A6404E
:2004C000B543A3401D43C56007E0056901EB4104A640B543A3401D4305611F23072A09D261
:2004E000446B521E02EB820293409C4391400C43446370BD0D2A09D2046BD21F02EB8202E3
:2005000093409C4391400C43046370BDC46A0D3A02EB820293409C4391400C43C46270BD6A
:20052000816841F0080181607047002904D0816841F4A00181607047816821F4A00181602C
:200540007047816841F00401816070470649002804D0086840F4000008607047086820F49B
:2005600000000860704700000824014030B505460020002212E00401A85CA0F130030A2B89
:2005800001D2184606E0A0F14103062B01D2373800E0002000F00F002043521CB2EB410F3F
:2005A000E9D330BD10B586B00121480203F086FF184C2046FFF70AFF002101918DF808109A
:2005C0008DF809104FF460220392049101218DF8141001A92046FFF745FF4FF4404003F0C3
:2005E00039FF0120FFF7B2FF01212046FFF7E2FE2046FFF795FF2046FFF72CFF0028FAD133
:200600002046FFF79EFF2046FFF712FF0028FAD106B010BD0024014010B500F005F8BDE842
:200620001040FFF7BFBF000008B50320ADF8000000218DF803108DF802006946014802F047
:20064000EFFD08BD000C014070B5184C002825D00723012209212046FFF728FF0121204674
:20066000FFF7A8FE01212046FFF75FFF02212046FFF7E9FE0028F9D02046FFF7E1FE054625
:2006800002212046FFF793FE00212046FFF74DFF00212046FFF78EFE284670BD0723012290
:2006A00008212046FFF702FFD8E700000024014010B54FF48071034802F03BFEBDE810402C
:2006C00000F0C8B80008014010B54FF48071034802F02DFEBDE8104000F0D8B80008014042
:2006E000F8B50121080703F0CDFE01213C2003F0E5FE0121084603F0E1FE0121224802F04A
:20070000E1FD0121214802F0DDFD01218D03284603F0D4FE0121880403F0B4FE01211C48E6
:2007200002F0D0FD0121022003F0ACFE0121080303F0C4FEAE11ADF8006010208DF80300BB
:2007400003248DF80240134F6946384602F068FDADF800508DF8024048258DF80350694615
:20076000384602F05DFDF001ADF800008DF802408DF803506946384602F052FD3146384617
:2007800002F0D7FD0020F8BD0002300010001400000C1A00000C01402DE9F8434FF480766B
:2007A000ADF8006010248DF8034003258DF80250DFF894806946404602F032FD0427ADF828
:2007C00000708DF803408DF80250DFF880906946484602F025FDE002ADF800008DF8025074
:2007E0008DF803406946404602F01AFD2020ADF800008DF802508DF803406946484602F040
:200800000FFD6001ADF800008DF802508DF803406946484602F004FDADF800708DF802500B
:200820008DF8034069460A4802F0FAFC3146404602F07DFD0421484602F07BFD00F00AF88F
:200840000020BDE8F883000000080140000C01400014014010B50A4C4FF40071204602F046
:2008600066FD0421074802F062FD4FF40041064802F05DFD2046BDE81040202102F057BD90
:20088000000C0140001401400008014010B50A4C4FF40071204602F04CFD0421074802F097
:2008A00048FD4FF40041064802F043FD2046BDE81040202102F03DBD000C014000140140C5
:2008C000000801402DE9F0410C4616461D46094F81B2384604F04CFCA1B2384604F044FC2D
:2008E000B1B2384604F03EFCA9B23846BDE8F04104F03CBC0004004010B5054C002120466D
:2009000004F018FB2046BDE81040002104F01EBB000400402DE9F04F89B0074688469146C3
:200920009A464020ADF8200003248DF8224018258DF82350DFF8E8B008A9584602F070FC53
:200940008020ADF820008DF822408DF8235008A9584602F065FC4FF48076ADF820608DF8CE
:2009600022408DF8235008A9584602F059FC7000ADF820008DF822408DF8235008A9584624
:2009800002F04EFC0024ADF81A400220ADF81400ADF816404BF68030ADF81800DFF884B069
:2009A00005A9584604F0E8FB6020ADF804000125ADF80650ADF80A70ADF80C40ADF80E40C7
:2009C000ADF81060ADF8124001A9584604F0CCFAADF80650ADF80A8001A9584604F008FBA0
:2009E000ADF80650ADF80A9001A9584604F044FBADF80650ADF80AA001A9584604F07EFB43
:200A00000121584604F08AFA0121584604F092FA0121584604F09AFA09B0BDE8F08F000039
:200A2000001001400004004010B5094C4021204602F07DFCA115204602F079FC802120464B
:200A400002F075FC61152046BDE8104002F06FBC00100140F8B5FFF7E7FF4020ADF8000066
:200A600003258DF8025010248DF80340144E6946304602F0D5FB8020ADF800008DF8025016
:200A80008DF803406946304602F0CAFB2001ADF800008DF802508DF803406946304602F036
:200AA000BFFB6001ADF800008DF802508DF803406946304602F0B4FBFFF7B6FFF8BD0000B1
:200AC0000010014010B54FF48071044802F02FFCBDE810400421024802F029BC00080140DF
:200AE000000C014010B503F005FD4FF48034204603F0A0FD03F0EEFD012800D0FEE7102016
:200B000002F034FB022002F065FB002003F088FD002003F0B5FD4FF4806003F0A7FD4FF4E6
:200B2000E011204603F0BCFD012003F0B3FD392003F056FD0028FAD0022003F0BBFD03F09D
:200B400067FD0828FBD110BD4FF4A06003F08ABB10B500F06FF8154C6168814224D800F5F3
:200B60007A7060604FF48041114802F0D9FB1149012268B100200860A068052811D90868FB
:200B80000D49096808430D490968084302D008E00A60F1E70A4802604FF48071094802F00A
:200BA000C6FBA068401CA06010BD00007C010020000C0140540100204C01002058010020FE
:200BC000500100200008014070B500F033F8174C00252169012902D1002824DB2561E16816
:200BE000814220D800F1FA01E160814201D8012020610F48006848B16069082802D2FFF754
:200C000057FD0BE00AD1FFF75FFD07E0207DC00702D0FFF759FD01E0FFF74AFD60690828E8
:200C200002D2401C606170BD656170BD7C0100205401002070B54FF0E02041698069081A78
:200C40000B490968B0FBF1F005F08DFC0022094B05F004FB044608480D46006A05F083FC90
:200C600022462B4605F052FABDE8704005F04EBC0000002000408F407C01002010B504462B
:200C8000FFF7D8FF0444FFF7D5FFA042FBD910BD70B51548002404620A2141621349642038
:200CA0000968B1FBF0F2521E661EB2F1807F09D24FF0E0256A610F21304603F0DDFAAC6138
:200CC000072028610A480068C0F30222101D072801D2002200E0D21E04FA02F13046BDE8A6
:200CE000704003F0C9BA00007C010020000000200CED00E07FB50121080703F0C3FB012100
:200D0000082003F0DBFB4FF48074ADF80C4003268DF80E6010208DF80F001D4D03A9284656
:200D200002F07EFA2146284602F003FBA402204602F096F9019400248DF8084008208DF8C4
:200D4000090001258DF80A5001A802F08FF9002003F0BAFC0121C80503F094FB14208DF86F
:200D600000008DF801608DF802408DF80350684603F046FA2A208DF8000002208DF8010096
:200D80008DF802408DF80350684603F039FA7FBD000C014070B50646002000220DE0B45CA7
:200DA000303C00238D1A6D1E03E004EB840464005B1C9D42F9D82044521C8A42EFD370BD00
:200DC00010B5D021EC2000F0E3F9C0B210BD000038B50121042003F071FB0320ADF80000EC
:200DE00002248DF8024014208DF803006946044802F016FA0248012110300160046038BDE7
:200E00000008014010B502F0E3FABDE8104002F0B5BA10B57521682002F0E4FBC0B210BDAC
:200E200010B509213C2003F0A5F8C0B210BD6420FFF724BF0623024603213C2002F0EEBFAB
:200E40001CB5142200213C2003F0BCF8202201213C2003F0B7F8002202213C2003F0B2F8C7
:200E6000002406236A4603213C2002F0D7FFFFF7DEFF641CE4B2022CF3D31CBD1CB5712213
:200E800000213C2003F09EF8A02201213C2003F099F8002202213C2003F094F8002406231B
:200EA0006A4603213C2002F0B9FFFFF7C0FF641CE4B2022CF3D31CBD10B50A213C2003F081
:200EC00059F8C0B210BD000008B50121082003F0F5FA4FF44060ADF8000002208DF8020068
:200EE00014208DF803006946054802F099F904484FF40061103001600115016008BD0000E9
:200F0000000C01401FB503F0FCF803F0E1F803F0E4F803F0D3F803F000F903F0E8F803F0BE
:200F2000EBF86420FFF7AAFE0024684600F030F86420FFF7A3FE641CE4B2022CF5D31FBDBF
:200F40001FB503F0CFF803F0BEF86420FFF796FE0024684600F01CF86420FFF78FFE641CEF
:200F6000E4B2022CF5D31FBD1FB503F0B6F803F0A5F86420FFF782FE0024684600F008F848
:200F80006420FFF77BFE641CE4B2022CF5D31FBD70B506465A2503F0B9F80446E00706D0DB
:200FA0000E2332463B21682002F024FA054645EA040070BD0823024602210C2002F01ABA61
:200FC00008220A210C2002F0EDBB01220A210C2002F0E8BBF0B587B0E020ADF81800182016
:200FE0008DF81B0003258DF81A50294E06A9304602F016F92020ADF8180004208DF81B00DC
:20100000244F06A9384602F00BF91024ADF818408DF81B408DF81A5006A9304602F000F92A
:20102000ADF818408DF81B408DF81A5006A9384602F0F6F81021304602F07BF9102138461B
:2010400002F075F9144D284603F0B6FB0021ADF804104FF48270ADF80600ADF80810ADF8A1
:201060000A10ADF80C106001ADF80E00ADF81040ADF812100720ADF8140001A9284603F0DA
:20108000D8FB0121284603F08BFB07B0F0BD000000080140001001400030014010B50446F6
:2010A000002003F06BF8642003F03DF821460522BDE81040102003F039B8000070B5094DFC
:2010C00002242C6000F0E2F82E1F0120306000F0DDF8346000F0DAF82C60BDE8704000F0AA
:2010E000D5B80000140801402DE9F04708250024DFF848800120C8F80000DFF84090022619
:2011000008F10407A9F108090EE06006040E3E6000F0BCF8C8F8006000F0B8F8D9F80000E7
:20112000C00701D044F001042800A5F10105EDB2EBD13E602046BDE8F08700001008014046
:201140002DE9F04705460824104E4FF001080227A6F1040911E0376000F098F8280602D54B
:20116000C9F8008001E0C6F800806806050E00F08DF8C9F8007000F089F82000A4F10104BD
:20118000E4B2E8D13760BDE8F08700001408014070B504460D4600F023F8D8B12046FFF73E
:2011A000CFFF00F053F8B8B12846FFF7C9FF00F04DF800F015F8641CE0B2FFF7C1FF00F0A7
:2011C00045F8FFF791FF0446FFF778FF00F028F8204670BD002070BD00F022F8002070BD4E
:2011E00070B50E48012404600221016000F04EF80A4E083E306848B1084D2D1D2C6000F0E7
:2012000045F83068C00703D0002070BD002070BD2C6000F03BF8012070BD0000100801406F
:2012200070B5094C0226266000F030F80125256000F02CF8241F266000F028F82560BDE8AC
:20124000704000F023B800001408014070B50E4D02242C6000F01AF82E1F0120306000F094
:2012600015F8346000F012F807480C380068C00704D02C6000F00AF8002070BD2C6000F0F6
:2012800005F8012070BD0000140801400520401EC0B20028FBD170477047C1B2000A40EAA8
:2012A0000120704710B50022044B03E050F822401C60521C8A42F9D3186810BD0030024052
:2012C0000149086008687047003002400149012088607047003002402DE9F05F4BF6BF786A
:2012E00048F280095B4F40F68F7A5B4E5B4D48F60F7B23E0088800F00F00307038B305EB1C
:20130000800001688CB2210409D5016801EA0A01016030785249401E51F8200080472006EC
:201320000CD5307805EB8000016801EA0B01016030784C49401E51F8200080474748443025
:201340000068494908800004D4D4BDE8F09F28683880388800F030007880388800F44050C7
:201360003880286800EA080080F4005080F0200040EA090028600888C00621D4286800EA5F
:201380000B00286002F0DEFB286800EA08003988C90401D580F480503988890401D580F42D
:2013A00000507988C90601D580F010007988890601D580F0200080B240EA09002860C4E729
:2013C000286880B2010521D5286800EA0A00286003F074FB286800EA08003988C90401D5FB
:2013E00080F480503988890401D580F400507988C90601D580F010007988890601D580F0C5
:20140000200080B240EA090028609EE7000495D5286800EA0A00286002F0AEFF286800EAA7
:2014200008003988C90401D580F480503988890401D580F400507988C90601D580F01000EE
:201440007988890601D580F0200080B240EA090028607AE73E0000202C000020005C004002
:20146000880000206C0000206A00002004210278130601D51B2300E0002383EA420200F836
:20148000012B491EC9B20029F1D1704710B500230122C2548B545B1CDBB2140601D51B2469
:2014A00000E0002484EA42045440E2B2012AF0D1017880F8FF1010BD30B500223AB10D494B
:2014C0004B6809689B5CC3F1FF03C95C00E0002181F0630404234D0045EAD111C9B24C40B1
:2014E0005B1EDBB2002BF6D18454521C12F0FF02E4D130BD6801002010B500230022845C96
:201500009C4201D1CA54FF22521C12F0FF02F6D15B1C13F0FF03F2D110BD0000074901EB5C
:20152000800001684904002907DA016848F68F7211404CF28002114301607047005C0040AA
:20154000074901EB800001684906002907DA016848F68F72114048F2C002114301607047AC
:20156000005C0040054901EB8000016848F68F62114048F28002114301607047005C004068
:2015800008C908C0521EFBD17047000010B50021114A06281268137803F07F0303D1012BD6
:2015A00001D1547914B1212B0AD00CE09078222802D0212802D006E0084904E0084902E028
:2015C000032800D1074929B19161002050828847002010BD022010BD3000002029160008BF
:2015E000011600080D160008014903F033BB0000B4000020014903F02DBB0000AC000020B1
:20160000014903F027BB0000C4000020002801D0034870470349012009680882002070478D
:20162000A800002030000020014903F013BB0000BC00002005490968C978042901D9002084
:201640007047034A02EBC10103F004BB30000020FC000020002901D00220704708B102200B
:20166000704700207047000006490968097801F07F01212901D10B2801D00220704700F041
:201680006FB800003000002010B52748002100688172C1722549C9794172002003F0E6F89C
:2016A0004FF40071002003F0ADF91021002003F07FF91821002003F001F95821002003F02F
:2016C00059F90020FFF74EFF194890F82C10002003F004F9002003F03BF94FF4C061012054
:2016E00003F090F94FF48071012003F043F94FF4A071012003F0E2F84021012003F04AF9F0
:201700004021012003F0EAF84FF44051012003F007F92021012003F04BF9002003F0AEF838
:2017200004490120086010BD300000201A680008CC0000204001002004480068807A002809
:2017400002D003490520086070470000300000204001002001490420086070474001002088
:2017600003480068C0780349086000207047000030000020A80000207047704710B505485B
:2017800000240068847202F04FFE03F0B5FF0248046010BD30000020400100200178427882
:2017A000027082784270C2788270C17070470000C100002902DA03490860704702494860D3
:2017C000704700000404024000000240002904D0016841F001010160704701684FF6FE72F7
:2017E000114001607047000001684FF6FE72114001600021016041608160C1603649364A8C
:201800000839904204D1486840F00F0048607047314A1432904204D1486840F0F0004860B2
:2018200070472D4A2832904204D1486840F4706048607047284A3C32904204D1486840F4FB
:20184000704048607047244A5032904204D1486840F47020486070471F4A6432904204D169
:20186000486840F47000486070471B4A7832904204D1486840F0706048607047174A111F5F
:20188000904204D1086840F00F0008607047134A1432904204D1086840F0F00008607047DA
:2018A0000E4A2832904204D1086840F47060086070470A4A3C32904204D1086840F470407F
:2018C00008607047054A50329042FAD1086840F47020086070470000080002400804024090
:2018E00002460020D100002902DA0449096801E003490968114200D001207047000402400D
:201900000000024030B5026847F6F0739A430C6A8B682343D1E904452C4323438C692343B7
:20192000CC6923434C6A23438C6A234313430360CA6842600A6882604968C16030BD0000F4
:201940002DE9F047DFF89880D8F8001001F1100528880E7A234F4FF03009002801D1042E16
:2019600004D0AC88A04215D8042614E01E480178012903D00726102038802BE01B4A0021F0
:2019800012681B4B92B2921C43F81210A7F8009001701FE00226844200D90446A968A0B205
:2019A00088478246002001F0BBFF0146A2B2504603F0D8FEA1B2002002F0ECFF2888001BB0
:2019C0002880688820446880A7F8009009494FF440500880D8F800000672BDE8F0870000E3
:2019E000300000204000002028000020505C0040006000403E0000202DE9F041214E3468B3
:201A000010342088A168002915D0A0B1A588854200D90546A8B2884707462088401B208041
:201A2000608828446080002001F05AFF0146AAB2384602F0C7FC2088134F302538B113498E
:201A4000280208800021084602F0A4FF3D802088A188884204D3316803200872BDE8F08155
:201A600018B1316805200872F8E7316806200872074800210068074A80B2801C42F81010FC
:201A80003D80EBE730000020400000203E000020505C0040006000402DE9F0415F4E306891
:201AA000427800245E4D062A296801D08AB117E00278520665D18078012804D0022804D0DE
:201AC000032804D05DE0CC695BE00C6A59E04C6A57E0438823B9C388022B01D1037923B17D
:201AE000082A35D00A2A38D04BE00278530601D1838833B102F07F02012A04D0022A0CD03A
:201B00003FE0484C3DE08A6940790021904718BB3068807A00B3434C33E0417901F00F00DD
:201B200001F070020B06404905D551F82010C1F30111090104E051F82010C1F30131090336
:201B40003A4B1B7883421CD932B929B1354C18E00078400615D1364C13E0027802F07F026F
:201B6000012A0ED1827A62B1428852B9027942B9C288012A05D18A6940790021904700B959
:201B80002C4C4FF00908002734B13068478284610020A047002006E02968306809694078CB
:201BA0008847032809D031680A8AA2F57F43FF3B07D181F80880BDE8F081306880F808800B
:201BC000F9E7022808D03AB10878000620D5C888824205D9088213E04FF008000872EAE7BC
:201BE0000ED22868144B90F82C00824201D21F7006E0B2FBF0F400FB142008B9012018702C
:201C0000286890F82C008882BDE8F041FFF798BE03200872094900030880CCE730000020D7
:201C2000340000209D4C0008005C0040A40000202D4C0008754C0008280000203E0000200F
:201C40000149012008707047580000202DE9F04FA9B04022E9A119A8FEF73DFB1822F7A118
:201C600013A8FEF738FB1422FAA10EA8FEF733FBFDA0D0E90032D0E90210CDE90A32CDE9DC
:201C80000C101422FCA105A8FEF725FB4FF0000AD146FE49012003F03FFD83464FF44051FF
:201CA000012002F03DFEF94A1078552802D15178AA2902D03A2811D01CE0BBF12C0F07D947
:201CC0002C22F249F24803F047FF29B0BDE8F08F5A46EE49EE4803F03FFFF6E750784328BD
:201CE00008D19078462805D1D078472802D110792D2804D04021E54804F0EEF9E5E7537982
:201D00003A252F24E34F4FF00D08522B05D19079532802D1D079542802D0432B23D028E0E1
:201D200087F800807D70112100200EAA03E03D18135CAB70401C8842F9D378188470402114
:201D4000D44804F0C9F94FF4FA70FEF797FFBFF34F8FD1480168D14A01F4E0611143016061
:201D6000BFF34F8FFEE790794F2802D1D0794D2802D0562B3DD042E0082630460AE0115C60
:201D80000D2909D03039092903D80AF1010A0AF0FF0A401C5845F2D3914690195146FEF7EB
:201DA000F9FFBF4AA0F2E931914201D203F0CAFB87F800807D700E2100200AAA03E03D18F1
:201DC000135CAB70401C8842F9D3002006E082190B183B4419F802209A70401C5045F6D34D
:201DE00001EB0A00384484704021AA4804F074F96BE79079452802D1D079522807D047202D
:201E00002D214F264FF0590E472B22D030E0A5490120086087F800807D705620B87045207F
:201E2000F87052203871202504229F499F4803F0F9FF00209C4903E03B180A5C5A71401C32
:201E4000A842F9D3781944714021924804F044F93BE792F806C0BCF1590F09D192F807C068
:201E6000BCF1520F04D192F808C0BCF14F0F02D04D2B17D020E087F800807D70B87087F85E
:201E800003E0522038717E71B971FEF7C2FF01F055FD010AF97138727C7240217D4804F00B
:201EA0001BF912E792F806C0BCF1410F04D192F807C0BCF1470F02D0422B1CD02AE087F8EB
:201EC00000807D704D22BA704122FA7038717971FEF7F2FF01F032FD010A397278725A207C
:201EE00001F02CFD010AB971F871BC724021694804F0F2F8E9E692F806C0BCF1410F09D116
:201F000092F807C0BCF1520F04D192F808C0BCF14F0F02D0532B1BD033E087F800807D70F6
:201F20004220B8704120F870522038717E71B9713020F8713872FEF743FF01F0FFFC010A89
:201F40007972B872FC724021524804F0C5F8BCE692F806C0BCF1450F13D192F807C0BCF17D
:201F60004E0F0ED192F808C0BCF1530F09D192F809C0BCF14F0F04D192F80AC0BCF1520F55
:201F800002D0532B38D01BE1002020233B54401C4028FBD387F800807D705320B87045237A
:201FA000FB704E233B717871BE715220F8713972D07A164659287CD101A8FEF7E9FF10F4FD
:201FC0007F4F02D04621797201E050217972C0B201F0B4FC010AB972F87200250DF10408F0
:201FE00018F8050001F0AAFC07EB4501020A0A7348736D1C0E2D5BE0BFE05AE0556E6B6F44
:20200000776E20636F6D6D616E642C2D2D2D737570706F72743A61742C61742B6261756435
:202020003F2C61742B636C6561722C61742B726F6C653F2C636F6D3F0000000052656365E8
:2020400069766520646174612074696D652D6F75742E00005265736574696E67207468655E
:20206000206D63752E0000004368616E676520434F4D20746F20000041542B43494F424147
:2020800055443D313135323030000000C0010020600700207C0800200CED00E00400FA0559
:2020A000979298005801002040070020E0FF030096D3307B592809D0707B592829D087F84B
:2020C00028404021FE4804F007F8FEE5FEF77DFF6420FEF7D3FD01A8FEF76CFF10F47F4F86
:2020E00003D0462087F8280002E0502087F82800002501AE705D01F021FC07EB4501020A14
:2021000001F8292F48706D1C082DF3D387F83940D7E76420FEF7B2FDFEF782FE0546002074
:2021200018B1462087F8280002E0502087F82800E8B201F003FC010A87F8291087F82A00DA
:20214000E80710D001A8FEF775FE002501AE705D01F0F4FB07EB4501020A01F82B2F4870CF
:202160006D1C062DF3D3FEF75BFE01F0E7FB010A07F8371F7870BC70A3E792F806C0BCF1C1
:20218000450F1DD192F807C0BCF14C0F18D192F808C0BCF1460F13D192F809C0BCF1540F20
:2021A0000ED192F80AC0BCF1450F09D192F80BC0BCF1530F04D192F80CC0BCF1540F03D09F
:2021C000C048492B7ED014E100234FF0200C07F803C05B1C402BFAD387F800807D704FF016
:2021E000530987F802904523FB704FF04C0887F8048046257D714FF0540C87F806C0FB7160
:2022000087F8089087F809C0B97292F80DC0BCF1590F10D0907B592843D04E20F8725520FC
:20222000387387F80D8087F80E80FC734021A44803F052FF49E5F87287F80CE0522078737A
:20224000BE73F9734120387443207874B874FB7487F81480FEF774FE6420FEF70FFD01A842
:20226000FEF796FE10F47F4F01D07D7501E050217975C0B201F062FB010AB975F875002575
:2022800001AE705D01F05AFB07EB4501020A0A7648766D1C0E2DF4D3FEF766FE87F8344023
:2022A000C4E7D07B91464FF0380A4FF0350B412836D1F8724B253D7387F80DA03920B873A7
:2022C000372000E081E0F87387F810B0FEF778FE6420FEF7D3FC01A8FEF76CFEFEF770FE9E
:2022E0006420FEF7CBFC01A8FEF764FE10F47F4F07D0C0F3072001F021FB010A7974B874EA
:2023000001E07E74BD74002501A8405D01F016FB07EB4501020ACA7408756D1C082DF3D3C9
:2023200099F81000482881D107F8230F4D2078704320B87087F803B087F804A087F805A0B0
:202340003320B87187F80780233FFEF797FD6420FEF794FCFEF764FD0546002048B1C5F395
:20236000072001F0EBFA010A87F82B1087F82C0004E087F82B604B2087F82C00E8B201F061
:20238000DDFA010A87F82D1087F82E00E80710D001A8FEF74FFD002501AE705D01F0CEFADF
:2023A00007EB4501020A01F82F2F48706D1C062DF3D3FEF735FD01F0C1FA010A07F83B1F11
:2023C0007870FEF73DFDBC7030E792F806C0BCF1320F0ED192F807C0BCF1430F09D192F8D2
:2023E00008C0BCF1520F04D192F809C0BCF1440F03D05722492B31D048E087F800807D700A
:202400004922BA703222FA7043223A7152227A714422BA71F9710221FEF7A8F8C1B2C0F321
:20242000072001F0DFF8054615F47F4F07D0C5F3072001F083FA010A3972787202E03E7235
:202440004B207872E8B201F079FA010AB972F8723C7340211A4803F03FFE36E4DFF864C0D2
:20246000ACF10A0C9CF806E0BEF1320F0ED19CF807E0BEF1430F09D19CF808E0BEF1570F79
:2024800004D19CF809C0BCF1520F06D0DFF834C0412BACF10A0C2ED039E087F800807D7039
:2024A0004923BB703223FB7043233B717A715222BA71F9710321FEF759F8C2B204E00000FD
:2024C0007C080020CA010020C0F30721C0F3074001F068F930B1C0B201F030FA010A397222
:2024E000787202E03E724B207872BC724021FE4803F0F2FD7CE49CF80600462807D19CF880
:202500000700522803D19CF80800442802D0412B49D054E0F54B9CF80900586087F800803F
:202520007D704125BD704FF0460C87F803C052223A7144227A71B871F971A0F130020A2A4E
:2025400003D3A0F14101062917D2402802D93738586000E05A60E649586803F027FC002091
:20256000E3493B180A5C1A72401C3428F9D307F83C6F4B207870BC7007E087F808C07D7220
:202580004920B8724C20F8723C730020D84AFF214FF4A0631154401C9842FBD34021D24897
:2025A00003F09AFD24E49CF80600462807D19CF80700572803D19CF80800522802D0502B58
:2025C0004ED05FE00A23DFF824939CF80900C9F8040087F800807D704125BD704625FD702A
:2025E0003A7152227A71B871F971A0F1300ABAF10A0F03D3A0F1410106292AD2402803D997
:202600003738C9F8040001E0C9F804A00020D9F8041001EB810202EBC101B54A1D1800EBFE
:20262000810890441CF8055088F80051401C3428F4D3002000EB810313443D1893F800318D
:202640002B72401C3428F5D387F83C604B2087F83D0087F83E404021A34803F03DFD20E4A1
:202660009CF8060041280DD19CF80700392809D29CF808E0BEF1520F04D19CF809E0BEF115
:20268000440F02D0502B45D056E0984E706087F800807D705022BA704123FB703871522225
:2026A0007A714422BA71F9712F281DD9303870608F4903F09BFB0025DFF8348218F8050087
:2026C00001F03CF9F06007EB4501020A0A7248726D1C1A2DF2D398F81A0007F83C0F98F8F1
:2026E0001B007870BC7007E0462038727B724920B8724C20F8723C7300207D49FF224FF465
:20270000A0630A54401C9842FBD34021764803F0E3FC1CE49CF8060041280DD19CF80700E7
:20272000392809D29CF808E0BEF1570F04D19CF809E0BEF1520F02D0502B61D076E00A2666
:20274000DFF8A8916346C9F8040087F800807D705025BD704125FD7038717A715222BA7167
:20276000F9712F2845D93038C9F804000025DFF880819A4606EB450050440121FDF7F6FE9C
:20278000D9F80410C1EBC10105EB810108F801006D1C1A2DEED3D9F804100AEB0600C1EB56
:2027A000C10108EB810110F8342F8A764078C8760025D9F80400C0EBC00005EB800018F89C
:2027C000000001F0BBF8C9F80C0007EB4501020A0A7248726D1C1A2DEBD3D9F80400C0EB00
:2027E000C00008EB8000817E87F83C10C07E87F83D0087F83E4040213B4803F06DFC64E45D
:20280000DFF8ECC0ACF1800C9CF8060041280DD19CF80700522809D19CF808E0BEF1570FAB
:2028200004D19CF809C0BCF1520F06D0DFF8C0C0502BACF1800C28D037E0DFF8B090C9F8A0
:20284000040087F800807D705020B8704125FD70522038717A71B871F971254803F044FBE5
:20286000C9F8080020B13E724B207872BC7207E0462038727D724920B8724C20F8723C738D
:202880004021194803F028FC1FE49CF8060041280BD19CF80700532807D19CF80800452886
:2028A00003D19CF80900542802D0422B32D039E087F800807D705020B8704120F870532011
:2028C0003871452078715420B871F9710020084B4FF4A0611854401C8842FBD301204B2255
:2028E000C0EBC00106E000007C080020580000204002002003EB810101F8026D4A70401C1A
:202900000A28EDD33E727A72BC724021FE4803F0E3FB8FE49CF80600412803D19CF807009E
:20292000542802D0572B2DD040E087F800807D704220B8704120F870542038717971FEF76F
:2029400089F800256420FEF799F9E8B2FDF77CFE80464FEA182000F0F1FF07EB8506010A1F
:20296000B171F07108F0FF0000F0E8FF010A317270726D1C022DE5D3BC734021E24803F059
:20298000ABFB57E49CF8060049280FD19CF8070046280BD19CF80800492807D19CF8090004
:2029A000412803D19CF80A00542803D0D748572B24D041E0D64B0120187087F800807D7081
:2029C000BA704920F87046223A717871B971D148FEF764FB4120F8710024CE4D285D00F0EB
:2029E000ADFF07EB4401020A0A724872641C052CF4D34021C44803F06FFB1BE49CF806E0F7
:202A0000BEF1490F18D19CF807E0BEF1460F13D19CF808E0BEF1490F0ED19CF809E0BEF1D5
:202A2000430F09D19CF80AE0BEF1460F04D19CF80BE0BEF1470F02D0422B63D076E0B44EC5
:202A40000123337087F800807D70BA704922FA7046233B717A71B9714FF0000A87F807A02B
:202A60000821814601700025DFF8AC820DF1140B40461BF8051002F061FD8021404602F097
:202A8000BDFC0028F9D06D1C112DF1D30D21404602F054FD8021404602F0B0FC0028F9D054
:202AA0000A21404602F04AFD8021404602F0A6FC0028F9D04FF4FA70FEF7E0F899F8000075
:202AC000082810D03C540838C0B289F800000F2802D90F2089F8000099F800000A2808D2C4
:202AE0003030F87107E04E21397241217972BC72E9E73730F87186F800A04021824803F0B5
:202B0000EBFAAAE49CF806E0BEF14C0F0ED19CF807E0BEF1450F09D19CF808E0BEF1410F0C
:202B200004D19CF809E0BEF1540F02D04C2B36D03FE07A4B01221A7087F800807D70422201
:202B4000BA704C22FA7045223A7179710621064601700025DFF8C881E14609EB0500017AB3
:202B6000404602F0EBFC8021404602F047FC0028F9D06D1C022DF0D34FF4FA70FEF77EF816
:202B80003078062805D03C5440215F4803F0A4FA63E44E20B8714120F8713C72F4E79CF89C
:202BA00006E0BEF1450F04D19CF807E0BEF1440F02D0502B7CD08FE087F800807D704C207A
:202BC000B8704520F870442038719CF808007871B9719CF809104F2907D19CF80A20462A19
:202BE00003D19CF80B20462A07D04F2905D19CF80A104E2901D14FF001094A4A432822D07C
:202C000004DC412807D042283FD110E0442827D05A283AD131E044484FF40041B9F1000F60
:202C200002D000F086FB30E000F081FB2DE03F48B9F1000F03D0042100F07BFB25E0042100
:202C400000F075FB21E0B9F1000F04D02021104600F06FFB19E02021104600F068FB14E0BE
:202C60004FF40071B9F1000F03D0104600F061FB0BE0104600F05BFB07E0B9F1000F02D079
:202C8000FDF704FE01E0FDF7E5FDB9F1000F05D0FE714E2038727C7205E009E0FE714620E1
:202CA00038727872BC724021174803F015FA21E49CF80690B9F1570F0ED19CF80790B9F19D
:202CC0004D0F09D19CF80890B9F14F0F04D19CF80990B9F14E0F02D0502B2FD047E087F88F
:202CE00000807D705020B870FA704D2038717971BE714E20F8713C724021034803F0ECF92D
:202D0000FDF7C4FD002313E07C0800206201002061010020630100200048004060010020B2
:202D200000380140000C014000080140001401401A4619461846FDF7EDFD33E49CF80690F3
:202D4000B9F1570F13D19CF80790B9F14D0F0ED19CF80890B9F14F0F09D19CF80990B9F18A
:202D6000460F04D19CF80A90B9F1460F02D0502B1FD02DE087F800807D705020B870FA70C5
:202D80004D2038717971BE714620F87138727C724021B04803F0A0F900231A461946184678
:202DA000FDF7B8FDFDF7A8FDFDF754FEFDF752FD55E49CF80690B9F1570F09D19CF80790D0
:202DC000B9F14D0F04D19CF80890B9F14D0F02D0442B6FD09BE00A23384687F8008045708C
:202DE00050258570C2704D22027142719CF809208271C171303A0A2A01D2D5B200E0802543
:202E000018460BE01CF800100D2909D03039092903D80AF1010A0AF0FF0A401C5845F1D3FA
:202E20000CEB03005146FDF7B5FFC0B2652818D2BDB1052D15D2C0EB00104FEA4018442039
:202E40003872412078725421B972F872202038737E734B20B873FC7340217E4803F03CF943
:202E60001AE04FF0000844203872412078725421B972F87220203873452078734FF0520CD6
:202E800087F80EC087F80FC03E7487F811C0BC744021704803F020F9032D1ED00BDC012D0D
:202EA00014D0022D84D100231A4641461846FDF709FD2EE41FE0042D16D00A2DF9D1434696
:202EC000424641464046FDF7FDFC22E400231A4619464046FDF7F6FC1BE400234246194613
:202EE0001846FDF7EFFC14E40022434611461046FDF7E8FC0DE49CF80620412A07D19CF8EB
:202F00000720542A03D19CF80820412A18D0524B01221A7000220026BE54521C402AFBD3DF
:202F200005228146027087F800807D704220B8705420F87039710525E246DFF8208169E022
:202F40000922454B01211970002100267E54491C4029FBD302218146017087F800807D700F
:202F60000021032009E01CF800300D2B07D0303B092B01D8491CC9B2401C5845F3D30A2987
:202F800000D90A210CEB0200FDF704FF05464FF00008DFF8C8A0E9B2504602F0CFFA8021DF
:202FA000504602F02BFA0028F9D02D0A08F10108B8F1040FEFD34FF4FA70FDF75FFE99F82D
:202FC0000000022807D03C544021224803F084F82148067013E41621002013AA03E03D1804
:202FE000135CAB70401C8842F9D378188470EBE71AF805100D290FD0A1F120005F2808D2B0
:20300000404602F09BFA8021404602F0F7F90028F9D06D1C5D45EBD34FF4FA70FDF72EFEF3
:2030200099F80000052807D03C544021094803F053F80948067027E43721002019AA03E08B
:203040003D18135C6B71401C8842F9D378184471EBE700007C080020600100200038014029
:2030600001490860704700001404014030B51B4A83790168002B2AD013688B431360111DD0
:203080000B680468A3430B60017911440B68046823430B60114C0834216803689943216097
:2030A000231D19680568A94319604179102905D011440A68006802430A6030BD21680268F7
:2030C00011432160196800680143196030BD0079104402688A43026030BD000000040140F0
:2030E0000149032008607047400100200149C860704700000020024070B505464FF430264F
:20310000304600F07DF8042811D1094C206940F0020020616561206940F04000206130467F
:2031200000F06EF8216941F6FD721140216170BD0020024004200849CA68D20701D0012035
:203140007047CA68520701D502207047C968C906FBD50320704700000020024002480169BE
:2031600041F08001016170470020024004490A6822F010020A600A6802430A6070470000FD
:20318000002002402DE9F04105460E464FF40058404600F035F804280FD10D4C206940F08B
:2031A000010020612E80404600F02AF841F6FE77042804D0216939402161BDE8F081300CC4
:2031C0006880404600F01CF8216939402161F4E700200240034A116801F038010143116016
:2031E00070470000002002400348024941600349416070472301674500200240AB89EFCDB9
:2032000000B50346FFF796FF02E0FFF793FF5B1E012801D1002BF8D1002B00D1052000BD75
:203220002DE9F0410022CC7804F00F03E406002C01DA8C7823430C780F274FF0010CE4B1E5
:2032400005680CFA02F40E882640A64211D1960007FA06F825EA080503FA06F848EA050557
:20326000CE78282E02D0482E02D002E0446100E00461521C082AE4D305600A88FF2A1ED95E
:203280004568002202F108060CFA06F40E882640A64210D1960007FA06F825EA080503FAEB
:2032A00006F848EA0505CE78282E00D14461CE78482E00D10461521C082AE3D34560BDE830
:2032C000F0810000F0B5154C002801DAE36900E06368C0F30346420D120185B2C0F30157DD
:2032E0009540032F07D0C2020CD50322B240934343F0706209E023F07062636823F07063DA
:20330000636002E0AB4343F0706201B12A43002801DAE261F0BD6260F0BD00000000014053
:203320000246002092680A4200D0012070474161704701617047000070B58CB005460C46C7
:203340000C4E3046FEF750FA0B480190029500200390049405908021069107900890099003
:203360004FF440510A910B9001A93046FEF7CAFA0CB070BD80000240105400401FB5012125
:20338000480501F07FF80121084601F06DF80E4C204600F027FB0D4900910021ADF804101F
:2033A0004BF6FF71ADF806102115ADF80A100901ADF80C106946204600F058FB0121204601
:2033C00000F0EBFA1FBD000000540040801A060008B5C020ADF800001C208DF803000320DF
:2033E0008DF8020069460248FFF71AFF08BD0000000C01402DE9F047884619464006060E58
:203400001046FFF799FFDFF8CC910121484600F0ACFAFDF70FFC00F164050124670404E081
:203420003946484600F012FB0446FDF703FCA84201D8002CF4D1012C0AD0FDF7FBFB00F1AF
:20344000640500240121484600F0E8FA624F0AE0FFF794FF4FF48070BDE8F08739464846DD
:2034600000F08FFA0446FDF7E5FBA84201D8002CF4D064B1FDF7DEFB00F164050024002280
:203480003146484600F053FBDFF850A109E0FFF775FF4FF40070DFE75146484600F071FAD5
:2034A0000446FDF7C7FBA84201D8002CF4D06CB1FDF7C0FB00F1640500244146484600F00A
:2034C0003FFBDFF8188108F1020809E0FFF756FF4FF44070C0E74146484600F052FA0446D6
:2034E000FDF7A8FBA84201D8002CF4D04CB1FDF7A1FB00F1640500240121484600F08EFA4F
:2035000009E0FFF73BFF4FF48060A5E73946484600F037FA0446FDF78DFBA84201D8002C00
:20352000F4D064B1FDF786FB00F16405002401223146484600F0FBFA274E761C09E0FFF7CC
:203540001DFF4FF4A06087E73146484600F019FA0446FDF76FFBA84201D8002CF4D09CB1EE
:203560000121484600F031FA0121484600F021FA1B4F01213846FEF729F9FDF75BFB00F169
:20358000C8050024BE0408E0FFF7F8FE4FF4C06062E73046FEF7A4F90446FDF74BFBA84282
:2035A00001D8002CF5D064B10021484600F001FA0121484600F03EFA3046FEF7F9F800203E
:2035C0004AE7FFF7DBFE3846FEF70EF94FF4E06042E70000005400400100030082000700A4
:2035E000800002402DE9F04788464006060EFDF721FB00F164050124DFF89C91670404E0B2
:203600003946484600F022FA0446FDF713FBA84201D8002CF4D1012C0AD0FDF70BFB00F19F
:20362000640500240121484600F0F8F95B4F0AE0FFF7A4FE4FF48070BDE8F08739464846E4
:2036400000F09FF90446FDF7F5FAA84201D8002CF4D064B1FDF7EEFA00F164050024002271
:203660003146484600F063FADFF834A109E0FFF785FE4FF40070DFE75146484600F081F9E2
:203680000446FDF7D7FAA84201D8002CF4D06CB1FDF7D0FA00F1640500244146484600F00A
:2036A0004FFADFF8FC8008F1020809E0FFF766FE4FF44070C0E74146484600F062F90446E4
:2036C000FDF7B8FAA84201D8002CF4D04CB1FDF7B1FA00F1640500240121484600F09EF940
:2036E00009E0FFF74BFE4FF48060A5E73946484600F047F90446FDF79DFAA84201D8002CF2
:20370000F4D084B1FDF796FA00F16405002401223146484600F00BFA0021484600F025F9D4
:203720001E4E761C09E0FFF729FE4FF4A06083E73146484600F025F90446FDF77BFAA84228
:2037400001D8002CF4D05CB10121484600F072F9FDF770FA00F164050024104E3F3609E0F0
:20376000FFF70CFE4FF4C06066E73146484600F008F90446FDF75EFAA84201D8002CF4D05A
:2037800024B14846BDE8F04700F0CEB9FFF7F6FD4FF4E06050E70000005400400100030038
:2037A000820007002DE9F0470D4616464006070EFDF740FA00F164080124DFF818914FF4B6
:2037C000003A04E05146484600F040F90446FDF731FA404501D8002CF4D1012C0BD0FDF7C9
:2037E00029FA00F1640800240121484600F016F9DFF8E4A009E0FFF7C1FD0120BDE8F08741
:203800005146484600F0BDF80446FDF713FA404501D8002CF4D05CB1FDF70CFA00F16408E1
:20382000002400223946484600F081F92B4F08E0FFF7A4FD0220E1E73946484600F0A1F852
:203840000446FDF7F7F9404501D8002CF4D05CB1FDF7F0F900F1640700242946484600F095
:203860006FF91E4DAD1E08E0FFF788FD0320C5E72946484600F085F80446FDF7DBF9B84202
:2038800001D8002CF4D05CB1FDF7D4F900F1640500243146484600F053F9104EB61C08E0BA
:2038A000FFF76CFD0420A9E73146484600F069F80446FDF7BFF9A84201D8002CF4D02CB119
:2038C0000121484600F0B6F8002097E7FFF756FD052093E7005400400100030082000700F3
:2038E0000549096889B201EBC0000449001D31F8100080B270470000505C0040006000400A
:203900000549096889B201EBC0000449801D31F81000C0F309007047505C004000600040DF
:203920000449096889B201EBC000034931F8100080B27047505C00400060004000F00F01E8
:2039400000090A2802D23030C0B201E03730C0B20A2902D23031C9B201E03731C9B24FF6E0
:20396000FF7202EA002008437047002904D0018841F4806101807047018821F480610180F4
:203980007047034600209A8A1B8B1B041A4322F07F42914300D101207047002904D00188EB
:2039A00041F0010101807047018821F0010101807047002904D0818841F400618180704774
:2039C000818821F4006181807047002904D0818841F4805181807047818821F480518180FC
:2039E0007047000010B50C4988420AD101214C05204600F055FD2046BDE81040002100F0CA
:203A00004FBD01218C05204600F04AFD2046BDE81040002100F044BD00540040002904D04C
:203A2000018841F4807101807047018821F4807101807047002904D0018841F4007101802B
:203A40007047018821F400710180704700220B0F21F07F41002B01D0143001E0090C1830DD
:203A60000068084200D001221046704770B586B004460D46A08820F03F0601A800F05AFD2F
:203A800003982749B0FBF1F189B20E43A680228822F001022280234B2A689A4209D852006C
:203AA000B0FBF2F080B2042800D20420491C218422E0EB88A3F53F46FF3E05D102EB420245
:203AC000B0FBF2F080B208E002EBC20303EB0212B0FBF2F080B240F48040020501D140F0CF
:203AE000010040F400404FF4967251434FF47A72B1FBF2F1491C2184A083208840F00100AE
:203B0000208020884FF6F5310840A9886A89114301432180A88929890843208106B070BD9B
:203B200040420F00A0860100008AC0B27047002A02D041F0010101E001F0FE0101827047E0
:203B40000182704710B5144C2068017A02290AD0042908D006290BD0082021680872BDE81F
:203B6000104000F041BCFDF7EBFE2068007AF4E74178052909D10178490606D1C07800F0C6
:203B80007DFE06480068006A804705480068806880470820E1E700003000002038000020C7
:203BA000340000202DE9F04106464FF0090801F1A00704223946304601F0EAFD103F30467D
:203BC00000F074F810223946304600F089F8103F0424002506E0701900F015F8641EE4B2D1
:203BE0002D1DEDB2002CF6D1A8F1010818F0FF08E5D1304600F05AF839463046BDE8F041FF
:203C0000102200F06DB82DE9F04F04466278A078E17882EA00074F40257885EA000888EAEB
:203C20000108554085EA010645402046FDF71EFC94F8009094F801B089EA0B0A8AEA070A11
:203C4000A0788BEA000B8BEA080BE178484080EA060789EA010989EA05092046FDF706FC92
:203C60002578A0784540294685EA0A056678E0784640B04686EA0B064F4088EA0908204672
:203C8000FDF7F4FB20786178E2784840A178514048404540464087EA000188EA0008257030
:203CA0006670A17084F80380BDE8F08F417B427A4273427942724278427141708178827A4B
:203CC000827081728179827B82718173C178C279C270C27AC271C27BC272C17370470000B0
:203CE00030B5064C037811F8015BE35C6B4000F8013B521E12F0FF02F4D130BDBC09002085
:203D00003CB5044621A0006800902148102110F8012B04F8012B491E11F0FF01F7D1012266
:203D2000211F01A8FDF72CFC1025280716D101A8FDF734FD042101A801F0A4F80122694638
:203D400001A801F025FD9DF80000010601D51B2100E0002181EA40008DF800000122A4F110
:203D6000100101A801F014FD9DF8040020709DF8050060709DF80600A0709DF80700E0705D
:203D8000241D2D1DEDB2B02DCFD33CBD01000000BC0B002010B5134C4FF4803000F04AFC4C
:203DA00000F098FC10490870312000F019FC0028FAD0012000F06EFC392000F011FC00286D
:203DC000FAD0022000F076FC00F022FC0828FBD1A17A064811B10521016010BD0121016089
:203DE00010BD0000A4010020420000204001002070B5094C4FF48065256000F059F9E01411
:203E0000206000F055F9201F056000F051F92560BDE8704000F04CB9140C01402DE9F0418F
:203E200004460F4615461E46002E18D000F0ECF8C0B1204600F076F800F01AF9A0B1384633
:203E400000F070F800F014F900F0DEF8641CE0B200F068F800F00CF950B1012414E00020B6
:203E6000BDE8F0810020FBE700F0ECF80020F7E700F0E8F80020F3E700F028F805F8010B75
:203E8000FFF7B6FF641CE4B2B442F5D300F01EF8287000F005F800F0D5F80120E0E7000073
:203EA00070B5094D4FF480642C6000F001F92E1F6000306000F0FCF8346000F0F9F82C60C8
:203EC000BDE8704000F0F4B8140C01402DE9F04708250024DFF848802802C8F80000DFF892
:203EE0004090461008F10407A9F108090EE06006040E3E6000F0DCF8C8F8006000F0D8F845
:203F0000D9F80000000501D544F001042800A5F10105EDB2EBD13E602046BDE8F08700007D
:203F2000100C01402DE9F04705460824104E4FF40068E701A6F1040911E0376000F0B8F8A3
:203F4000280602D5C9F8008001E0C6F800806806050E00F0ADF8C9F8007000F0A9F8200004
:203F6000A4F10104E4B2E8D13760BDE8F0870000140C014070B504460D4600F045F8D8B1CC
:203F80002046FFF7CFFF00F073F8B8B12846FFF7C9FF00F06DF800F037F8641CE0B2FFF78B
:203FA000C1FF00F065F8FFF791FF0446FFF778FF00F048F8204670BD002070BD00F042F87D
:203FC000002070BD70B506460C46154600F01CF898B13046FFF7A6FF00F04AF878B1204657
:203FE000FFF7A0FF00F044F82846FFF79BFF00F03FF800F027F8012070BD002070BD00F041
:2040000021F8002070BD000070B50D484FF4006404600115016000F04BF8094D083D2868E0
:20402000074E361D346000F043F82868000501D5002070BD346000F03BF8012070BD00005C
:20404000100C014070B5094C4FF48066266000F02FF8E514256000F02BF8241F266000F079
:2040600027F82560BDE8704000F022B8140C014070B50E4D4FF480642C6000F019F82E1F9B
:204080006000306000F014F8346000F011F807480C380068000504D52C6000F009F8002031
:2040A00070BD2C6000F004F8012070BD140C01400520401EC0B20028FBD1704718221C2195
:2040C0006820FFF76FBBF8221C216820FFF76ABB01226B216820FFF765BB18221B216820F3
:2040E000FFF760BBF8221B216820FFF75BBBB22237216820FFF756BB012238216820FFF710
:2041000051BB01226B216820FFF74CBB10B53A216820FFF767FAC0B210BD00226A216820EC
:20412000FFF740BB7047401EFDD170472DE9F04104460D461646DFF8408010214046FFF770
:20414000F6F80520FFF7EFFF204600F033F80746002405E0002000F02DF82855641CE4B2C9
:20416000B442F7D30520FFF7DEFF10214046FFF7E0F83846BDE8F0810008014070B50546B5
:204180000B4C10212046FFF7D2F80520FFF7CBFF284600F00FF8002000F00CF80546102197
:2041A0002046FFF7C6F80520FFF7BDFF284670BD0008014070B505460A4C0221204600F0EB
:2041C0002DFB0028F9D02946204600F030FB0121204600F023FB0028F9D0204600F025FBD9
:2041E000C0B270BD0030014000F01F020121914040094FF0E02202EB8000C0F880117047B4
:20420000F0B50F23C278012601784FF0E027002A1BD0124A126802F4E062C2F5E062120A6F
:20422000C2F10404D3404578A54082781A402A4312010B4BCA54007800F01F018E40400927
:2042400007EB8000C0F80061F0BD01F01F008640480907EB8000C0F88061F0BD0CED00E06E
:2042600000E400E00249084302490860704700000000FA050CED00E00907090E002804DA75
:20428000034A00F00F0081547047024A8154704714ED00E000E400E070B50220314D296873
:2042A0004C780A78530606D002F07F0101292ED0022931D03AE0092C06D0052C07D0032C67
:2042C00012D0012C18D031E000F042FD2EE0C8787F2805D8887818B9888808B9887A08B178
:2042E00008203CE0002021E0CA78012A1ED18988E1B900F049FD19E0CA78012A16D18A88BD
:20430000A2B9497A890611D500F012FC0EE00B2C0CD100F091FD09E0012C02D0032C03D0A2
:2043200004E000F005FC01E000F040FD30B10E49E0B2096849698847032802D018B10820F0
:204340000DE009200BE00620084900220968084B89B2891C43F81120064A302111802968F0
:20436000087270BD3000002034000020505C0040006000404000002010B5104C2068007AE3
:2043800002280ED004280CD003280CD005280AD007280DD0082021680872BDE8104000F0E3
:2043A00023B80820F7E7FDF727FB2068007AF2E703480068C06880470820ECE7300000203E
:2043C00034000020521C5208064B03EB4101002A06D031F8043B20F8023B521E002AF8D120
:2043E000704700000060004010B50B4890F82C10002000F073FA09480068007A082805D1D4
:20440000074A41021180074A10211180092801D0002010BD012010BDCC000020300000204B
:204420003E0000204000002010B5012001F0CAF8012106480160064A00210160031D1960E9
:204440004FF4E05111800160002010BD405C00403C000020034A516821F440410143516040
:204460007047000000100240054A002903D05169014351617047516981435161704700009A
:2044800000100240054A002903D0D1690143D1617047D1698143D1617047000000100240DF
:2044A000054A002903D011690143116170471169814311617047000000100240054A002999
:2044C00003D091690143916170479169814391617047000000100240054A002903D0D168E5
:2044E0000143D1607047D1688143D16070470000001002400C48016841F00101016041685F
:204500000A4A114041600168094A11400160016821F480210160416821F4FE0141604FF4C6
:204520001F01816070470000001002400000FFF8FFFFF6FE10B5264A516801F00C01254B2C
:20454000002927D0042927D0082927D00360516801F0F0010909204B5C5C0168E140416091
:20456000546804F4E064240A1C5D21FA04F48460546804F46054E40A1B5DD940C1605268E3
:2045800002F44042920B144B1B1F9A5CB1FBF2F1016110BD0360DAE70360D8E7516801F4C5
:2045A0007011536803F48033022404EB914133B153689B0307D5094B59430160C7E7074BC4
:2045C00059430160C3E7034B59430160BFE700000010024000127A001800002000093D00E7
:2045E000034600205909094A01290AD002290AD0516A03F01F02012393400B4200D0012090
:2046000070471168F5E7116AF3E70000001002400248406800F00C007047000000100240F0
:20462000034A516821F0F0010143516070470000001002400C490A6822F480320A600A6809
:2046400022F480220A60B0F5803F07D0B0F5802F03D1086840F4A02008607047086840F4AE
:20466000803008607047000000100240034A516821F4E061014351607047000000100240BF
:20468000034A516821F4605141EAC0005060704700100240014908667047000000004242B7
:2046A000034B5A6822F47C12084310435860704700100240034A516821F0030101435160D7
:2046C00070470000001002400149086070470000D800424230B500244FF4A0653120FFF774
:2046E0007FFF641CAC4201D00028F7D03120FFF777FF08B1012030BD002030BD70B51E4CEE
:20470000072800D020702078062504261B49062830D2DFE800F003070B10182200F030F85B
:20472000257070BD00F02CF8267070BD022060700320207070BD6078401E60706078002808
:20474000F8D1267070BD086880B240F010000860052020700A20607070BD6078401E6070A1
:2047600060780028F8D1086880B220F010000860257070BD257070BD45010020405C004080
:2047800010B5064C206880B220F004002060FFF701FB4FF43F40206010BD0000405C0040D7
:2047A000002904D0018841F0400101807047018821F040010180704710B5154988420AD1EE
:2047C000841401212046FFF787FE2046BDE810400021FFF781BE0F4988420AD10414012156
:2047E0002046FFF75DFE2046BDE810400021FFF757BE094988420AD1C41301212046FFF72F
:204800004FFE2046BDE810400021FFF749BE10BD0030014000380040003C00400246002038
:2048200012890A4200D001207047808970478181704730B5028802F441530A884C88CD88BC
:2048400022438C882C4322430C8922434C8922438C892243CC8922431A430280828B22F4A1
:2048600000628283098A018230BD0000024920F00700086070470000505C0040F0B50D4966
:204880000E7800210C4C48F68F7748F2800C09E0CBB204EB830215683D401D4345EA0C059B
:2048A0001560491CB142F3D3034940F080004C310860F0BDA4000020005C0040054A21F017
:2048C0000101126892B202EBC000034A001D42F810107047505C0040006000400E4A126892
:2048E00092B202EBC0000D4A801D02EB40023E290AD94809C90601D1401E80B24FF4004154
:2049000041EA8020106070474808C90701D0401C80B2800210607047505C004000600040F1
:204920000A4A02EB800210684BF68F731840CB04002B01DA80F48050890401D580F4005061
:2049400048F280010843106070470000005C0040074901EB800001684BF68F72114081F461
:20496000805181F4005148F28002114301607047005C0040054A21F00101126892B202EBCF
:20498000C000034A42F8101070470000505C004000600040044A126892B202EBC000034A67
:2049A000801C42F810107047505C0040006000400A4A02EB8002106848F6BF731840CB06EA
:2049C000002B01DA80F01000890601D580F0200048F280010843106070470000005C004093
:2049E000074901EB8000016848F6BF72114081F0100181F0200148F2800211430160704796
:204A0000005C0040044A02EB8000026848F68F131A400A4302607047005C0040AFF3008077
:204A2000002024490A6842F480320A604FF4A0630A6802F40032401C0AB99842F8D1086813
:204A4000800301D5012000E00020012830D11A48026842F010020260026822F0030202605D
:204A6000026842F0020202604868486048684860486840F480604860486820F47C10486020
:204A8000486840F4E8104860086840F08070086008688001FCD5486820F0030048604868BD
:204AA00040F0020048604868C0F381000228FAD170470000001002400020024038B519488A
:204AC000006881B21848091D30F8111089B200EB41040094154D2868017A092913D0217852
:204AE00001706178241D41702088FCF7D6FB29684880A088A41DFCF7D0FB29688880A41CB5
:204B000000942088C880286801210172C08828B1FCF7C2FFBDE83840FFF766BCFFF7BCFB35
:204B2000F8E70000505C004000600040300000202DE9F04138480068017801F07F01002978
:204B400004D0022908D00220BDE8F081417A01F0DF0141720020F7E7418809B9017909B14A
:204B60000220F1E72D4B417921F080042C4E0A0605D556F82420C2F30112120104E056F871
:204B80002420C2F3013212031D78A5420BD952B1807A40B1080610D556F82400C0F301105D
:204BA000012802D021E00220CEE7E0B2FCF7C8FCE0B23021FFF7FCFE17E006EB8405286805
:204BC000C0F30130012810D14BF68F7848F280078CB1E0B2FCF7A2FC286800EA080080F488
:204BE000805080F40050384328600E480068406980470020A8E70C4890F82C100020FFF713
:204C00006DFE306800EA080080F4805080F4005038433060E9E7000030000020A4000020A8
:204C2000005C004038000020CC00002010B5074C002806D0064800680068804720680A30D7
:204C400010BD216801200882002010BD3000002038000020064A13685A8A002802D00868A5
:204C6000104470478888801A18820020704700003000002010B5074C002806D006480068F2
:204C80008068804720680C3010BD216801200882002010BD300000203800002010B52849D5
:204CA000002809680DD02748002202800A7853060BD002F07F02012A1FD0022A1FD00020ED
:204CC00010BD02200882002010BD497A8A0604D5027842F00202027003E0027802F0FD02D2
:204CE0000270490604D5017841F00101017021E0017801F0FE0101701CE0124810BD4A793C
:204D000002F00F011306104A0AD552F82110C1F3011101290ED1017841F00101017009E0EF
:204D200052F82110C1F30131012903D1017841F0010101700548006800698047014810BDFC
:204D4000300000202A000020005C00403800002010B50A480A4A00685278C178914203D841
:204D600082780AB982880AB1022010BD81720548006840688047002010BD0000300000206E
:204D8000A40000203800002010B506480068417A41F02001417204480068C06980470020F8
:204DA00010BD0000300000203800002070B51E480268517921F080041C480B0621F080051F
:204DC00000EB8500002B04DA0368C3F301131B0103E00368C3F301331B03154D2D78A542C5
:204DE00011D954887CB973B1927A62B1090648F280020AD5016848F6BF73194081F0100117
:204E00001143016009E0022070BD01684BF68F73194081F480511143016006480068806906
:204E20008047002070BD000030000020005C0040A40000203800002010B50F4C0F4A206855
:204E40001268C17892694079904721688A7A8AB118B9087908B9887808B1022010BD084841
:204E60000068C068804720684179C172C1780173002010BD022010BD300000203400002039
:204E80003800002010B5044A03789468E35C00F8013B491EF8D110BD680100200648016880
:204EA00089B241F008010160016889B241F004010160FEF715B90000405C00400248016A8D
:204EC000426A1144016270477C01002010B50F48016841F00101016041680D4A114041600F
:204EE00001680C4A11400160016821F480210160416821F4FE0141604FF41F018160FFF729
:204F00008DFD05494FF00060086010BD001002400000FFF8FFFFF6FE08ED00E0002904D0D8
:204F2000018841F0800101807047018821F0800101807047002904D0018841F00101018071
:204F40007047018821F0010101807047002905D030F8441F41F400410180704730F8441F04
:204F6000C1F30E010180704730B5028C22F001020284028C8388048B24F0700424F003055C
:204F80000C882C4322F002020D8915434A882A43124DA8420BD0124DA84208D0114DA8423E
:204FA00005D0114DA84202D0104DA8420FD122F008054A892A4322F004058A882A4323F4CB
:204FC000807323F400738D891D43CB892B4383800483C9888186028430BD0000002C01405A
:204FE0000034014000400140004401400048014070B5028C22F010020284028C8388048B28
:2050000024F4E04424F440760D884FF6FF7404EA0525354322F020020E8904EA061616437B
:205020004A8804EA02123243114EB04202D0114EB04217D122F080024E8904EA06161643FD
:2050400026F040068A8804EA0212324323F4806323F400638E8904EA86061E43CB8904EAC3
:205060008303334383800583C9880187028470BD002C01400034014070B5028C22F4807280
:205080000284028C8388848B24F0700424F003040D88254322F400720E894FF6FF7404EA7D
:2050A000062616434A8804EA02223243114EB04202D0114EB04217D122F400664A8904EA79
:2050C0000222324322F480668A8804EA0222324323F4805323F400538E8904EA06161E43CC
:2050E000CB8904EA0313334383808583C9888187028470BD002C01400034014070B5028C36
:2051000022F480520284058C8288838B23F4E04323F440760C884FF6FF7303EA042434439A
:2051200025F400550E8903EA06362E434D8803EA05353543094EB04202D0094EB04205D122
:2051400022F480468A8903EA8212324382808483C988A0F84010058470BD0000002C014005
:2051600000340140818670470187704781877047A0F840107047000030B502881B4C1C4D20
:20518000A0420DD0A8420BD0B0F1804F08D0194B984205D0184B984202D0184B984203D110
:2051A00022F070034A881A43154B984206D0154B984203D022F44073CA881A4302808A8812
:2051C00082850A880285A0420AD0A84208D00E4A904205D00D4A904202D00D4A904201D13C
:2051E000097A01860121818230BD0000002C0140003401400004004000080040000C0040D9
:205200000010004000140040004001400044014000480140F8B51D4E4021304600F0EEF896
:20522000012813D14021304600F06EF8184D2A786C7828198178944205D2304600F07EF985
:20524000641C6C7002E0012085F842002021304600F0D4F8012811D12021304600F054F8BF
:20526000304600F067F9C1B200910A48007830B10A4A094B10781954401C1070F8BD012268
:205280006946074800F068FCF8BD000000380140F8070020600100207C08002062010020C7
:2052A0006007002010B5144C4021204600F0A6F8012803D14021204600F026F82021204674
:2052C00000F09CF8012815D12021204600F01CF8204600F02FF9C0B208490978012909D1CA
:2052E0000D2807D00A2805D0064A054B11785854491C117010BD0000004800406101002009
:205300007C080020620100208A05C94301807047002904D0818941F4005181817047818943
:2053200021F400518181704770B54FF4E13000F009F900F025F800F0E1F80F4D40212846E2
:20534000FFF7E2FF012240F22661284600F05DF840F2255401222146284600F056F8074DB2
:2053600040212846FFF7D0FF21462846BDE87040012200F04AB80000003801400048004059
:205380002DE9F84301218803FFF798F801218804FFF778F818248DF803404FF40070ADF819
:2053A000000003258DF80250DFF8488069464046FDF736FF04268DF803603702ADF8007091
:2053C00069464046FDF72CFFADF800708DF803408DF80250084C69462046FDF721FFE11453
:2053E000ADF800108DF8036069462046FDF718FFBDE8F883000801400010014002460020CE
:2054000012880A4200D00120704710B540F66A13C1F3421301F01F040121A140012B07D063
:20542000022B07D014303AB102680A43026010BD0C30F8E71030F6E702688A43026010BDB5
:2054400030B585B004460D46208A4CF6FF710840E98801432182A0894EF6F3110840A988AF
:205460002A8911436A8902431143A181A08A4FF6FF410840A9890143A1826846FFF75AF8F1
:205480001D48844201D1039800E00298A189090408D500EBC00101EB001029684900B0FBB9
:2054A000F1F007E000EBC00101EB001029688900B0FBF1F06422B0FBF2F109010B096FF045
:2054C00018056B4300EB8300A3891D044FF0320307D503EBC000B0FBF2F000F00700084379
:2054E00006E003EB0010B0FBF2F000F00F000843208105B030BD00000038014038B5252003
:205500008DF8000000248DF801408DF8024001258DF803506846FEF773FE27208DF8000077
:205520008DF801508DF802408DF803506846FEF767FE38BD8088C0F308007047C1F30801C2
:20554000818070472DE9FF4105461A4F00213846FFF7DEFE00950024ADF80640ADF804408B
:20556000ADF80840ADF80C400C26ADF80A6069463846FFF765FF01213846FFF7C9FE0E4FCB
:2055800000213846FFF7C4FE0095ADF80640ADF80440ADF80840ADF80C40ADF80A606946AF
:2055A0003846FFF74DFF01213846FFF7B1FEBDE8FF81000000380140004800404FF48020DD
:2055C000FDF74EBD7047000010B54FF4807421460448FDF7ACFE2146BDE810400248FDF72E
:2055E000A6BE0000000C01400008014010B54FF4807421460448FDF79CFE2146BDE8104018
:205600000248FDF794BE0000000C01400008014006480549016002220A7205494160054A89
:205620008260086800470000A401002030000020CC0000201C01002070B5294C2068294DFB
:2056400068806888284E318808400004002801DAFBF742FE688831880840400505D54FF66D
:20566000FF302060214840688047698830880140890402D54DF6FF71216069880140C80423
:2056800005D54EF6FF7020600020FFF737F868883188084000050BD51548007810B1FFF756
:2056A000FDFB02E00220FFF729F84FF2FF702060698830880140890505D54FF6FF5121603F
:2056C0002978491C297069880140C80507D54FF6FF602060BDE870400720FFF70FB870BDC6
:2056E000445C0040680000203C000020CC00002044010020FFF7A0BF05490020086005491C
:205700004FF43F4008800249091F086000207047445C00403C00002070B50E4600F07F0564
:205720002846FEF7EDF804462846FEF7D9F8014622463046FEF746FE204670BD70B50E4639
:20574000144600F07F052846FEF7EAF80146A2B2304600F007F8A1B22846FFF71BF900204B
:2057600070BD000010B5521C5208084B03EB4101002A09D003784478801C43EA042321F8A9
:20578000043B521E002AF5D110BD00000060004010B510C90368634008C0521EF9D110BD82
:2057A00070B50E4C0C4D256005F58076666031462846FBF76BFE05F50070A060FBF77CFEC0
:2057C00025612846FEF79CFAE6603146A068BDE87040FBF791BE0000BC0800206801002082
:2057E00030B504460D46042221460A48FBF7C8FE094801692046FEF7D5F9042229462046B1
:20580000FFF7C6FF2846BDE8304004220149FBF7B7BE0000BC0A002068010020F0B58CB023
:2058200006460C46FFF7BCFF002204ADB05CA854521C102AFAD3002200206F46B854521C58
:20584000102AFBD3694604A8FFF7CAFF0022A85CA054521C102AFAD30022A05CB854521CFF
:20586000102AFAD30022B018007CA854521C102AF9D3694604A8FFF7B3FF00202218295C69
:205880001174401C1028F9D30CB0F0BD0021044A435C5354491CC9B22029F9D37047000059
:2058A000BC0B00200448016841F4003101600348962141604160704724ED00E00020024037
:2058C0002DE9F047A0B006464FF00008534C2078627802F0FE01524F02F001023A702246EE
:2058E000504B928801251204D20AFA2801D1042902D05A2814D015E0500508D005EBD2217D
:2059000039B16F2907D9002020B0BDE8F087D10AF6E70020F8E7184600F0A0F9804636E09F
:20592000A42902D0F5281AD01BE02068000C400100EB03082022211D6846FAF7CCFC08A963
:205940006846FFF76BFF202208A9201DFAF7C3FC0822211D404600F0FBFA804617E00A2996
:2059600002D0D5280FD012E0D4F8089018464FEA920A514600F045F9484508D1514600F03E
:205980005DFA804603E02A2901D127480560B8F1010F01D00020B7E738785522AA230027AB
:2059A000B8B1002010A90F54401CC0B24028FAD38DF840208DF8413004208DF84200A019C0
:2059C00050F8040CCDF84300402110A800F084FB22E0A019154E50F8040CC6F8050004247E
:2059E000B270F370347172B68021DFF844804046FFF704FD01280ED1B1784046FFF79EFD54
:205A000080214046FFF7FAFC0028F9D086F84270E41C3470757062B6012075E73C080020D0
:205A200048010020008000085C010020F8070020003801402DE9F041234800F0DCF8C0B278
:205A4000224E3478642C09D06425652C12D0402C37D8A04221D20020BDE8F08128B11A4804
:205A600000F0B0F8552802D02CE00020F4E76520307027E0022801D20020EDE7124800F0D1
:205A8000A1F8AA2801D035701CE00F4800F09AF83070402816D9357014E022460C490A48B1
:205AA00000F082F84FF0FF3000EB9401084850F8217000F00FF8874200D0002435702046A6
:205AC000CAE735700020C7E760070020490100203C08002070B504460D46FBF7F7FB294638
:205AE0002046BDE87040FBF7DDBB01214020FEF7BBBC2DE9F041064688461746B468601C1D
:205B00001C40051BBD4200D33D46F0682A462044414600F0D7FA7A1B08EB0501F068BDE8B5
:205B2000F04100F0CFBA2DE9F04105460F461646A868411C18400C1AB44200D33446E968F9
:205B400022460144384600F0BDFA321B3819E968BDE8F04100F0B6BA70B504460E46154630
:205B600072B6204600F040F8854200D905462A46314620462368FFF7BCFF20682844206087
:205B80002069401B206162B6284670BD002303604360C160022A02D2836000207047511E7A
:205BA000816002610120704710B5044672B6204600F004FA6168014461602169014421611E
:205BC00062B610BD38B5044672B601226946204600F0F4F96068401C60602069401C206122
:205BE00062B69DF8000038BDD0E900128068891A401A401C704772B6D0E90010081A62B615
:205C000070472DE9F04105460E460027FBF75EFB002405E055F82400FBF752FB0746641CEF
:205C2000B442F7D33846BDE8F081000010B5094809490C68091D09684FF45E32914200D91E
:205C40009110FFF7DEFFA04201D0012010BD002010BD000000800008E0FF03082DE9F04189
:205C600005460F4605261048854202D20020BDE8F081FDF7B9FA3520FDF738FA002408E002
:205C80002846FDF739FA064605F50065052E02D0641CBC42F4D3FDF761FA042E01D0002008
:205CA000E5E70120E3E700000080000810B50446FDF79AFA3520FDF719FA2046FDF71CFA42
:205CC000BDE81040FDF74ABA70B54FF0E021002008611420FEF788FA2A20FEF785FA25203B
:205CE000FEF782FA2A4C40F22666002231462046FFF78BFB40F22555002229462046FFF7EB
:205D000084FB3146234E00223046FFF77EFB002229463046FFF779FB1F4D00212846FDF7B5
:205D20003CFE00211D48FEF73BFD00212046FFF7EFFA00213046FFF7EBFA00212846FDF71B
:205D400038FE00211648FAF735FB00211548FFF7F1F801218C032046FEF7BEFB00212046C4
:205D6000FEF7BAFB4FF0845401212046FEF798FB00212046FEF794FB012080F313880A49C5
:205D8000086880F3088848688047002070BD000000380140004800400054004000300140C6
:205DA00000240140000400400080000870B500EB800202EBC0004FF4807202EB80040020AD
:205DC000094D04EB8002525901F8202001EB8003160A5E70160C9E70120EDA70401CC0B253
:205DE0000D28EED3012070BD00F0030870B5C0EBC000840000200A4D04EB8002525901F8C4
:205E0000202001EB8003160A5E70160C9E70120EDA70401CC0B20728EED3012070BD00003F
:205E200000F0030810B5002304E050F8234041F823405B1C9342F8D310BD00002DE9F05F0B
:205E400007468846254D264E264C2046FFF72EFF002054F82010491C02D00020BDE8F09F1F
:205E6000401CC0B20828F4D3FDF7BEF93520FDF73DF9A34639465846FDF784F9DFF864A0E1
:205E800041460AF1040A5046FDF77CF90AF1040931464846FDF776F909F10404294620462C
:205EA000FDF770F9FDF75AF9DBF80000B84201D00020D3E7DAF80000404501D00020CDE7CA
:205EC000D9F80000B04201D00020C7E72068A84201D00020C2E70120C0E7000056332E32A3
:205EE00044725244E0FF03082DE9F0410546174E3046FFF7DBFE00214FF4A07756F8210046
:205F0000401C02D00020BDE8F081491CB942F5D3FDF76AF93520FDF7E9F8002405EB8401DB
:205F2000C878020288781043020248781043000215F82410014306EB8400FDF723F9641C27
:205F4000BC42EBD3FDF70AF90120DCE700F003082DE9F041054688461746052616488542A2
:205F600002D20020BDE8F0810021002306E055F82300401C01D0012102E05B1CBB42F6D30F
:205F8000A1B9FDF731F93520FDF7B0F8002409E058F8241005EB8400FDF7F4F80646052E34
:205FA00002D0641CBC42F3D3FDF7D8F8042E01D00020D7E70120D5E70080000870B5054651
:205FC0001446D5E90003C01A844200D9044622462846FFF7A8FD204670BD00007FB533A0D8
:205FE00090E80E00C0688DE80E000390FAF77AFDFAF7AAFDFAF74CFEFAF772FBFAF7CCFB8C
:20600000FAF728FDFAF708FBFAF7FCFEFAF75CFFFAF7DEFEFFF788F9284C00262670FAF7DA
:2060200069FEFFF7F5FA4FF4FA70FAF727FEFFF7CBFAFAF767FFFAF703FFFAF7CBFFFFF79B
:2060400054FD6846FFF722FC1D498022A1F11800FFF79CFD64206070194D0120803585F8DF
:206060004200FFF7E3FD6660E660A66026616661FAF7AAFD95F84200012805D1FFF7DAFC76
:20608000A07008B1FFF71CFCFAF762FD6169A0680843EDD0FAF716FDFFF704FCFFF7A6FA6F
:2060A000FFF712FE04B0002070BD0000000102360405060708090A0B0CCD0E0F4801002005
:2060C0007807002010B5034603E011F8014B03F8014B521EF9D210BD10B5402900D340212A
:2060E0000A4601460748FAF7B1F8402205498120FFF724FB0120FEF773FC03490020087051
:2061000010BD0000000200205800002010B591EA030F48BF83F0004300F19482841A71EB08
:20612000030C05D2121943EB0C03001B61EB0C01DFF824E14FEA1154A4EB135C1EEA430FCB
:2061400018BF9EEA445F73D023EA0E03DCF1200E21EA045143F4801332D322FA0CFE10EB91
:206160000E0023FA0CFE41EB0E01CCF1200E03FA0EFE10EB0E0051F10001B1F5801FCCF16D
:20618000200E32D201EB045112FA0EF2BDE8104058BF7047401C38BF5FEA420218BF70474F
:2061A000002814BF20F0010041F100014FEA410313F5001F38BF7047A1F1C04100F034BADD
:2061C000012A43EB0302ACF1200CDCF11F0E32BF4FF0000E23FA0CF310EB030041EB0451C5
:2061E000B4EB115FD0D0A1EB045101F5801149085FEA300001EB04510ED350F1000038BF64
:2062000012FA0EFE08D1BDE81040C9E7401C38BF5FEA4202CAD1C3E7BDE810404FEA410351
:2062200013F5001F38BF7047A1F1C04100F0FCB99EEA445F08D011EA5E0FBDE8104004BF2E
:2062400001F0004100207047BDE8104070B500F09DF900BF64FBBE3E0000E0FF2DE9C04185
:2062600030B4DFF8A0C23CEA111418BF3CEA131400F0EC8081EA03051CEA111444EAD57421
:2062800018BF1CEA131500F0C780A4EB05044FF0004545EAC12145EAC32341EA505143EA87
:2062A000525304F17F74994204F500344FEAC0204FEAC22208BF904200F09C804FEA1365BD
:2062C0000FF24016765D4FEA134506FB05F7C7F1807706FB07F74FEAD737A7FB036876424C
:2062E000C8F58038A7FB06CE38BFA8F1010807FB08E64FF0000EA6FB028CE6FB03CEDCF12F
:20630000000CCEF1004E38BFAEF1010EA6FB0C584FF000074FF00005E6FB0E87A1FB08C650
:20632000A0FB07CE16EB0E0645F10005E1FB076515F1E04E7EBFA4F580345FEA46066D4154
:2063400016F1800745F100054FEA17274FEA066647EA0567A6F1DE46B6F1805F4FEA152507
:206360001FD9384624F0010C05EBC471BCF1FE6F01EB0C1102D8F0BCBDE8008124425CBF11
:2063800001F5801E9EEAC47F02D4F0BCBDE80081244238D4F0BCA1F1C041BDE8004100F06F
:2063A00043B94FEAD22242EA43524FEAD323A7FB02864FEAD02040EA415007FB03661EEA43
:2063C0000E0F4FEAD12105FB026658BFA6EB0056B6EB00564FEA520E4EEAC37E18EB0E0EE7
:2063E00056EB530EBDD518EB02085E417F1C55F10005B6E74FF480154FF000074FF00006D7
:206400004FF00008ADE7F0BC4FF0000001F1C04101F00041BDE8008111EA0C1F0CEA131527
:2064200000D00CE013EA0C1F00F025804FF00000F0BC81EA030101F00041BDE80081F0BC85
:20644000BDE8004181EA030100F0EEB8F0BCBDE8004170B500F09AF8097EFC3E00F007B8A8
:2064600081EA03014FF0000001F00041704781EA030100F0D9B8F0BCBDE800414FF00000C4
:2064800021497047FFFDFBF9F7F5F4F2F0EEEDEBE9E8E6E4E3E1E0DEDDDBDAD8D7D5D4D389
:2064A000D1D0CFCDCCCBCAC8C7C6C5C4C2C1C0BFBEBDBCBBBAB9B8B7B6B5B4B3B2B1B0AFF6
:2064C000AEADACABAAA9A8A8A7A6A5A4A3A3A2A1A09F9F9E9D9C9C9B9A999998979796959F
:2064E00095949393929191908F8F8E8E8D8C8C8B8B8A89898888878786858584848383823A
:20650000828181800000FF070000F87F4FEA1153A3F58063D3F11E03A8BFD3F1200C08DBC3
:206520004FF0004242EAC12252EA505232FA03F0704709420BD4102BC4BF0020704703F560
:20654000787CBCF1FF3F05D04FF0FF3070474FF00000704770B500F019F800BF4992248008
:2065600000207047F0E7B0FA80F310FA03F10AD0C3F11D0303F580634FEA41504FEA035271
:2065800002EBD12170474FF0000070470EF1020E2EF0030E5EF8046B364205D4012A43EBC2
:2065A000030515F5001F12D8012841EB010C1CF5001F0CD80ED14FEAD17C15F5001F0CEBC5
:2065C0004C0C0CF1020C08BF4CEBD37C04E04FF0080C01E04FEAD37C0CEB4C0526FA05F608
:2065E00006F00706B6F1040C06D20EEB860CBDE870404CF0010C6047DFE80CF0090B02025E
:206600004FF000414FF00000A1F5002170BD19461046012851EB010418BFD4F5001484BFC1
:20662000002001F0004170BD0808A0F500114FEA3101704710B591EA030F48BF83F00043F4
:206640003FF56CAD841A71EB030C07D212198CF0004C43EB0C03001B61EB0C01DFF8A4E10B
:206660004FEA1154A4EB135C1EEA430F18BF9EEA445F00F0B08023EA6E03524221EA045190
:20668000C3EB6E0338BF5B1EDCF1200E25D322FA0CFE10EB0E0043FA0CFE41EB0E01CCF10A
:2066A000200E03FA0EFE10EB0E0051F10001CCF1200E29D412FA0EF201EB0451BDE810402D
:2066C00058BF7047401C1CBFB2F1004F704700280CBF491C20F00100704712EB020E43EBB1
:2066E000030218BF4FF0010E4EEA4202ACF1200CDCF11E0E54D943FA0CFE10EB0E0051F173
:20670000FF31CCF11E0ED5D50EF1010E12FA0EFE404141EB010101EB445C5FEA5C5C10D96B
:2067200010EBDE7001EB045138BFBEF1004FBDE8104018BF704700280CBF491C20F00100EE
:20674000704730D24FEAD42C11F5001124F400641BD0B1FA81F20B3AA41AA41ED2F1200300
:20676000914030FA03F31943904001EBCC71002C01EB0451BDE81040A8BF704701F1C04160
:206780004FF0000001F000417047B0FA80F310FA03F100D110BDE41A173C4805C90AE4E7DC
:2067A00001EB045110BD491001EB0451BDE810404FEA300002E04FF0000170474A0008BFE9
:2067C0000042F8D0B2F5001F28BF704701F000414FF0000070479EEA445F07D011EA5E0FB9
:2067E000BDE8104004BF002100207047BDE8104070B5FFF7CBFE00BF40DFF63E83F000414A
:20680000104670470000E0FF12010002000000408304291200020102030109022900010136
:2068200000E0320904000002030000000921000200012217000705810340000107050103ED
:20684000400001058C0901A1010901150025FF95407508810209029102C004030904280305
:20686000440072002E005200260044002800650074006F006F0074006C0065002E006300C3
:206880006F006D0029002C0341006E00420054002000530054004D003300320020004D0099
:2068A00069006E006900200042006F006100720064000000D468000800000020A401000087
:2068C0006C01000870690008A40100209C100000C80100081184A24A04680D010203040616
:2068E00007080902040608106914011B14120341126E12421254122D1A30023A323C0113D8
:2069000013411C0C14082541040A194D1C5A024D1308683308121A1A0832291A430832172B
