:020000040800F2
:10000000005000206901000895080008A1080008B8
:10001000A9080008B1080008B9080008000000009D
:10002000000000000000000000000000C1080008FF
:10003000CD08000800000000D9080008E508000805
:10004000B1010008B1010008B1010008B1010008C8
:10005000B1010008B1010008B1010008B1010008B8
:10006000B1010008B1010008B10100082109000830
:10007000B1010008B1010008B1010008B101000898
:10008000B1010008B1010008B1010008B101000888
:10009000B1010008B1010008B1010008B101000878
:1000A000B1010008B1010008B1010008B101000868
:1000B000B1010008B1010008B1010008B101000858
:1000C000B1010008B1010008B1010008B101000848
:1000D000B1010008B1010008B101000835090008AC
:1000E000B1010008B1010008B101000800000000E2
:1000F0000000000000000000000000000000000000
:0C01000000000000000000005FF808F1A3
:10010C0010B5054C237833B9044B13B10448AFF345
:10011C0000800123237010BD30040020000000007B
:10012C000C510008084B10B51BB108490848AFF337
:10013C0000800848036803B910BD074B002BFBD0A7
:10014C00BDE81040184700BF000000003404002038
:10015C000C5100083004002000000000002103E0D6
:10016C000B4B5B58435004310A480B4B42189A42D4
:10017C00F6D30A4A02E0002342F8043B084B9A42A9
:10018C00F9D300F0DBFB04F01DFF00F00DF8704715
:10019C00245D000800000020300400203004002002
:1001AC00FC090020FEE7000080B500AF00F0FAFB70
:1001BC0000F014F800F0A2F900F082F900F06CF8ED
:1001CC0000F058F900F0F6F800F02AF904F09CFE63
:1001DC0003F0A8FF04F088FAFCE700BF80B594B0E8
:1001EC0000AF0123BB624FF48033FB6200233B63FF
:1001FC000123BB6302237B644FF48033BB644FF455
:10020C008013FB6407F12803184601F0C7FE034670
:10021C00002B01D000F0FEF90F237B610223BB61A0
:10022C000023FB614FF480633B6200237B6207F188
:10023C0014030121184602F0D1FD0346002B01D016
:10024C0000F0E8F912237B604FF48043FB604FF41D
:10025C0080033B613B1D184603F044F80346002B1A
:10026C0001D000F0D7F902F0EFFF0246094BA3FBD7
:10027C0002239B09184601F039F9042001F042F9D8
:10028C00002200214FF0FF3001F006F900BF50377B
:10029C00BD4680BDD34D621080B584B000AF434BDA
:1002AC00434A1A60414B4FF480729A603F4B0122D3
:1002BC00DA603E4B00225A613C4B4FF46022DA610B
:1002CC003A4B00225A60394B07221A61374800F02A
:1002DC00C9FB0346002B01D000F09CF900237B6086
:1002EC000123BB600523FB603B1D19462F4800F022
:1002FC00B3FD0346002B01D000F08CF901237B6089
:10030C000223BB603B1D1946284800F0A5FD03469F
:10031C00002B01D000F07EF902237B600323BB602D
:10032C003B1D1946214800F097FD0346002B01D0D8
:10033C0000F070F903237B600423BB603B1D19465E
:10034C001A4800F089FD0346002B01D000F062F939
:10035C0004237B600523BB603B1D1946134800F04A
:10036C007BFD0346002B01D000F054F908237B6081
:10037C000623BB603B1D19460C4800F06DFD03467F
:10038C00002B01D000F046F909237B600723BB60EA
:10039C003B1D1946054800F05FFD0346002B01D0BC
:1003AC0000F038F900BF1037BD4680BDFC040020BA
:1003BC000024014080B500AF174B184A1A60164B49
:1003CC004FF482725A60144B00229A60124B002236
:1003DC00DA60114B00221A610F4B00225A610E4B4E
:1003EC004FF400729A610C4B0022DA610A4B002226
:1003FC001A62094B00225A62074B00229A62064B82
:10040C000A22DA62044803F063F80346002B01D099
:10041C0000F000F900BF80BD6404002000380040EB
:10042C0080B500AF114B124A1A60104B4FF4E132F9
:10043C005A600E4B00229A600C4B0022DA600B4B78
:10044C0000221A61094B0C225A61084B00229A6156
:10045C00064B0022DA61054803F0A0F80346002B96
:10046C0001D000F0D7F800BF80BD00BFBC04002055
:10047C000048004080B500AF0F4B104A1A600E4B7D
:10048C0008225A600C4B02229A600B4B0322DA6052
:10049C00094B00229A61084B0022DA61064B0022BC
:1004AC001A62054801F0A0FC0346002B01D000F0B5
:1004BC00B1F800BF80BD00BF64050020005C0040A7
:1004CC0080B582B000AF0C4A0B4B5B6943F0010363
:1004DC005361094B5B6903F001037B607B6800226D
:1004EC0000210B2000F0D8FF0B2000F0F1FF00BF23
:1004FC000837BD4680BD00BF0010024080B588B0F3
:10050C0000AF404A3F4B9B6943F0100393613D4B56
:10051C009B6903F01003FB60FB683A4A394B9B69FB
:10052C0043F020039361374B9B6903F02003BB60BE
:10053C00BB68344A334B9B6943F004039361314BE2
:10054C009B6903F004037B607B682E4A2D4B9B69EF
:10055C0043F0080393612B4B9B6903F008033B604A
:10056C003B68002248F2E011274801F013FC0022FE
:10057C004FF44771254801F00DFC4FF460433B618B
:10058C0000237B610123BB6107F11003194620484E
:10059C0001F08AFA48F2E0133B6101237B610223EC
:1005AC00FB6107F110031946174801F07DFA4FF46F
:1005BC0047733B6101237B610223FB6107F110034D
:1005CC001946124801F070FA4FF487533B6100232F
:1005DC007B610123BB6107F1100319460B4801F045
:1005EC0063FA4FF4C0633B6100237B610123BB6161
:1005FC0007F110031946044801F056FA00BF2037E2
:10060C00BD4680BD0010024000080140000C0140B6
:10061C000010014080B400AFFEE700BF80B582B08F
:10062C0000AF1E4A1D4B9B6943F0010393611B4BAA
:10063C009B6903F001037B607B68032000F020FFC3
:10064C00002200216FF00B0000F026FF0022002199
:10065C006FF00A0000F020FF002200216FF009006B
:10066C0000F01AFF002200216FF0040000F014FFCC
:10067C00002200216FF0030000F00EFF0022002189
:10068C006FF0010000F008FF002200214FF0FF3056
:10069C0000F002FF00BF0837BD4680BD00100240CD
:1006AC0080B588B000AF78607B681B68274A93429E
:1006BC0047D1274A264B9B6943F400739361244B23
:1006CC009B6903F40073FB60FB681F233B610323EE
:1006DC007B6107F1100319461E4801F0E5F903236D
:1006EC003B6103237B6107F1100319461A4801F0A3
:1006FC00DBF91A4B1A4A1A60184B00225A60174B36
:10070C0000229A60154B8022DA60144B4FF48072F1
:10071C001A61124B4FF480625A61104B20229A617D
:10072C000E4B0022DA610D4800F014FF0346002B3B
:10073C0001D0FFF76FFF7B68084A1A62074A7B6893
:10074C00536200BF2037BD4680BD00BF002401406E
:10075C000010024000080140000C01402C05002054
:10076C000800024080B588B000AF78607B681B68D9
:10077C00164A934225D1164A154BDB6943F4804344
:10078C00D361134BDB6903F48043FB60FB684FF4CC
:10079C0020433B6102237B610323FB6107F11003C0
:1007AC0019460C4801F080F94FF480433B6100235B
:1007BC007B610023BB6107F110031946054801F06A
:1007CC0073F900BF2037BD4680BD00BF0038004024
:1007DC0000100240000C014080B588B000AF78607A
:1007EC007B681B68164A934225D1164A154BDB6968
:1007FC0043F48023D361134BDB6903F48023FB6048
:10080C00FB684FF480633B6102237B610323FB6134
:10081C0007F1100319460C4801F046F94FF4006338
:10082C003B6100237B610023BB6107F11003194678
:10083C00054801F039F900BF2037BD4680BD00BF27
:10084C000048004000100240000C014080B485B00C
:10085C0000AF78607B681B68094A93420BD1094A48
:10086C00084BDB6943F40003D361064BDB6903F4EB
:10087C000003FB60FB6800BF1437BD4680BC7047AB
:10088C00005C00400010024080B400AF00BFBD46C9
:10089C0080BC704780B400AFFEE700BF80B400AFEF
:1008AC00FEE700BF80B400AFFEE700BF80B400AF2E
:1008BC00FEE700BF80B400AF00BFBD4680BC7047F0
:1008CC0080B400AF00BFBD4680BC704780B400AFA1
:1008DC0000BFBD4680BC704780B500AF0A4B1B689B
:1008EC000133094A1360094B1B680133074A136033
:1008FC00074B1B680133064A136000F085F800F0C3
:10090C001DFE00BF80BD00BF580400205C04002009
:10091C006004002080B500AF024800F0AFFE00BFBD
:10092C0080BD00BF2C05002080B500AF024802F04E
:10093C00DFFF00BF80BD00BFBC04002080B400AF4F
:10094C00154A154B1B6843F0010313601249124BF7
:10095C005A68124B13404B600F4A0F4B1B6823F025
:10096C00847323F4803313600B4A0B4B1B6823F402
:10097C0080231360084A084B5B6823F4FE03536022
:10098C00054B4FF41F029A60054B4FF000629A60C2
:10099C0000BFBD4680BC7047001002400000FFF84D
:1009AC0000ED00E080B500AF084A084B1B6843F02F
:1009BC0010031360032000F063FD002000F008F822
:1009CC00FFF72CFE0023184680BD00BF002002401C
:1009DC0080B582B000AF786002F036FC0246094B5D
:1009EC00A3FB02239B09184600F080FD00227968C6
:1009FC004FF0FF3000F050FD002318460837BD467D
:100A0C0080BD00BFD34D621080B400AF044B1B6897
:100A1C000133034A136000BFBD4680BC704700BF62
:100A2C004C04002080B400AF024B1B681846BD4636
:100A3C0080BC70474C04002080B584B000AF786057
:100A4C000023FB60FFF7EEFFF86000BFFFF7EAFF43
:100A5C000246FB68D21A7B689A42F7D300BF103764
:100A6C00BD4680BD80B58CB000AF7860002387F8A0
:100A7C002F300023BB6200233B6200237B627B6828
:100A8C00002B01D10123E3E07B689B68002B7B6882
:100A9C009B6A002B09D17B680022DA627B680022FA
:100AAC0083F824207868FFF7FBFD786800F082FB60
:100ABC00034687F82F307B689B6A03F01003002BEA
:100ACC0040F0BB8097F82F30002B40F0B6807B684D
:100ADC009B6A23F4885323F0020343F002027B68E1
:100AEC009A627B685A687B68DB691A437B68D968B1
:100AFC0002237B617B6993FAA3F33B613B69B3FAF5
:100B0C0083F301FA03F313433A6A13433B627B68A2
:100B1C009B68B3F5807F03D07B689B68012B02D167
:100B2C004FF4807300E00023BA6A1343BB627B6806
:100B3C005B69012B24D17B68DB68002B14D17B68AB
:100B4C009B695A1E4FF46043FB61FB6993FAA3F354
:100B5C00FB60FB68B3FA83F302FA03F343F400631C
:100B6C00BA6A1343BB620BE07B689B6A43F02002BA
:100B7C007B689A627B68DB6A43F001027B68DA620D
:100B8C007B681B687A681268526822F46941BA6AF9
:100B9C000A435A607B681A687B681B6899682E4BFD
:100BAC000B40396A0B4393607B689B68B3F5807F7D
:100BBC0003D07B689B68012B0FD17B681B695A1E85
:100BCC004FF47003BB61BB6993FAA3F3BB60BB68C2
:100BDC00B3FA83F302FA03F37B627B681B687A68CF
:100BEC001268D26A22F470017A6A0A43DA627B686C
:100BFC001B689A68194B13403A6A93420BD17B6875
:100C0C000022DA627B689B6A23F0030343F0010243
:100C1C007B689A621AE07B689B6A23F0120343F0AC
:100C2C0010027B689A627B68DB6A43F001027B6886
:100C3C00DA62012387F82F3008E07B689B6A43F067
:100C4C0010027B689A62012387F82F3097F82F30B7
:100C5C0018463037BD4680BDFDF7E1FFFE0E1FFF85
:100C6C0080B586B000AFF860B9607A600023FB7580
:100C7C00FB681B68644A934204D0FB681B68634A98
:100C8C00934206D1604B5B6803F47023002B40F059
:100C9C00B380FB6893F82430012B01D10223AEE022
:100CAC00FB68012283F82420F86800F031FA03462F
:100CBC00FB75FB7D002B40F09A80FB689B6A23F44C
:100CCC00706323F0010343F48072FB689A62FB6843
:100CDC001B684E4A934205D14B4B5B6803F470235F
:100CEC00002B15D1FB689B6A23F48012FB689A6277
:100CFC00FB681B685B6803F48063002B26D0FB68E1
:100D0C009B6A23F4405343F48052FB689A621DE0C3
:100D1C00FB689B6A43F48012FB689A62FB681B6851
:100D2C00394A934204D0FB681B68384A93420DD170
:100D3C00354B5B6803F48063002B07D0FB689B6A20
:100D4C0023F4405343F48052FB689A62FB689B6A1D
:100D5C0003F48053002B06D0FB68DB6A23F00602F9
:100D6C00FB68DA6202E0FB680022DA62FB680022B0
:100D7C0083F82420FB681B6A254A9A62FB681B6A6D
:100D8C00244ADA62FB681B6A234A1A63FB681B68F5
:100D9C006FF002021A60FB681B68FA6812689268AE
:100DAC0042F480729A60FB68186AFB681B684C33CB
:100DBC001946BA687B6800F017FCFB681B689B68D7
:100DCC0003F46023B3F5602F08D1FB681B68FA6845
:100DDC001268926842F4A0029A600FE0FB681B68EC
:100DEC00FA681268926842F480129A6006E0FB6816
:100DFC00002283F8242001E00123FB75FB7D1846BB
:100E0C001837BD4680BD00BF0024014000280140BA
:100E1C0035120008B1120008CD12000880B483B05E
:100E2C0000AF786000BF0C37BD4680BC704700BF78
:100E3C0080B483B000AF786000BF0C37BD4680BC77
:100E4C00704700BF80B483B000AF786000BF0C3730
:100E5C00BD4680BC704700BF90B498B000AF7860BE
:100E6C003960002387F85F300023BB607B6893F800
:100E7C002430012B01D102233EE17B68012283F84F
:100E8C0024203B685B68062B30D87B681B687A682B
:100E9C001268516B4FF478727A657A6D92FAA2F2FD
:100EAC00FA62FA6AB2FA82F210463A685268013A69
:100EBC0002FB00F21F2000FA02F2D24311403A6802
:100ECC0010684FF478727A637A6B92FAA2F23A63F2
:100EDC003A6BB2FA82F214463A685268013A02FB53
:100EEC0004F200FA02F20A435A6364E03B685B685E
:100EFC000C2B30D87B681B687A681268116B4FF426
:100F0C007872FA64FA6C92FAA2F27A627A6AB2FA9B
:100F1C0082F210463A685268073A02FB00F21F2030
:100F2C0000FA02F2D24311403A6810684FF478721A
:100F3C00BA65BA6D92FAA2F2BA62BA6AB2FA82F2DF
:100F4C0014463A685268073A02FB04F200FA02F2BD
:100F5C000A431A632FE07B681B687A681268D16AAF
:100F6C004FF478727A647A6C92FAA2F2FA61FA69A6
:100F7C00B2FA82F210463A6852680D3A02FB00F25D
:100F8C001F2000FA02F2D24311403A6810684FF465
:100F9C0078723A653A6D92FAA2F23A623A6AB2FA09
:100FAC0082F214463A6852680D3A02FB04F200FAD7
:100FBC0002F20A43DA623B681B68092B2ED97B6864
:100FCC001B687A681268D1683822FA63FA6B92FA55
:100FDC00A2F27A617A69B2FA82F210463A68126821
:100FEC000A3A02FB00F2072000FA02F2D243114047
:100FFC003A6890683822BA64BA6C92FAA2F2BA6172
:10100C00BA69B2FA82F214463A6812680A3A02FBDA
:10101C0004F200FA02F20A43DA602BE07B681B68E8
:10102C007A68126811693822BA63BA6B92FAA2F222
:10103C00FA60FA68B2FA82F210463A68126802FB59
:10104C0000F2072000FA02F2D24311403A6890688D
:10105C0038223A643A6C92FAA2F23A613A69B2FADC
:10106C0082F214463A68126802FB04F200FA02F2A9
:10107C000A431A613B681B68102B03D03B681B6842
:10108C00112B33D17B681B681E4A934225D17B6898
:10109C001B689B6803F40003002B27D17B681B683B
:1010AC007A681268926842F400029A603B681B6886
:1010BC00102B1BD1144B1B68144AA2FB03239A0C54
:1010CC0013469B0013445B00BB6002E0BB68013B12
:1010DC00BB60BB68002BF9D108E07B689B6A43F0CE
:1010EC0020027B689A62012387F85F307B680022BC
:1010FC0083F8242097F85F3018466037BD4690BCC3
:10110C00704700BF002401400000002083DE1B4319
:10111C0080B584B000AF78600023FB600023BB6017
:10112C007B681B689B6803F00103002B39D17B683B
:10113C001B687A681268926842F001029A601B4B35
:10114C001B681B4AA2FB03239B0CBB6002E0BB6821
:10115C00013BBB60BB68002BF9D1FFF763FCF86067
:10116C0018E0FFF75FFC0246FB68D31A022B11D97B
:10117C007B689B6A43F010027B689A627B68DB6A2F
:10118C0043F001027B68DA627B68002283F824203A
:10119C00012307E07B681B689B6803F00103002BAD
:1011AC00DFD0002318461037BD4680BD000000205C
:1011BC0083DE1B4380B584B000AF78600023FB60F6
:1011CC007B681B689B6803F00103002B27D07B68AE
:1011DC001B687A681268926822F001029A60FFF725
:1011EC0021FCF86014E0FFF71DFC0246FB68D31AE3
:1011FC00022B0DD97B689B6A43F010027B689A62C4
:10120C007B68DB6A43F001027B68DA62012307E04A
:10121C007B681B689B6803F00103002BE3D1002360
:10122C0018461037BD4680BD80B584B000AF7860DD
:10123C007B685B6AFB60FB689B6A03F05003002BC6
:10124C0027D1FB689B6A43F40072FB689A62FB68C7
:10125C001B689B6803F46023B3F5602F15D1FB6802
:10126C00DB68002B11D1FB689B6A23F48072FB684E
:10127C009A62FB689B6A03F48053002B05D1FB68D0
:10128C009B6A43F00102FB689A62F868FFF7C6FD9F
:10129C0004E0FB681B6A1B6B7868984700BF10372B
:1012AC00BD4680BD80B584B000AF78607B685B6A5A
:1012BC00FB60F868FFF7BCFD00BF1037BD4680BD72
:1012CC0080B584B000AF78607B685B6AFB60FB68BC
:1012DC009B6A43F04002FB689A62FB68DB6A43F04E
:1012EC000402FB68DA62F868FFF7ACFD00BF103748
:1012FC00BD4680BD80B485B000AF78607B6803F0DC
:10130C000703FB600C4BDB68BB60BA684FF6FF034E
:10131C001340BB60FB681A02BB68134343F0BF6306
:10132C0043F40033BB60044ABB68D36000BF14377E
:10133C00BD4680BC704700BF00ED00E080B400AF3C
:10134C00044BDB6803F4E0631B0A1846BD4680BC03
:10135C00704700BF00ED00E080B483B000AF0346DF
:10136C00FB71084997F907305B09FA7902F01F0203
:10137C00012000FA02F241F8232000BF0C37BD46D1
:10138C0080BC704700E100E080B483B000AF03463E
:10139C003960FB7197F90730002B0BDA0D49FB799B
:1013AC0003F00F03043B3A68D2B21201D2B20B44E1
:1013BC001A7609E0084997F907303A68D2B2120157
:1013CC00D2B20B4483F8002300BF0C37BD4680BC5F
:1013DC00704700BF00ED00E000E100E080B489B090
:1013EC0000AFF860B9607A60FB6803F00703FB613B
:1013FC00FB69C3F10703042B28BF0423BB61FB6902
:10140C000433062B02D9FB69033B00E000237B610C
:10141C000122BB6902FA03F35A1EBB681A407B69AE
:10142C009A4001217B6901FA03F3591E7B680B403A
:10143C00134318462437BD4680BC704780B582B034
:10144C0000AF78607B68013BB3F1807F01D301234F
:10145C000FE00A4A7B68013B53600F214FF0FF30CD
:10146C00FFF792FF054B00229A60044B07221A608B
:10147C00002318460837BD4680BD00BF10E000E0D1
:10148C0080B582B000AF78607868FFF733FF00BF9B
:10149C000837BD4680BD00BF80B586B000AF03469F
:1014AC00B9607A60FB7300237B61FFF747FF7861BB
:1014BC007A68B9687869FFF791FF024697F90F309F
:1014CC0011461846FFF760FF00BF1837BD4680BDB8
:1014DC0080B582B000AF0346FB7197F90730184610
:1014EC00FFF73AFF00BF0837BD4680BD80B582B01C
:1014FC0000AF78607868FFF7A1FF034618460837FD
:10150C00BD4680BD80B483B000AF78607B68042B8F
:10151C0006D1094A084B1B6843F00403136005E02D
:10152C00054A054B1B6823F00403136000BF0C37FE
:10153C00BD4680BC704700BF10E000E080B500AF36
:10154C0000F002F800BF80BD80B400AF00BFBD4604
:10155C0080BC704780B485B000AF78600023FB601E
:10156C007B68002B01D1012339E07B6893F8213093
:10157C00002B03D17B68002283F820207B68022299
:10158C0083F821207B681B681B68FB60FB6823F4D5
:10159C007F5323F03003FB607B685A687B689B6841
:1015AC001A437B68DB681A437B681B691A437B68A8
:1015BC005B691A437B689B691A437B68DB6913433D
:1015CC00FA681343FB607B681B68FA681A607B68D7
:1015DC0000225A637B68012283F8212000231846DD
:1015EC001437BD4680BC704780B584B000AFF8603E
:1015FC00B9607A603B60FB6893F82030012B01D115
:10160C00022336E0FB68012283F82020FB680222CB
:10161C0083F82120FB681B68FA681268126822F0B4
:10162C0001021A603B687A68B968F86800F016FA2B
:10163C00FB681B68FA681268126842F002021A60B2
:10164C00FB681B68FA681268126842F004021A60A0
:10165C00FB681B68FA681268126842F008021A608C
:10166C00FB681B68FA681268126842F001021A6083
:10167C00002318461037BD4680BD00BF80B582B030
:10168C0000AF78608F4B1A687B681B6819468E4BCD
:10169C0099422ED07B681B6819468C4B994226D0F8
:1016AC007B681B6819468A4B99421DD07B681B6866
:1016BC001946884B994214D07B681B681946864B97
:1016CC0099420BD07B681B681946844B994202D116
:1016DC004FF400030EE04FF000630BE04FF40023D7
:1016EC0008E04FF4004305E04FF4006302E0802370
:1016FC0000E008231340002B5CD07B681B681B6840
:10170C0003F00803002B55D07B681B687A681268BD
:10171C00126822F008021A606A4A7B681B68194634
:10172C00694B99422ED07B681B681946674B9942CE
:10173C0026D07B681B681946654B99421DD07B6887
:10174C001B681946634B994214D07B681B68194679
:10175C00614B99420BD07B681B6819465F4B9942D1
:10176C0002D14FF400030EE04FF000630BE04FF496
:10177C00002308E04FF4004305E04FF4006302E05F
:10178C00802300E0082353607B685B6B43F001020D
:10179C007B685A637B68042283F821207B680022D3
:1017AC0083F820207B681B6B002B03D07B681B6BA2
:1017BC0078689847434B1A687B681B681946424BFC
:1017CC0099422ED07B681B681946404B994226D013
:1017DC007B681B6819463E4B99421DD07B681B6881
:1017EC0019463C4B994214D07B681B6819463A4BFE
:1017FC0099420BD07B681B681946384B994202D131
:10180C004FF480030EE04FF080630BE04FF4802325
:10181C0008E04FF4804305E04FF4806302E040237E
:10182C0000E004231340002B68D07B681B681B6806
:10183C0003F00403002B61D07B681B681B6803F06A
:10184C002003002B07D17B681B687A68126812682A
:10185C0022F004021A601B4A7B681B6819461A4B5B
:10186C0099423DD07B681B681946184B994226D08B
:10187C007B681B681946164B99421DD07B681B6808
:10188C001946144B994214D07B681B681946124BAD
:10189C0099420BD07B681B681946104B994202D1B8
:1018AC004FF480031DE04FF080631AE04FF4802367
:1018BC0017E04FF4804314E04FF4806311E04023B1
:1018CC000FE000BF00000240080002401C00024074
:1018DC003000024044000240580002406C000240BC
:1018EC00042353607B68112283F821207B68DB6A18
:1018FC00002B03D07B68DB6A78689847504B1A68DA
:10190C007B681B6819464F4B99422ED07B681B682D
:10191C0019464D4B994226D07B681B6819464B4B98
:10192C0099421DD07B681B681946494B994214D0CB
:10193C007B681B681946474B99420BD07B681B6828
:10194C001946454B994202D14FF400130EE04FF06B
:10195C0000730BE04FF4003308E04FF4005305E044
:10196C004FF4007302E0202300E002231340002B0D
:10197C0061D07B681B681B6803F00203002B5AD0F4
:10198C007B681B681B6803F02003002B07D17B6866
:10199C001B687A681268126822F002021A60284AE0
:1019AC007B681B681946274B99422ED07B681B68B5
:1019BC001946254B994226D07B681B681946234B48
:1019CC0099421DD07B681B681946214B994214D053
:1019DC007B681B6819461F4B99420BD07B681B68B0
:1019EC0019461D4B994202D14FF400130EE04FF0F3
:1019FC0000730BE04FF4003308E04FF4005305E0A4
:101A0C004FF4007302E0202300E0022353607B6854
:101A1C005A6B7B685A637B68012283F821207B68B0
:101A2C00002283F820207B689B6A002B03D07B6804
:101A3C009B6A7868984700BF0837BD4680BD00BFD9
:101A4C0000000240080002401C000240300002402E
:101A5C0044000240580002406C00024080B485B043
:101A6C0000AFF860B9607A603B60FB681B683A684D
:101A7C005A60FB685B68102B08D1FB681B687A689E
:101A8C009A60FB681B68BA68DA6007E0FB681B6841
:101A9C00BA689A60FB681B687A68DA6000BF143712
:101AAC00BD4680BC704700BF80B48BB000AF78607F
:101ABC0039600023FB610023BB6100237B610023A1
:101ACC003B6200233B6100237B6227E101227B6A9E
:101ADC0002FA03F3FB613B681A68FB691340BB61B4
:101AEC00BA69FB699A4240F016813B685B68122B1D
:101AFC0034D0122B0DD8022B2BD0022B04D8002B58
:101B0C0031D0012B1CD048E0032B43D0112B1BD020
:101B1C0043E0874A934226D0854A934206D8854AA9
:101B2C00934220D0844A93421DD036E0834A93429C
:101B3C0019D0834A934216D0824A934213D02CE098
:101B4C003B68DB683B6228E03B68DB6804333B6244
:101B5C0023E03B68DB6808333B621EE03B68DB68D4
:101B6C000C333B6219E03B689B68002B02D10423C9
:101B7C003B6212E03B689B68012B05D108233B625A
:101B8C007B68FA691A6108E008233B627B68FA6992
:101B9C005A6102E000233B6200BFBB69FF2B01D8F6
:101BAC007B6801E07B680433FB60BB69FF2B02D8C8
:101BBC007B6A9B0002E07B6A083B9B003B61FB68F5
:101BCC001A680F213B6901FA03F3DB431A40396AA7
:101BDC003B6901FA03F31A43FB681A603B685B68C4
:101BEC0003F08053002B00F09680574A564B9B69AC
:101BFC0043F001039361544B9B6903F00103BB60F9
:101C0C00BB68524A7B6A9B08023352F823307B61D3
:101C1C007B6A03F003039B000F2202FA03F3DB43FE
:101C2C007A6913407B617B68494A934213D07B6885
:101C3C00484A93420DD07B68474A934207D07B6851
:101C4C00464A934201D1032306E0042304E0022315
:101C5C0002E0012300E000237A6A02F00302920002
:101C6C0093407A6913437B6138497B6A9B08023342
:101C7C007A6941F823203B685B6803F48033002BBE
:101C8C0006D03749364B1A68BB6913430B6006E024
:101C9C003349334B1A68BB69DB4313400B603B6819
:101CAC005B6803F40033002B06D02D492C4B5A688B
:101CBC00BB6913434B6006E02949294B5A68BB6941
:101CCC00DB4313404B603B685B6803F48013002BD1
:101CDC0006D02349224B9A68BB6913438B6006E0FC
:101CEC001F491F4B9A68BB69DB4313408B603B68F1
:101CFC005B6803F40013002B06D01949184BDA6803
:101D0C00BB691343CB6006E01549154BDA68BB6918
:101D1C00DB431340CB607B6A01337B627B6A0F2B06
:101D2C007FF6D4AE00BF2C37BD4680BC704700BFD9
:101D3C0000002110000011100000121000003110E2
:101D4C000000321000002210001002400000014080
:101D5C0000080140000C014000100140001401403B
:101D6C000004014080B485B000AF78600B467B80E6
:101D7C007B689A687B881340002B02D00123FB738D
:101D8C0001E00023FB73FB7B18461437BD4680BC77
:101D9C00704700BF80B483B000AF78600B467B8087
:101DAC0013467B707B78002B03D07A887B681A6192
:101DBC0003E07B881A047B681A6100BF0C37BD46B0
:101DCC0080BC704780B483B000AF78600B467B80DA
:101DDC007B68DA687B885A407B68DA6000BF0C3716
:101DEC00BD4680BC704700BFF0B58BB006AF7860C5
:101DFC000023FB607B68002B01D10123CAE07B68C8
:101E0C0093F8E933DBB2002B06D17B68002283F810
:101E1C00E8237868FEF71AFD7B68032283F8E92330
:101E2C007B681B68184602F02BF97B681B683B60CB
:101E3C007E686D4606F110040FCC0FC523682B602D
:101E4C00331D0ECB386802F00BF97B681B68002140
:101E5C00184602F031F90023FB6037E07A68FB6822
:101E6C005B011344293301221A70FB68D9B27A68DA
:101E7C00FB685B01134428330A461A70FB6899B25D
:101E8C007A68FB685B01134434330A461A807A681B
:101E9C00FB685B0113442B3300221A707A68FB68D1
:101EAC005B011344383300221A607A68FB685B01CB
:101EBC0013443C3300221A607A68FB6802335B01DE
:101ECC00134400221A60FB680133FB60FB680E2B85
:101EDC00C4D90023FB603CE07A68FB685B011344C7
:101EEC0003F2092300221A70FB68D9B27A68FB68E6
:101EFC005B01134403F502730A461A70FB6899B22E
:101F0C007A68FB685B01134434330A461A807A689A
:101F1C00FB685B01134403F20B2300221A707A68EE
:101F2C00FB685B01134403F5067300221A607A68A0
:101F3C00FB685B01134403F5077300221A607A688F
:101F4C00FB6811335B01134400221A60FB680133F8
:101F5C00FB60FB680E2BBFD97B681B683B607E68FF
:101F6C006D4606F110040FCC0FC523682B60331D92
:101F7C000ECB386802F0ACF87B68002283F8242082
:101F8C007B68012283F8E9237B681B68184602F002
:101F9C00BFF8002318461437BD46F0BD90B5E5B028
:101FAC0000AF3B1D18600023C7F88C313B1D1B682C
:101FBC001B6803F00103002B00F07581B84B5B68C4
:101FCC0003F00C03042B0BD0B54B5B6803F00C0334
:101FDC00082B5FD1B24B5B6803F48033002B59D0D4
:101FEC004FF40033C7F8CC30D7F8CC3093FAA3F3C6
:101FFC00C7F8C830D7F8C830B3FA83F35BB243F0F4
:10200C0020035BB2DBB25B09DBB2012B02D1A44B28
:10201C001B681BE04FF40033C7F87031D7F87031F0
:10202C0093FAA3F3C7F8C430D7F8C430B3FA83F3E8
:10203C005BB243F020035BB2DBB25B09DBB2022B79
:10204C0002D1974B1B6A01E0954B5B6A4FF400324F
:10205C00C7F86C21D7F86C2192FAA2F2C7F8C0200D
:10206C00D7F8C020B2FA82F252B242F0200252B239
:10207C00D2B202F01F02D34003F00103002B00F098
:10208C0011813B1D1B685B68002B40F00B81012309
:10209C0000F09DBE3B1D1B685B68B3F5803F06D10D
:1020AC007F4A7F4B1B6843F48033136030E03B1D49
:1020BC001B685B68002B0CD1794A794B1B6823F4A5
:1020CC0080331360764A764B1B6823F480231360AD
:1020DC001EE03B1D1B685B68B3F5A02F0CD1704A4A
:1020EC006F4B1B6843F4802313606D4A6C4B1B6869
:1020FC0043F4803313600BE0694A694B1B6823F48B
:10210C0080331360664A664B1B6823F4802313608C
:10211C003B1D1B685B68002B60D0FEF783FCC7F887
:10212C008C010AE0FEF77EFC0246D7F88C31D31AFC
:10213C00642B02D9032300F04ABE4FF40033C7F8D6
:10214C006831D7F8683193FAA3F3C7F8BC30D7F8E5
:10215C00BC30B3FA83F35BB243F020035BB2DBB267
:10216C005B09DBB2012B02D14D4B1B681BE04FF41A
:10217C000033C7F88831D7F8883193FAA3F3C7F83E
:10218C00B830D7F8B830B3FA83F35BB243F020031E
:10219C005BB2DBB25B09DBB2022B02D1404B1B6A98
:1021AC0001E03F4B5B6A4FF40032C7F88421D7F84B
:1021BC00842192FAA2F2C7F8B420D7F8B420B2FA6C
:1021CC0082F252B242F0200252B2D2B202F01F029C
:1021DC00D34003F00103002BA4D064E0FEF722FCF3
:1021EC00C7F88C010AE0FEF71DFC0246D7F88C31CB
:1021FC00D31A642B02D9032300F0E9BD4FF400334A
:10220C00C7F88031D7F8803193FAA3F3C7F8B03010
:10221C00D7F8B030B3FA83F35BB243F020035BB270
:10222C00DBB25B09DBB2012B02D11D4B1B681BE03F
:10223C004FF40033C7F87C31D7F87C3193FAA3F311
:10224C00C7F8AC30D7F8AC30B3FA83F35BB243F0D9
:10225C0020035BB2DBB25B09DBB2022B02D1104B69
:10226C001B6A01E00E4B5B6A4FF40032C7F8782111
:10227C00D7F8782192FAA2F2C7F8A820D7F8A820AC
:10228C00B2FA82F252B242F0200252B2D2B202F050
:10229C001F02D34003F00103002BA4D103E000BFC5
:1022AC000010024000BF3B1D1B681B6803F00203BB
:1022BC00002B00F09881BC4B5B6803F00C03002BE7
:1022CC000BD0B94B5B6803F00C03082B74D1B64BE5
:1022DC005B6803F48033002B6ED10223C7F8743192
:1022EC00D7F8743193FAA3F3C7F8A430D7F8A43015
:1022FC00B3FA83F35BB243F020035BB2DBB25B094E
:10230C00DBB2012B02D1A84B1B681AE00223C7F8E1
:10231C004031D7F8403193FAA3F3C7F8A030D7F87F
:10232C00A030B3FA83F35BB243F020035BB2DBB2B1
:10233C005B09DBB2022B02D19B4B1B6A01E09A4B6F
:10234C005B6A0222C7F83C21D7F83C2192FAA2F230
:10235C00C7F89C20D7F89C20B2FA82F252B242F015
:10236C00200252B2D2B202F01F02D34003F001039A
:10237C00002B07D03B1D1B681B69012B02D00123CE
:10238C0000F025BD8848884B1B6823F0F8023B1DE4
:10239C001B685969F823C7F83831D7F8383193FAE4
:1023AC00A3F3C7F89830D7F89830B3FA83F301FA4F
:1023BC0003F31343036016E13B1D1B681B69002BE1
:1023CC0000F094800123C7F83431D7F8343193FAF4
:1023DC00A3F3C7F89430D7F89430B3FA83F39B0087
:1023EC0003F1844303F584031A4601231360FEF7BB
:1023FC0019FBC7F88C010AE0FEF714FB0246D7F86C
:10240C008C31D31A022B02D9032300F0E0BC022337
:10241C00C7F86431D7F8643193FAA3F207F190034B
:10242C001A6007F190031B68B3FA83F35BB243F0B5
:10243C0020035BB2DBB25B09DBB2012B02D15A4B3E
:10244C001B681CE00223C7F86031D7F8603193FA9F
:10245C00A3F207F18C031A6007F18C031B68B3FA23
:10246C0083F35BB243F020035BB2DBB25B09DBB2FC
:10247C00022B02D14C4B1B6A01E04B4B5B6A0222D4
:10248C00C7F85C21D7F85C2192FAA2F107F1880217
:10249C00116007F188021268B2FA82F252B242F06D
:1024AC00200252B2D2B202F01F02D34003F0010359
:1024BC00002BA1D03C4C3C4B1B6823F0F8023B1D7D
:1024CC001B685969F823C7F85831D7F8583193FA73
:1024DC00A3F007F18403186007F184031B68B3FAB7
:1024EC0083F301FA03F3134323607CE00123C7F861
:1024FC005431D7F8543193FAA3F207F180031A60E0
:10250C0007F180031B68B3FA83F39B0003F1844348
:10251C0003F584031A4600231360FEF783FAC7F809
:10252C008C010AE0FEF77EFA0246D7F88C31D31AFA
:10253C00022B02D9032300F04ABC0223C7F8503106
:10254C00D7F8503193FAA3F207F17C031A6007F124
:10255C007C031B68B3FA83F35BB243F020035BB2DA
:10256C00DBB25B09DBB2012B02D10F4B1B681FE006
:10257C000223C7F84C31D7F84C3193FAA3F207F188
:10258C0078031A6007F178031B68B3FA83F35BB224
:10259C0043F020035BB2DBB25B09DBB2022B05D14B
:1025AC00014B1B6A04E000BF00100240B74B5B6A92
:1025BC000222C7F84821D7F8482192FAA2F107F174
:1025CC007402116007F174021268B2FA82F252B20C
:1025DC0042F0200252B2D2B202F01F02D34003F0FA
:1025EC000103002B9ED13B1D1B681B6803F00803E5
:1025FC00002B00F0F9803B1D1B689B69002B7BD0E6
:10260C000123C7F84431D7F8443193FAA3F207F108
:10261C0070031A6007F170031B68B3FA83F39B0015
:10262C001A469B4B13441A4601231360FEF7FAF922
:10263C00C7F88C0109E0FEF7F5F90246D7F88C31A2
:10264C00D31A022B01D90323C1E30223C7F830317B
:10265C00D7F8303193FAA3F207F16C031A6007F143
:10266C006C031B68B3FA83F35BB243F060035BB299
:10267C00DBB25B09DBB2012B02D1844B1B681CE083
:10268C000223C7F82C31D7F82C3193FAA3F207F1B7
:10269C0068031A6007F168031B68B3FA83F35BB233
:1026AC0043F060035BB2DBB25B09DBB2022B02D1FD
:1026BC00764B1B6A01E0754B5B6A0222C7F8282136
:1026CC00D7F8282192FAA2F107F16402116007F100
:1026DC0064021268B2FA82F252B242F0600252B252
:1026EC00D2B202F01F02D34003F00103002BA2D0A0
:1026FC000120FEF7A1F977E00123C7F82431D7F8C0
:10270C00243193FAA3F207F160031A6007F1600316
:10271C001B68B3FA83F39B001A465D4B13441A46AD
:10272C0000231360FEF77EF9C7F88C0109E0FEF771
:10273C0079F90246D7F88C31D31A022B01D903232D
:10274C0045E30223C7F82031D7F8203193FAA3F2DE
:10275C0007F15C031A6007F15C031B68B3FA83F39F
:10276C005BB243F060035BB2DBB25B09DBB2012B03
:10277C0002D1464B1B681CE00223C7F81C31D7F86A
:10278C001C3193FAA3F207F158031A6007F15803AE
:10279C001B68B3FA83F35BB243F060035BB2DBB24A
:1027AC005B09DBB2022B02D1384B1B6A01E0374BC1
:1027BC005B6A0222C7F81821D7F8182192FAA2F105
:1027CC0007F15402116007F154021268B2FA82F256
:1027DC0052B242F0600252B2D2B202F01F02D340A7
:1027EC0003F00103002BA2D13B1D1B681B6803F0F7
:1027FC000403002B00F03C81244A244BDB6943F09A
:10280C008053D361214BDB6903F0805207F108033D
:10281C001A6007F108031B681E4A1E4B1B6843F421
:10282C0080731360FEF7FEF8C7F88C0109E0FEF721
:10283C00F9F80246D7F88C31D31A642B01D903234B
:10284C00C5E2144B1B6803F48073002BEFD03B1DC7
:10285C001B68DB68012B06D10C4A0C4B1B6A43F03E
:10286C000103136236E03B1D1B68DB68002B13D1A0
:10287C00064A064B1B6A23F001031362034A034BFF
:10288C001B6A23F00403136224E000BF0010024013
:10289C0080044242007000403B1D1B68DB68052B26
:1028AC000CD1AC4AAB4B1B6A43F004031362A94A2C
:1028BC00A84B1B6A43F0010313620BE0A54AA54B1E
:1028CC001B6A23F001031362A24AA24B1B6A23F07A
:1028DC00040313623B1D1B68DB68002B64D0FEF7FE
:1028EC00A1F8C7F88C010BE0FEF79CF80246D7F86C
:1028FC008C31D31A41F28832934201D9032366E218
:10290C000223C7F81431D7F8143193FAA3F207F164
:10291C0050031A6007F150031B68B3FA83F35BB2E0
:10292C0043F040035BB2DBB25B09DBB2012B02D19B
:10293C00884B1B681CE00223C7F81031D7F8103104
:10294C0093FAA3F207F14C031A6007F14C031B68CE
:10295C00B3FA83F35BB243F040035BB2DBB25B09C7
:10296C00DBB2022B02D17B4B1B6A01E0794B5B6A19
:10297C000222C7F80C21D7F80C2192FAA2F107F128
:10298C004802116007F148021268B2FA82F252B2A0
:10299C0042F0400252B2D2B202F01F02D34003F016
:1029AC000103002BA0D063E0FEF73CF8C7F88C01C4
:1029BC000BE0FEF737F80246D7F88C31D31A41F208
:1029CC008832934201D9032301E20223C7F808316C
:1029DC00D7F8083193FAA3F207F144031A6007F110
:1029EC0044031B68B3FA83F35BB243F040035BB25E
:1029FC00DBB25B09DBB2012B02D1564B1B681CE02E
:102A0C000223C7F80431D7F8043193FAA3F207F183
:102A1C0040031A6007F140031B68B3FA83F35BB2FF
:102A2C0043F040035BB2DBB25B09DBB2022B02D199
:102A3C00484B1B6A01E0474B5B6A0222C7F8002136
:102A4C00D7F8002192FAA2F107F13C02116007F1CC
:102A5C003C021268B2FA82F252B242F0400252B216
:102A6C00D2B202F01F02D34003F00103002BA0D11D
:102A7C003B1D1B68DB69002B00F0A881354B5B68A4
:102A8C0003F00C03082B00F09F813B1D1B68DB69D6
:102A9C00022B40F01B814FF08073C7F8FC30D7F845
:102AAC00FC3093FAA3F207F138031A6007F13803EC
:102ABC001B68B3FA83F39B0003F1844303F584038F
:102ACC001A4600231360FDF7ADFFC7F88C0109E02F
:102ADC00FDF7A8FF0246D7F88C31D31A022B01D987
:102AEC00032374E14FF00073C7F8F830D7F8F830CF
:102AFC0093FAA3F207F134031A6007F134031B684D
:102B0C00B3FA83F35BB243F020035BB2DBB25B0935
:102B1C00DBB2012B02D10F4B1B681FE04FF000738F
:102B2C00C7F8F430D7F8F43093FAA3F207F1300376
:102B3C001A6007F130031B68B3FA83F35BB243F0FE
:102B4C0020035BB2DBB25B09DBB2022B04D1014B7D
:102B5C001B6A03E0001002409F4B5B6A4FF000724F
:102B6C00C7F8F020D7F8F02092FAA2F107F12C0266
:102B7C00116007F12C021268B2FA82F252B242F0E2
:102B8C00200252B2D2B202F01F02D34003F0010372
:102B9C00002B9DD13B1D1B681B6AB3F5803F09D1EF
:102BAC008D498D4B5B6823F400323B1D1B689B6881
:102BBC0013434B608848884B5B6823F474123B1DAD
:102BCC001B68196A3B1D1B685B6A0B43134343600C
:102BDC004FF08073C7F8EC30D7F8EC3093FAA3F2CF
:102BEC0007F128031A6007F128031B68B3FA83F373
:102BFC009B0003F1844303F584031A4601231360FD
:102C0C00FDF710FFC7F88C0109E0FDF70BFF02463A
:102C1C00D7F88C31D31A022B01D90323D7E04FF00C
:102C2C000073C7F8E830D7F8E83093FAA3F207F14D
:102C3C0024031A6007F124031B68B3FA83F35BB215
:102C4C0043F020035BB2DBB25B09DBB2012B02D198
:102C5C00614B1B681DE04FF00073C7F8E430D7F8E8
:102C6C00E43093FAA3F207F120031A6007F1200372
:102C7C001B68B3FA83F35BB243F020035BB2DBB2A5
:102C8C005B09DBB2022B02D1534B1B6A01E0524BA6
:102C9C005B6A4FF00072C7F8E020D7F8E02092FA98
:102CAC00A2F107F11C02116007F11C021268B2FAC2
:102CBC0082F252B242F0200252B2D2B202F01F02A1
:102CCC00D34003F00103002B9FD07FE04FF08073C3
:102CDC00C7F8DC30D7F8DC3093FAA3F207F118030D
:102CEC001A6007F118031B68B3FA83F39B0003F116
:102CFC00844303F584031A4600231360FDF792FE08
:102D0C00C7F88C0109E0FDF78DFE0246D7F88C312F
:102D1C00D31A022B01D9032359E04FF00073C7F8E3
:102D2C00D830D7F8D83093FAA3F207F114031A600D
:102D3C0007F114031B68B3FA83F35BB243F020036F
:102D4C005BB2DBB25B09DBB2012B02D1224B1B68FD
:102D5C001DE04FF00073C7F8D430D7F8D43093FA95
:102D6C00A3F207F110031A6007F110031B68B3FA02
:102D7C0083F35BB243F020035BB2DBB25B09DBB2E3
:102D8C00022B02D1144B1B6A01E0134B5B6A4FF010
:102D9C000072C7F8D020D7F8D02092FAA2F107F130
:102DAC000C02116007F10C021268B2FA82F252B2F4
:102DBC0042F0200252B2D2B202F01F02D34003F012
:102DCC000103002B9FD101E0012300E000231846F2
:102DDC0007F5CA77BD4690BD0010024080B598B08B
:102DEC0000AF786039600023FB65A54B1B6803F0CE
:102DFC0007023B689A4210D2A149A14B1B6823F0F1
:102E0C0007023B6813430B609D4B1B6803F00702E2
:102E1C003B689A4201D001238FE17B681B6803F069
:102E2C000203002B08D09749964B5B6823F0F00205
:102E3C007B689B6813434B607B681B6803F0010342
:102E4C00002B00F027817B685B68012B46D14FF487
:102E5C0000337B637B6B93FAA3F33B633B6BB3FA5B
:102E6C0083F35BB243F020035BB2DBB25B09DBB2F2
:102E7C00012B02D1834B1B6817E04FF40033BB6569
:102E8C00BB6D93FAA3F3FB62FB6AB3FA83F35BB2F9
:102E9C0043F020035BB2DBB25B09DBB2022B02D145
:102EAC00784B1B6A01E0774B5B6A4FF400327A6512
:102EBC007A6D92FAA2F2BA62BA6AB2FA82F252B29B
:102ECC0042F0200252B2D2B202F01F02D34003F001
:102EDC000103002B40F08F8001232EE17B685B689F
:102EEC00022B45D14FF000733B653B6D93FAA3F376
:102EFC007B627B6AB3FA83F35BB243F020035BB271
:102F0C00DBB25B09DBB2012B02D15E4B1B6817E015
:102F1C004FF00073FB64FB6C93FAA3F33B623B6AC8
:102F2C00B3FA83F35BB243F020035BB2DBB25B0911
:102F3C00DBB2022B02D1534B1B6A01E0514B5B6A93
:102F4C004FF00072BA64BA6C92FAA2F2FA61FA69A2
:102F5C00B2FA82F252B242F0200252B2D2B202F073
:102F6C001F02D34003F00103002B44D10123E4E002
:102F7C0002237B647B6C93FAA3F3BB61BB69B3FA4A
:102F8C0083F35BB243F020035BB2DBB25B09DBB2D1
:102F9C00012B02D13B4B1B6816E002233B643B6CBC
:102FAC0093FAA3F37B617B69B3FA83F35BB243F0CF
:102FBC0020035BB2DBB25B09DBB2022B02D1314BDB
:102FCC001B6A01E02F4B5B6A0222FA63FA6B92FADE
:102FDC00A2F23A613A69B2FA82F252B242F020029B
:102FEC0052B2D2B202F01F02D34003F00103002B05
:102FFC0001D10123A1E02349224B5B6823F003029A
:10300C007B685B6813434B60FDF70CFDF8657B68D0
:10301C005B68012B12D10AE0FDF704FD0246FB6D43
:10302C00D31A41F28832934201D9032385E0154B20
:10303C005B6803F00C03042BEED12BE07B685B6820
:10304C00022B21D10AE0FDF7EDFC0246FB6DD31AF1
:10305C0041F28832934201D903236EE0094B5B683D
:10306C0003F00C03082BEED114E0FDF7DBFC024659
:10307C00FB6DD31A41F28832934205D903235CE0ED
:10308C0000200240001002402E4B5B6803F00C0342
:10309C00002BEAD12C4B1B6803F007023B689A42C9
:1030AC0010D92949284B1B6823F007023B681343AE
:1030BC000B60254B1B6803F007023B689A4201D05A
:1030CC0001233AE07B681B6803F00403002B08D053
:1030DC001C491C4B5B6823F4E0627B68DB68134380
:1030EC004B607B681B6803F00803002B09D0154963
:1030FC00144B5B6823F460527B681B69DB00134341
:10310C004B6000F027F801460E4B5B6803F0F002B1
:10311C00F023BB63BB6B93FAA3F3FB60FB68B3FABE
:10312C0083F322FA03F3094AD35C21FA03F3084A26
:10313C0013600020FDF74CFC002318466037BD4699
:10314C0080BD00BF00100240002002403851000832
:10315C000000002090B48EB000AF364B3C1D1868B8
:10316C0059689A68DB680FC4334A3B4612881A8048
:10317C000023FB620023BB6200237B6300237B6282
:10318C0000233B632D4B5B68FB62FB6A03F00C0373
:10319C00042B02D0082B03D043E0294B3B6343E0C4
:1031AC00FB6A03F470124FF47013FB61FB6993FA22
:1031BC00A3F3BB61BB69B3FA83F322FA03F307F100
:1031CC003802134413F8343C7B62FB6A03F48033FB
:1031DC00002B1ED0194B5B6803F400324FF4003304
:1031EC003B623B6A93FAA3F37B617B69B3FA83F38B
:1031FC0022FA03F307F13802134413F8383CBB628C
:10320C000F4ABB6AB2FBF3F37A6A02FB03F37B63EC
:10321C0004E07B6A0B4A02FB03F37B637B6B3B632F
:10322C0002E0074B3B6300BF3B6B18463837BD468B
:10323C0090BC704724510008345100080010024023
:10324C0000127A0000093D0080B400AF024B1B68ED
:10325C001846BD4680BC70470000002080B582B087
:10326C0000AFFFF7F1FF01460B4B5B6803F4E06224
:10327C004FF4E0637B607B6893FAA3F33B603B689D
:10328C00B3FA83F322FA03F3044AD35C21FA03F36F
:10329C0018460837BD4680BD001002404851000852
:1032AC0080B582B000AFFFF7CFFF01460B4B5B68D8
:1032BC0003F460524FF460537B607B6893FAA3F382
:1032CC003B603B68B3FA83F322FA03F3044AD35C02
:1032DC0021FA03F318460837BD4680BD00100240A2
:1032EC004851000880B590B000AF78600023FB63B4
:1032FC000023BB637B681B6803F00103002B00F009
:10330C00BD80704A6F4BDB6943F08053D3616D4BCA
:10331C00DB6903F08053FB60FB686B4A6A4B1B68EC
:10332C0043F480731360FDF77DFBF86308E0FDF751
:10333C0079FB0246FB6BD31A642B01D90323BCE047
:10334C00614B1B6803F48073002BF0D05D4B1B6A40
:10335C0003F44073BB63BB6B002B00F086807B686F
:10336C005B6803F44072BB6B9A427ED0554B1B6A70
:10337C0023F44073BB634FF480333B633B6B93FA92
:10338C00A3F3FB61FB69B3FA83F39B001A464F4B23
:10339C0013441A46012313604FF480337B627B6A1B
:1033AC0093FAA3F33B623B6AB3FA83F39B001A468E
:1033BC00464B13441A4600231360424ABB6B1362FC
:1033CC00BB6B03F00103002B4FD0FDF72BFBF86315
:1033DC000AE0FDF727FB0246FB6BD31A41F2883259
:1033EC00934201D9032368E002237B637B6B93FA3E
:1033FC00A3F3BB61BB69B3FA83F35BB243F0400345
:10340C005BB2DBB25B09DBB2012B02D12D4B1B682B
:10341C0016E00223FB62FB6A93FAA3F37B617B69E0
:10342C00B3FA83F35BB243F040035BB2DBB25B09EC
:10343C00DBB2022B02D1234B1B6A01E0214B5B6AEE
:10344C000222BA62BA6A92FAA2F23A613A69B2FA02
:10345C0082F252B242F0400252B2D2B202F01F02D9
:10346C00D34003F00103002BB3D01649154B1B6A54
:10347C0023F440727B685B6813430B627B681B68A8
:10348C0003F00203002B08D00E490E4B5B6823F4AB
:10349C0040427B689B6813434B607B681B6803F05E
:1034AC001003002B08D00749064B5B6823F48002FD
:1034BC007B68DB6813434B60002318464037BD46DE
:1034CC0080BD00BF0010024000700040000442426A
:1034DC0080B582B000AF78607B68002B01D10123EE
:1034EC0056E07B6893F85130DBB2002B02D1786840
:1034FC00FDF738F97B68022283F851207B681B6842
:10350C007A681268126822F040021A607B681B68A5
:10351C007A6851687A68926811437A68D268114364
:10352C007A68126911437A68526911437A68926910
:10353C0002F4007211437A68D26911437A68126AF4
:10354C0011437A68926A0A431A607B681B687A682E
:10355C009269120C02F004017A68526A0A435A60AA
:10356C007B681B687A68D26A1A617B681B687A6808
:10357C001268D26922F40062DA61074B00221A70D9
:10358C007B6800225A657B68012283F85120002356
:10359C0018460837BD4680BD5004002080B582B067
:1035AC0000AF78607B68002B01D101233BE07B6886
:1035BC0093F83930DBB2002B06D17B68002283F8FC
:1035CC0038207868FDF708F97B68022283F83920E7
:1035DC007B681B687A681268D26822F40052DA6041
:1035EC00786800F027FC7B681B687A68126812699F
:1035FC0022F490421A617B681B687A6812685269DF
:10360C0022F02A025A617B681B687A681268D268B9
:10361C0042F40052DA607B680022DA637B68012294
:10362C0083F83920002318460837BD4680BD00BFFB
:10363C0080B586B000AFF860B9603B601346FB8084
:10364C0000237B61FB6893F83930DBB27B617B69CB
:10365C00012B03D07B69222B40F08D80BB68002BA3
:10366C0002D0FB88002B01D1012385E0FB6893F885
:10367C003830012B01D102237EE0FB68012283F854
:10368C003820FB680022DA63FB6893F83930DBB230
:10369C00222B04D1FB68322283F8392003E0FB682B
:1036AC00122283F83920FB68FA889A84FB68FA881E
:1036BC00DA843CE0FB68DB8C013B9AB2FB68DA8471
:1036CC00FB689B68B3F5805F1FD13B6800228021AB
:1036DC00F86800F001FA0346002B01D003234BE0FD
:1036EC00BB683B61FB681B683A691288C2F308022D
:1036FC005A60FB681B69002B03D1BB680233BB60AB
:10370C0015E0BB680133BB6011E03B6800228021EF
:10371C00F86800F0E1F90346002B01D003232BE0FD
:10372C00FB681A68BB68591CB9601B785360FB684E
:10373C00DB8C002BBED13B6800224021F86800F0E6
:10374C00CBF90346002B01D0032315E0FB6893F85B
:10375C003930DBB2322B04D1FB68222283F83920BA
:10376C0003E0FB68012283F83920FB68002283F810
:10377C003820002300E0022318461837BD4680BDD0
:10378C0080B586B000AFF860B9603B601346FB8033
:10379C0000237B61FB6893F83930DBB27B617B697A
:1037AC00012B03D07B69122B40F09D80BB68002B52
:1037BC0002D0FB88002B01D1012395E0FB6893F824
:1037CC003830012B01D102238EE0FB68012283F8F3
:1037DC003820FB680022DA63FB6893F83930DBB2DF
:1037EC00122B04D1FB68322283F8392003E0FB68EA
:1037FC00222283F83920FB68FA889A85FB68FA88BC
:10380C00DA8557E0FB68DB8D013B9AB2FB68DA8501
:10381C00FB689B68B3F5805F29D13B6800222021AF
:10382C00F86800F059F90346002B01D003235BE044
:10383C00BB683B61FB681B69002B0CD1FB681B68E8
:10384C005B689BB2C3F308039AB23B691A80BB68EE
:10385C000233BB602EE0FB681B685B689BB2DBB27B
:10386C009AB23B691A80BB680133BB6022E03B68AB
:10387C0000222021F86800F02FF90346002B01D01C
:10388C00032331E0FB681B69002B08D1BB685A1C71
:10389C00BA60FA6812685268D2B21A700AE0BB6851
:1038AC005A1CBA60FA6812685268D2B202F07F02EF
:1038BC00D2B21A70FB68DB8D002BA3D1FB6893F896
:1038CC003930DBB2322B04D1FB68122283F8392059
:1038DC0003E0FB68012283F83920FB68002283F89F
:1038EC003820002300E0022318461837BD4680BD5F
:1038FC0080B586B000AF786000237B6100233B610C
:10390C007B681B681B6803F00103002B14BF0123A9
:10391C000023DBB27B617B681B68DB6803F480737C
:10392C003B617B69002B08D03B69002B05D07B6881
:10393C00DB6B43F001027B68DA637B681B681B68F6
:10394C0003F00203002B14BF01230023DBB27B61C5
:10395C007B681B685B6903F001033B617B69002B8F
:10396C0008D03B69002B05D07B68DB6B43F004026D
:10397C007B68DA637B681B681B6803F00403002B0D
:10398C0014BF01230023DBB27B617B69002B08D0C1
:10399C003B69002B05D07B68DB6B43F002027B6834
:1039AC00DA637B681B681B6803F00803002B14BFE9
:1039BC0001230023DBB27B617B69002B08D03B69C0
:1039CC00002B05D07B68DB6B43F008027B68DA6365
:1039DC007B681B681B6803F02003002B14BF0123BA
:1039EC000023DBB27B617B681B68DB6803F0200380
:1039FC003B617B69002B05D03B69002B02D07868BA
:103A0C0000F084F97B681B681B6803F08003002BB3
:103A1C0014BF01230023DBB27B617B681B68DB686E
:103A2C0003F080033B617B69002B05D03B69002BC5
:103A3C0002D0786800F0EAF87B681B681B6803F01A
:103A4C004003002B14BF01230023DBB27B617B6896
:103A5C001B68DB6803F040033B617B69002B05D0DE
:103A6C003B69002B02D0786800F02CF97B68DB6B8B
:103A7C00002B0FD07B681B681B68FB607B681B6886
:103A8C005B68FB60FB687B68012283F839207868EF
:103A9C0000F018F800BF1837BD4680BD80B483B065
:103AAC0000AF786000BF0C37BD4680BC704700BFCC
:103ABC0080B483B000AF786000BF0C37BD4680BCCB
:103ACC00704700BF80B483B000AF786000BF0C3784
:103ADC00BD4680BC704700BF80B586B000AFF860B3
:103AEC00B9603B601346FB7100237B61FCF79AFFC6
:103AFC007861FB79002B7BD138E03B68B3F1FF3F59
:103B0C0034D03B68002B07D0FCF78CFF02467B6956
:103B1C00D21A3B689A4229D9FB681B68FA6812686A
:103B2C00D26822F08002DA60FB681B68FA681268BF
:103B3C00D26822F02002DA60FB681B68FA6812680F
:103B4C00D26822F48072DA60FB681B68FA6812682B
:103B5C00526922F001025A61FB68012283F8392074
:103B6C00FB68002283F8382003234AE0FB681B68BB
:103B7C001A68BB681A40BB689A42BED140E03B68E9
:103B8C00B3F1FF3F34D03B68002B07D0FCF74AFF62
:103B9C0002467B69D21A3B689A4229D9FB681B689A
:103BAC00FA681268D26822F08002DA60FB681B683F
:103BBC00FA681268D26822F02002DA60FB681B688F
:103BCC00FA681268D26822F48072DA60FB681B68AB
:103BDC00FA681268526922F001025A61FB680122EC
:103BEC0083F83920FB68002283F83820032308E08F
:103BFC00FB681B681A68BB681A40BB689A42BED047
:103C0C00002318461837BD4680BD00BF80B485B070
:103C1C0000AF78600023FB607B6893F83930DBB22F
:103C2C00FB60FB68122B02D0FB68322B43D17B6804
:103C3C009B68B3F5805F19D17B681B6ABB607B689E
:103C4C001B68BA681288C2F308025A607B681B6949
:103C5C00002B05D17B681B6A9A1C7B681A620EE0EC
:103C6C007B681B6A5A1C7B681A6208E07B681A68BE
:103C7C007B681B6A581C796808621B7853607B68E8
:103C8C00DB8C013B9AB27B68DA847B68DB8C002B83
:103C9C000FD17B681B687A681268D26822F08002A8
:103CAC00DA607B681B687A681268D26842F040025E
:103CBC00DA60002300E0022318461437BD4680BCAE
:103CCC00704700BF80B582B000AF78607B681B681E
:103CDC007A681268D26822F04002DA607B6893F846
:103CEC003930DBB2322B04D17B68222283F83920A5
:103CFC0003E07B68012283F839207868FFF7CEFE59
:103D0C00002318460837BD4680BD00BF80B584B07F
:103D1C0000AF78600023FB607B6893F83930DBB22E
:103D2C00FB60FB68222B02D0FB68322B7CD17B68BA
:103D3C009B68B3F5805F23D17B689B6ABB607B6813
:103D4C001B69002B0ED17B681B685B689BB2C3F3AD
:103D5C0008039AB2BB681A807B689B6A9A1C7B68C2
:103D6C009A6229E07B681B685B689BB2DBB29AB2F3
:103D7C00BB681A807B689B6A5A1C7B689A621BE042
:103D8C007B681B69002B0AD17B689B6A591C7A687B
:103D9C0091627A6812685268D2B21A700CE07B6831
:103DAC009B6A591C7A6891627A6812685268D2B21E
:103DBC0002F07F02D2B21A707B68DB8D013B9AB2A3
:103DCC007B68DA857B68DB8D002B2BD17B681B68CD
:103DDC007A681268D26822F02002DA607B6893F865
:103DEC003930DBB2322B04D17B68122283F83920B4
:103DFC0013E07B681B687A681268D26822F48072C0
:103E0C00DA607B681B687A681268526922F00102DA
:103E1C005A617B68012283F839207868FFF748FEE5
:103E2C00002302E0002300E0022318461037BD46B1
:103E3C0080BD00BFF0B585B000AF78600023FB609B
:103E4C007B681B687A681268126922F440517A68A0
:103E5C00D2680A431A617B689A687B681B691A43AB
:103E6C007B685B691343FB607B681A687B681B6823
:103E7C00DB6823F4B05323F00C03F9680B43D360D5
:103E8C007B681B687A681268526922F440717A6800
:103E9C0092690A435A617B681B686F4A93426BD1E3
:103EAC007B681C68FFF7FCF9024613469B00134421
:103EBC009A001A447B685B689B00B2FBF3F3674A79
:103ECC00A2FB03235B091D01FFF7EAF90246134627
:103EDC009B0013449A001A447B685B689B00B2FBFE
:103EEC00F3F6FFF7DDF9024613469B0013449A00E4
:103EFC001A447B685B689B00B2FBF3F3574AA2FB46
:103F0C0003235B09642202FB03F3F31A1B01323314
:103F1C00524AA2FB03235B0903F0F0031D44FFF795
:103F2C00BFF9024613469B0013449A001A447B685F
:103F3C005B689B00B2FBF3F6FFF7B2F9024613463F
:103F4C009B0013449A001A447B685B689B00B2FB8D
:103F5C00F3F3424AA2FB03235B09642202FB03F343
:103F6C00F31A1B0132333D4AA2FB03235B0903F016
:103F7C000F032B44A3606AE07B681C68FFF76EF9A3
:103F8C00024613469B0013449A001A447B685B68F4
:103F9C009B00B2FBF3F3314AA2FB03235B091D0127
:103FAC00FFF75CF9024613469B0013449A001A442F
:103FBC007B685B689B00B2FBF3F6FFF74FF9024698
:103FCC0013469B0013449A001A447B685B689B0061
:103FDC00B2FBF3F3214AA2FB03235B09642202FB2D
:103FEC0003F3F31A1B0132331C4AA2FB03235B09B4
:103FFC0003F0F0031D44FFF731F9024613469B0012
:10400C0013449A001A447B685B689B00B2FBF3F67E
:10401C00FFF724F9024613469B0013449A001A44F6
:10402C007B685B689B00B2FBF3F30C4AA2FB032397
:10403C005B09642202FB03F3F31A1B013233074AB8
:10404C00A2FB03235B0903F00F032B44A36000BF07
:10405C001437BD46F0BD00BF003801401F85EB5141
:10406C0084B080B483B000AF786007F1140080E8AE
:10407C000E00002318460C37BD4680BC04B07047B8
:10408C0080B485B000AF78600023FB604FF43D43F3
:10409C00FB607B68B3F840309AB2FB689BB2DB43A1
:1040AC009BB213409AB27B68A3F8402000231846B9
:1040BC001437BD4680BC704780B483B000AF7860C5
:1040CC000B46FB70002318460C37BD4680BC70476E
:1040DC0084B080B483B000AF786007F1140080E83E
:1040EC000E007B680122A3F840207B680022A3F815
:1040FC0040207B680022A3F844207B680022A3F8B0
:10410C005020002318460C37BD4680BC04B07047C5
:10411C0080B483B000AF7860002318460C37BD46DE
:10412C0080BC704780B500AF072203490348FCF7F9
:10413C0097FD00BF80BD00BF84090020FC04002057
:10414C0080B500AF0D4B1B783033DBB21A462A21F9
:10415C00072000F001FD2D223021072000F0FCFC8F
:10416C00064B1B781A46064B33F812301A4636218A
:10417C00072000F021FD00BF80BD00BF51040020CE
:10418C008409002080B582B000AF78607868FCF7B5
:10419C0053FC00BF0837BD4680BD00BF80B500AFE3
:1041AC00012204210348FDF7F5FDC820FFF7EAFFC3
:1041BC0000BF80BD000C014080B500AF002204217F
:1041CC000248FDF7E7FD00BF80BD00BF000C0140B9
:1041DC0080B500AFFFF7E2FFFFF7EEFF00BF80BD39
:1041EC0080B584B000AF03463960FB711346BB80C9
:1041FC00BB88BB730023FB7316E0BB7B002B10D07A
:10420C00BB7B013BBB73FB7BC3F10F03DBB2DB005E
:10421C00D9B2BB7B3A6813441A78FB79184600F084
:10422C009BFCFB7B0133FB73FB7B042BE5D900BFB1
:10423C001037BD4680BD00BF80B500AF1B4B41227F
:10424C001A701A4B54225A70184B2B229A70174B17
:10425C005222DA70154B4F221A71144B4C225A71A0
:10426C00124B45229A71114B3F22DA71104B0822E6
:10427C001A80104B08221A800D4B1A884FF47A734F
:10428C000A490D48FFF7D4F90A4B1A884FF47A7390
:10429C000A490948FFF774FA064B1B881A46074966
:1042AC000320FFF79DFF00BF80BD00BF94090020D5
:1042BC005204002054040020BC040020B409002047
:1042CC0080B500AF1B4B41221A701A4B54225A7006
:1042DC00184B2B229A70174B4322DA70154B4C2239
:1042EC001A71144B45225A71124B41229A71114B7F
:1042FC005222DA71104B08221A80104B08221A80B5
:10430C000D4B1A884FF47A730A490D48FFF790F950
:10431C000A4B1A884FF47A730A490948FFF730FAA6
:10432C00064B1B881A4607490420FFF759FF00BFAC
:10433C0080BD00BF940900205204002054040020CA
:10434C00BC040020B409002080B485B000AF034643
:10435C003960FB71FB7903F00F03FB73FB791B09CD
:10436C00BB73BB7B092B05D8BB7B3033DAB23B6804
:10437C001A7004E0BB7B3733DAB23B681A70FB7BF4
:10438C00092B06D83B680133FA7B3032D2B21A7053
:10439C0005E03B680133FA7B3732D2B21A7000BFAA
:1043AC001437BD4680BC704780B485B000AF03465F
:1043BC003960FB710023BB600123FB730AE0FB7BBC
:1043CC003A6813441B781A46BB681344BB60FB7BEA
:1043DC000133FB73FA7BFB799A42F0D3BB685B42E7
:1043EC00DBB2BB60BB68DBB218461437BD4680BC81
:1043FC00704700BF90B585B000AF04460846114623
:10440C001A462346FB800346BB800B467B80134633
:10441C003B80FB881B099BB2DAB2574B1A70BB88E6
:10442C009B099BB2DAB2554B1A707B889B099BB2E5
:10443C00DAB2534B1A703B889B099BB2DAB2514BE0
:10444C001A70BB88B3F5006F0CD24C4B1B78C3F1C0
:10445C001F03DBB25BB263F07F035BB2DAB2474B94
:10446C001A7005E0454B1B78203BDAB2434B1A70AF
:10447C007B88B3F5006F0CD2414B1B78C3F11F0343
:10448C00DBB25BB263F07F035BB2DAB23C4B1A7007
:10449C0005E03B4B1B78203BDAB2394B1A703B885A
:1044AC00B3F5006F0CD2374B1B78C3F11F03DBB293
:1044BC005BB263F07F035BB2DAB2324B1A7005E089
:1044CC00304B1B78203BDAB22E4B1A700023FB7357
:1044DC0006E0FB7B2C4A2021D154FB7B0133FB7380
:1044EC00FB7B1F2BF5D9294B0B221A70264B3A223A
:1044FC001A70254B52225A70234B43229A701E4B32
:10450C001B7823491846FFF71FFF1C4B1B782149CA
:10451C001846FFF719FF1A4B1B781F491846FFF76F
:10452C0013FF184B1B781D491846FFF70DFF174B4F
:10453C001B7815491846FFF737FF03461846134BEF
:10454C001B781A46104B13441946FFF7FDFE0F4B10
:10455C001B7802330C4A2F21D1540C4B1B789BB285
:10456C0003339AB2642308490D48FFF761F800BF82
:10457C001437BD4690BD00BFF9090020D4090020B6
:10458C00D5090020F8090020D80900205604002085
:10459C00DB090020DD090020DF090020E1090020F3
:1045AC00BC04002080B582B000AF0023FB7106E094
:1045BC00FB791E4A2021D154FB790133FB71FB7925
:1045CC001F2BF5D91A4B04221A70184B3A221A7069
:1045DC00164B43225A70154B41229A70134B4C22A6
:1045EC00DA70134B1B7811491846FFF7DDFE0346B2
:1045FC0018460F4B1B781A460C4B13441946FFF701
:10460C00A3FE0B4B1B780233084A2F21D154084BC5
:10461C001B789BB203339AB2642304490548FFF715
:10462C0007F800BF0837BD4680BD00BFD809002081
:10463C0056040020BC04002080B582B000AF0023DB
:10464C00FB7106E0FB791F4A2021D154FB79013321
:10465C00FB71FB791F2BF5D91B4B05221A70194BDB
:10466C003A221A70174B50225A70164B57229A70D6
:10467C00144B4F22DA70134B4E221A71124B1B78CB
:10468C0010491846FFF790FE034618460E4B1B7850
:10469C001A460C4B13441946FFF756FE0A4B1B786F
:1046AC000233084A2F21D154074B1B789BB203339A
:1046BC009AB2642303490548FEF7BAFF00BF0837D6
:1046CC00BD4680BDD809002056040020BC04002043
:1046DC0080B582B000AF78607868FCF7ADF900BFA8
:1046EC000837BD4680BD00BF80B500AF00F006F8AE
:1046FC0000F01EF800F02CF800BF80BD80B500AFB4
:10470C00094B1B68642B0CD9074B00221A60074B12
:10471C00D888064B5988054B1A88044B9B88FFF7A1
:10472C0069FE00BF80BD00BF580400208409002032
:10473C0080B500AF054B1B68C82B04D9034B002276
:10474C001A60FFF7FDFC00BF80BD00BF5C040020B9
:10475C0080B500AF824B1B68B3F5FA7F40F2FE8048
:10476C007F4B00221A6000F003F920217D48FDF7F1
:10477C00F9FA0346002B1FD10A20FFF7A9FFFFF718
:10478C0027FD20217748FDF7EDFA0346002B40F07A
:10479C00E580FFF71DFDFFF705FF012000F026FB6C
:1047AC0000BF20216F48FDF7DDFA0346002BF8D03F
:1047BC00002000F01BFBD1E040216A48FDF7D2FA43
:1047CC000346002B1DD10A20FFF782FF40216548CC
:1047DC00FDF7C8FA0346002B40F0C080FFF7F8FC49
:1047EC00FFF72AFD012000F059FB00BF40215D4876
:1047FC00FDF7B8FA0346002BF8D0002000F04EFB72
:10480C00ACE080215748FDF7ADFA0346002B27D1C9
:10481C000A20FFF75DFF80215248FDF7A3FA0346FB
:10482C00002B40F09B80FFF7D3FC4F4B1B78052BE4
:10483C0005D84D4B1B780133DAB24B4B1A70FFF78E
:10484C007FFC012000F05CFA00BF80214548FDF799
:10485C0089FA0346002BF8D0002000F051FA7DE0D5
:10486C004FF400514148FDF77DFA0346002B28D147
:10487C000A20FFF72DFF4FF400513C48FDF772FA68
:10488C000346002B6AD1FFF7A3FC374B1B78002B98
:10489C0005D0354B1B78013BDAB2334B1A70FFF75E
:1048AC004FFC012000F02CFA00BF4FF400512F48B0
:1048BC00FDF758FA0346002BF7D0002000F020FA41
:1048CC004CE04FF480412948FDF74CFA0346002B8D
:1048DC001ED10A20FFF7FCFE4FF480412348FDF760
:1048EC0041FA0346002B39D1FFF772FCFFF7A4FE07
:1048FC00012000F059FA00BF4FF480411B48FDF72E
:10490C0031FA0346002BF7D0002000F04DFA25E0D9
:10491C004FF400411548FDF725FA0346002B1DD135
:10492C000A20FFF7D5FE4FF400411048FDF71AFAA4
:10493C000346002B12D1FFF74BFCFFF7C1FC012003
:10494C0000F076FA00BF4FF400410848FDF70AFA70
:10495C000346002BF7D0002000F06AFA00BF80BDA0
:10496C0060040020000C01405104002000100140A4
:10497C0080B500AF4FF480710248FDF723FA00BFF9
:10498C0080BD00BF0008014080B582B000AF7860E8
:10499C007868FCF751F800BF0837BD4680BD00BFF2
:1049AC0080B584B000AF0346FB71002240211E4845
:1049BC00FDF7F0F900224FF480711C48FDF7EAF97D
:1049CC000023FB731EE0002220211748FDF7E2F9BB
:1049DC0097F90730002B05DA012280211248FDF7E8
:1049EC00D9F904E0002280210F48FDF7D3F9012208
:1049FC0020210D48FDF7CEF9FB795B00FB71FB7BA9
:104A0C000133FB73FB7B072BDDD901224FF4807143
:104A1C000648FDF7BFF9012240210348FDF7BAF91A
:104A2C0000BF1037BD4680BD00080140000C01409E
:104A3C0080B584B000AF0346FB71012240211E48B3
:104A4C00FDF7A8F900224FF480711C48FDF7A2F97C
:104A5C000023FB731EE0002220211748FDF79AF972
:104A6C0097F90730002B05DA012280211248FDF757
:104A7C0091F904E0002280210F48FDF78BF9012207
:104A8C0020210D48FDF786F9FB795B00FB71FB7B60
:104A9C000133FB73FB7B072BDDD901224FF48071B3
:104AAC000648FDF777F9012240210348FDF772F91A
:104ABC0000BF1037BD4680BD00080140000C01400E
:104ACC0080B582B000AF03460A46FB711346BB713A
:104ADC00FB79503BDBB21846FFF762FFBB791B0931
:104AEC00DBB243F01003DBB21846FFF759FFBB797A
:104AFC0003F00F03DBB21846FFF752FF00BF083775
:104B0C00BD4680BD80B582B000AF0023FB711BE0B9
:104B1C00FB79503BDBB21846FFF742FF1020FFF742
:104B2C003FFF0020FFF73CFF0023BB7105E0002096
:104B3C00FFF77EFFBB790133BB7197F90630002B71
:104B4C00F5DAFB790133FB71FB79072BE0D900BF58
:104B5C000837BD4680BD00BF80B584B000AF0346AA
:104B6C00FB710B46BB7113467B710023FB737B7986
:104B7C00203BBB73BA79FB7911461846FFF7A0FFAF
:104B8C000023FB730FE0BA7BF97B0A4813465B00EA
:104B9C0013445B0003440B441B781846FFF748FF93
:104BAC00FB7B0133FB73FB7B052BECD900BF103770
:104BBC00BD4680BD6C51000880B584B000AF034683
:104BCC003A60FB710B46BB710023FB730023BB7374
:104BDC0000237B7306E07B7B01337B733B68A3F57F
:104BEC007A733B603B68B3F57A7FF4D805E0BB7B06
:104BFC000133BB733B68643B3B603B68642BF6D86A
:104C0C0005E0FB7B0133FB733B680A3B3B603B6875
:104C1C000A2BF6D87B7B3033DAB2B979FB7918469C
:104C2C00FFF79AFFBB790633D9B2BB7B3033DAB2CC
:104C3C00FB791846FFF790FFBB790C33D9B2FB7B9D
:104C4C003033DAB2FB791846FFF786FFBB791233A3
:104C5C00D9B23B68DBB23033DAB2FB791846FFF7D6
:104C6C007BFF00BF1037BD4680BD00BF80B584B050
:104C7C0000AF0346FB710B46BB7113467B71BA79CF
:104C8C00FB7911461846FFF71BFF0023FB730FE05F
:104C9C007B795A00FB7B194952010A44134493F95E
:104CAC000030DBB21846FFF7C3FEFB7B0133FB730E
:104CBC00FB7B0F2BECD9FB790133DBB2BA791146B4
:104CCC001846FFF7FDFE0023FB7310E07B795B00B9
:104CDC005A1CFB7B094952010A44134493F90030D6
:104CEC00DBB21846FFF7A4FEFB7B0133FB73FB7BA7
:104CFC000F2BEBD900BF1037BD4680BD9453000875
:104D0C0080B582B000AF0346FB71FB79002B23D03A
:104D1C00072200210020FFF7A9FF08221221002002
:104D2C00FFF7A4FF092224210020FFF79FFF0A228E
:104D3C0036210020FFF79AFF0B2248210020FFF7B5
:104D4C0095FF0C225A210020FFF790FF0D226C21B9
:104D5C000020FFF78BFF22E0002200210020FFF74C
:104D6C0085FF012212210020FFF780FF022224215F
:104D7C000020FFF77BFF032236210020FFF776FF90
:104D8C00042248210020FFF771FF05225A21002040
:104D9C00FFF76CFF06226C210020FFF767FF00BFB6
:104DAC000837BD4680BD00BF80B582B000AF03465A
:104DBC00FB71FB79002B0AD0102200210620FFF793
:104DCC0055FF112212210620FFF750FF09E00E2299
:104DDC0000210620FFF74AFF0F2212210620FFF7C1
:104DEC0045FF00BF0837BD4680BD00BF80B582B00F
:104DFC0000AF0346FB71FB79002B0AD014225A2119
:104E0C000620FFF733FF15226C210620FFF72EFF3B
:104E1C0009E012225A210620FFF728FF13226C21E9
:104E2C000620FFF723FF00BF0837BD4680BD00BF3B
:104E3C0080B582B000AF0346FB71FB79002B14D018
:104E4C001A2200210420FFF711FF1B22122104203B
:104E5C00FFF70CFF1C2224210420FFF707FF1D2263
:104E6C0036210420FFF702FF13E016220021042054
:104E7C00FFF7FCFE172212210420FFF7F7FE182281
:104E8C0024210420FFF7F2FE192236210420FFF71B
:104E9C00EDFE00BF0837BD4680BD00BF80B582B0B7
:104EAC0000AF0346FB71FB79002B14D022220021AA
:104EBC000220FFF7DBFE232212210220FFF7D6FE91
:104ECC00242224210220FFF7D1FE252236210220A4
:104EDC00FFF7CCFE13E01E2200210220FFF7C6FED6
:104EEC001F2212210220FFF7C1FE202224210220C2
:104EFC00FFF7BCFE212236210220FFF7B7FE00BFD0
:104F0C000837BD4680BD00BF80B582B000AF01221E
:104F1C0020212948FCF73EFF012280212648FCF77E
:104F2C0039FF01224FF400712448FCF733FF0122B2
:104F3C0040212148FCF72EFF01224FF480711F48BD
:104F4C00FCF728FF0A20FFF71FFD00224FF4007129
:104F5C001A48FCF71FFF3220FFF716FD01224FF411
:104F6C0000711648FCF716FF0023FB7108E0FB7973
:104F7C00134AD35C1846FFF713FDFB790133FB7121
:104F8C00FB791B2BF3D9FFF7BDFD00210020FFF7A8
:104F9C0097FD0020FFF7B4FE0020FFF705FF00206F
:104FAC00FFF724FF0020FFF779FF0020FFF740FFF9
:104FBC0000BF0837BD4680BD00080140000C014011
:104FCC005051000870B50F4E0F4D761BB61018BF20
:104FDC00002405D0013455F8043B9847A642F9D17A
:104FEC000A4E0B4D00F08CF8761BB61018BF00243F
:104FFC0006D0013455F8043B9847A642F9D170BD50
:10500C0070BD00BF185D0008185D0008205D000829
:10501C00185D0008024B13B1024800F005B8704748
:10502C000000000041500008002301461A461846B3
:10503C0000F014B838B5074D074C2C1BA41005D044
:10504C00013C55F8043D9847002CF9D1BDE8384097
:10505C0000F05CB8245D0008205D00082DE9F047E5
:10506C00254C064625688846D5F84841924699460F
:10507C00C4B360681F2817DC411C76B104EB8003B5
:10508C00C3F888A0D4F88851012282401543022E1F
:10509C00C4F88851C3F808911ED0831C61600020AD
:1050AC0044F82380BDE8F087144B03B34FF4C87069
:1050BC00AFF300800446D0B1D5F84831002784E81E
:1050CC0088003846C5F848410121C4F88871C4F8F5
:1050DC008C71002EE1D0D1E7D4F88C311A43C4F88E
:1050EC008C21DAE705F5A674C5F84841C1E74FF005
:1050FC00FF30BDE8F08700BF145D00080000000021
:10510C00F8B500BFF8BC08BC9E467047F8B500BFA8
:08511C00F8BC08BC9E46704778
:1051240002030405060708090A0B0C0D0E0F1010E4
:10513400010200000000000000000000010203045E
:10514400060708090000000001020304AE00104035
:1051540081CFA0C0A6A83FD300D580D9F1DA12DB55
:105164004020028D14A4A6AF00000000000000003F
:10517400002F000000000700070000147F147F14B4
:1051840000242A7F2A12006264081323003649553A
:10519400225000000503000000001C224100000012
:1051A40041221C000014083E08140008083E0808A8
:1051B400000000A060000008080808080000606003
:1051C4000000002010080402003E5149453E000042
:1051D400427F4000004261514946002141454B3124
:1051E400001814127F10002745454539003C4A49F0
:1051F4004930000171090503003649494936000662
:105204004949291E000036360000000056360000C9
:105214000008142241000014141414140000412244
:10522400140800020151090600324959513E007C1C
:105234001211127C007F49494936003E4141412206
:10524400007F4141221C007F49494941007F0909EF
:105254000901003E4149497A007F0808087F00009F
:10526400417F4100002040413F01007F081422415A
:10527400007F40404040007F020C027F007F040812
:10528400107F003E4141413E007F09090906003E6E
:105294004151215E007F0919294600464949493197
:1052A4000001017F0101003F4040403F001F2040BA
:1052B400201F003F4038403F006314081463000778
:1052C4000870080700615149454300007F414100CF
:1052D40000552A552A55000041417F00000402016F
:1052E400020400404040404000000102040000204D
:1052F40054545478007F484444380038444444208B
:1053040000384444487F00385454541800087E0937
:1053140001020018A4A4A47C007F080404780000FF
:10532400447D4000004080847D00007F10284400BC
:105334000000417F4000007C04180478007C0804CD
:10534400047800384444443800FC24242418001809
:10535400242418FC007C08040408004854545420F5
:1053640000043F444020003C4040207C001C20407E
:10537400201C003C4030403C004428102844001CC1
:10538400A0A0A07C004464544C44141414141414B9
:1053940000FE0282BAAAAAAAAAAABA8202FE00003F
:1053A40000000000000000000000000000000000F9
:1053B40000FF404F605048464850604F40FF000097
:1053C40000000000000000000000000000000000D9
:1053D4000000C04040407F48484848C808080000D2
:1053E40000000000000000000000000000000000B9
:1053F40080403704041464041464040710E00000BB
:105404000000000000000000000000000000000098
:105414002020FF2024F4545454FF545556F404001F
:105424000000000000000000000000000000000078
:105434000000FF00080B1969090B49897D0B08005E
:105444000000000000000000000000000000000058
:1054540040404040404040FF4040404040404000C9
:105464000000000000000000000000000000000038
:10547400000040404040407F404040404000000029
:105484000000000000000000000000000000000018
:10549400000000E0000000FF000000204080000049
:1054A40000000000000000000000000000000000F8
:1054B400080403000040807F0000000000010E008B
:1054C40000000000000000000000000000000000D8
:1054D40000FC040404FC040404FC040404FC0000B4
:1054E40000000000000000000000000000000000B8
:1054F400007F28242320202020212222227F000034
:105504000000000000000000000000000000000097
:10551400C8B88FE8888800F01010FF1010F0000061
:105524000000000000000000000000000000000077
:10553400081808FF040400FF42427F4242FF0000B3
:105544000000000000000000000000000000000057
:10555400FF01FD7D455555555555457DFD01FFFF21
:105564000000000000000000000000000000000037
:10557400FF00BFB09FAFB7B9B7AF9FB0BF00FFFF89
:105584000000000000000000000000000000000017
:10559400FFFF3FBFBFBF80B7B7B7B737F7F7FFFF0E
:1055A40000000000000000000000000000000000F7
:1055B4007FBFC8FBFBEB9BFBEB9BFBF8EF1FFFFFE5
:1055C40000000000000000000000000000000000D7
:1055D400DFDF00DFDB0BABABAB00ABAAA90BFBFF40
:1055E40000000000000000000000000000000000B7
:1055F400FFFF00FFF7F4E696F6F4B67682F4F7FFC1
:105604000000000000000000000000000000000096
:10561400BFBFBFBFBFBFBF00BFBFBFBFBFBFBFFF15
:105624000000000000000000000000000000000076
:10563400FFFFBFBFBFBFBF80BFBFBFBFBFFFFFFF75
:105644000000000000000000000000000000000056
:10565400FFFFFF1FFFFFFF00FFFFFFDFBF7FFFFF15
:105664000000000000000000000000000000000036
:10567400F7FBFCFFFFBF7F80FFFFFFFFFFFEF1FF93
:105684000000000000000000000000000000000016
:10569400FF03FBFBFB03FBFBFB03FBFBFB03FFFF2A
:1056A40000000000000000000000000000000000F6
:1056B400FF80D7DBDCDFDFDFDFDEDDDDDD80FFFF6A
:1056C40000000000000000000000000000000000D6
:1056D400374770177777FF0FEFEF00EFEF0FFFFFFC
:1056E40000000000000000000000000000000000B6
:1056F400F7E7F700FBFBFF00BDBD80BDBD00FFFF6A
:105704000000000000000000000000000000000095
:105714002010EC27F42CE00022920ED2221E00006E
:105724000000000000000000000000000000000075
:1057340080601F093F89FF000A0909FF0909080061
:105744000000000000000000000000000000000055
:1057540020102CE7242400E22C20BF2028E600009F
:105764000000000000000000000000000000000035
:105774000101017F2111804F20100F10204F800064
:105784000000000000000000000000000000000015
:10579400DFEF13D80BD31FFFDD6DF12DDDE1FFFF2C
:1057A40000000000000000000000000000000000F5
:1057B4007F9FE0F6C07600FFF5F6F600F6F6F7FFF9
:1057C40000000000000000000000000000000000D5
:1057D400DFEFD318DBDBFF1DD3DF40DFD719FFFF7B
:1057E40000000000000000000000000000000000B5
:1057F400FEFEFE80DEEE7FB0DFEFF0EFDFB07FFF76
:105804000000000000000000000000000000000094
:105814001010D0FF9010804828090E0828488800EE
:105824000000000000000000000000000000000074
:10583400040300FF00018080432C102C438080006F
:105844000000000000000000000000000000000054
:1058540000020CE04020F84F4849FE484848080040
:105864000000000000000000000000000000000034
:1058740004047F000000FF2222223F222222200073
:105884000000000000000000000000000000000014
:10589400EFEF2F006FEF7FB7D7F6F1F7D7B777FFAA
:1058A40000000000000000000000000000000000F4
:1058B400FBFCFF00FFFE7F7FBCD3EFD3BC7F7FFFE9
:1058C40000000000000000000000000000000000D4
:1058D400FFFDF31FBFDF07B0B7B601B7B7B7F7FFD8
:1058E40000000000000000000000000000000000B4
:1058F400FBFB80FFFFFF00DDDDDDC0DDDDDDDFFF65
:105904000000000000000000000000000000000093
:105914001060028C00445454547F54545444400046
:105924000000000000000000000000000000000073
:1059340004047E010000FF15151555957F00000035
:105944000000000000000000000000000000000053
:1059540000FE225A8620102824E324281020200048
:105964000000000000000000000000000000000033
:1059740000FF040827110D41817F01050931000052
:105984000000000000000000000000000000000013
:105994000404E4040FF40404F444CF444444040031
:1059A40000000000000000000000000000000000F3
:1059B40040407D44447D4445447C44457C40400013
:1059C40000000000000000000000000000000000D3
:1059D4000000C2B28282828282FE8282828280003F
:1059E40000000000000000000000000000000000B3
:1059F4000020201008040241807F00000000000005
:105A04000000000000000000000000000000000092
:105A1400EF9FFD73FFBBABABAB80ABABABBBBFFFCF
:105A24000000000000000000000000000000000072
:105A3400FBFB81FEFFFF00EAEAEAAA6A80FFFFFFA0
:105A44000000000000000000000000000000000052
:105A5400FF01DDA579DFEFD7DB1CDBD7EFDFDFFF4D
:105A64000000000000000000000000000000000032
:105A7400FF00FBF7D8EEF2BE7E80FEFAF6CEFFFF03
:105A84000000000000000000000000000000000012
:105A9400FBFB1BFBF00BFBFB0BBB30BBBBBBFBFFE4
:105AA40000000000000000000000000000000000F2
:105AB400BFBF82BBBB82BBBABB83BBBA83BFBFFFC2
:105AC40000000000000000000000000000000000D2
