:020000040800F2
:100000000050002069010008E5070008F10700081A
:10001000F9070008010800080908000800000000AE
:1000200000000000000000000000000011080008AF
:100030001D08000800000000290800083508000815
:10004000B1010008B1010008B1010008B1010008C8
:10005000B1010008B1010008B1010008B1010008B8
:10006000B1010008B1010008B1010008450800080D
:10007000B1010008B1010008B1010008B101000898
:10008000B1010008B1010008B1010008B101000888
:10009000B1010008B1010008B1010008B101000878
:1000A000B1010008B1010008B1010008B101000868
:1000B000B1010008B1010008B1010008B101000858
:1000C000B1010008B1010008B1010008B101000848
:1000D000B1010008B1010008B1010008B101000838
:1000E000B1010008B1010008B101000800000000E2
:1000F0000000000000000000000000000000000000
:0C01000000000000000000005FF808F1A3
:10010C0010B5054C237833B9044B13B10448AFF345
:10011C0000800123237010BD30040020000000007B
:10012C0044350008084B10B51BB108490848AFF31B
:10013C0000800848036803B910BD074B002BFBD0A7
:10014C00BDE81040184700BF000000003404002038
:10015C00443500083004002000000000002103E0BA
:10016C000B4B5B58435004310A480B4B42189A42D4
:10017C00F6D30A4A02E0002342F8043B084B9A42A9
:10018C00F9D300F063FB03F039F900F00DF8704778
:10019C0098350008000000203004002030040020B6
:1001AC0074090020FEE7000080B500AF00F082FB70
:1001BC0000F010F800F04AF900F02AF900F068F8A5
:1001CC0000F000F900F09EF800F0D2F803F010F9FE
:1001DC00FCE700BF80B594B000AF0123BB624FF4C5
:1001EC008033FB6200233B630123BB6302237B64EC
:1001FC004FF48033BB644FF48013FB6407F1280386
:10020C00184601F017FC0346002B01D000F0AAF9A8
:10021C000F237B610223BB610023FB614FF48063DE
:10022C003B6200237B6207F114030121184602F0A4
:10023C0021FB0346002B01D000F094F912237B60C4
:10024C004FF48043FB604FF480033B613B1D184629
:10025C0002F094FD0346002B01D000F083F902F06C
:10026C003FFD0246094BA3FB02239B09184600F0F5
:10027C0011FF042000F01AFF002200214FF0FF3084
:10028C0000F0DEFE00BF5037BD4680BDD34D62107E
:10029C0080B584B000AF194B194A1A60174B002275
:1002AC009A60164B0022DA60144B00225A61134BF1
:1002BC004FF46022DA61114B00225A600F4B01227D
:1002CC001A610E4800F056FB0346002B01D000F0DB
:1002DC0049F900237B600123BB600023FB603B1DBD
:1002EC001946064800F044FC0346002B01D000F0F0
:1002FC0039F900BF1037BD4680BD00BFEC040020AB
:10030C000024014080B500AF174B184A1A60164BF9
:10031C004FF482725A60144B00229A60124B0022E6
:10032C00DA60114B00221A610F4B00225A610E4BFE
:10033C004FF400729A610C4B0022DA610A4B0022D6
:10034C001A62094B00225A62074B00229A62064B32
:10035C000A22DA62044802F007FE0346002B01D0A1
:10036C0000F000F900BF80BD5404002000380040AC
:10037C0080B500AF114B124A1A60104B4FF4E132AA
:10038C005A600E4B00229A600C4B0022DA600B4B29
:10039C0000221A61094B0C225A61084B00229A6107
:1003AC00064B0022DA61054802F044FE0346002B9E
:1003BC0001D000F0D7F800BF80BD00BFAC04002016
:1003CC000048004080B500AF0F4B104A1A600E4B2E
:1003DC0008225A600C4B02229A600B4B0322DA6003
:1003EC00094B00229A61084B0022DA61064B00226D
:1003FC001A62054801F044FA0346002B01D000F0C4
:10040C00B1F800BF80BD00BF54050020005C004067
:10041C0080B582B000AF0C4A0B4B5B6943F0010313
:10042C005361094B5B6903F001037B607B6800221D
:10043C0000210B2000F004FE0B2000F01DFE00BF7D
:10044C000837BD4680BD00BF0010024080B588B0A3
:10045C0000AF404A3F4B9B6943F0100393613D4B07
:10046C009B6903F01003FB60FB683A4A394B9B69AC
:10047C0043F020039361374B9B6903F02003BB606F
:10048C00BB68344A334B9B6943F004039361314B93
:10049C009B6903F004037B607B682E4A2D4B9B69A0
:1004AC0043F0080393612B4B9B6903F008033B60FB
:1004BC003B68002248F2E011274801F0B7F900220E
:1004CC004FF44771254801F0B1F94FF460433B619B
:1004DC0000237B610023BB6107F110031946204800
:1004EC0001F046F848F2E0133B6101237B610223E3
:1004FC00FB6107F110031946174801F039F84FF466
:10050C0047733B6101237B610223FB6107F11003FD
:10051C001946124801F02CF84FF487533B61002325
:10052C007B610023BB6107F1100319460B4801F0F6
:10053C001FF84FF4C0633B6100237B610023BB6158
:10054C0007F110031946044801F012F800BF2037D8
:10055C00BD4680BD0010024000080140000C014067
:10056C000010014080B400AFFEE700BF80B582B040
:10057C0000AF1E4A1D4B9B6943F0010393611B4B5B
:10058C009B6903F001037B607B68032000F04CFD4A
:10059C00002200216FF00B0000F052FD0022002120
:1005AC006FF00A0000F04CFD002200216FF00900F2
:1005BC0000F046FD002200216FF0040000F040FD29
:1005CC00002200216FF0030000F03AFD0022002110
:1005DC006FF0010000F034FD002200214FF0FF30DD
:1005EC0000F02EFD00BF0837BD4680BD0010024054
:1005FC0080B588B000AF78607B681B68274A93424F
:10060C0047D1274A264B9B6943F400739361244BD3
:10061C009B6903F40073FB60FB681F233B6103239E
:10062C007B6107F1100319461E4800F0A1FF03235C
:10063C003B6103237B6107F1100319461A4800F054
:10064C0097FF1A4B1A4A1A60184B00225A60174B24
:10065C0000229A60154B8022DA60144B4FF48072A2
:10066C001A61124B4FF480625A61104B20229A612E
:10067C000E4B0022DA610D4800F040FD0346002BC2
:10068C0001D0FFF76FFF7B68084A1A62074A7B6844
:10069C00536200BF2037BD4680BD00BF002401401F
:1006AC000010024000080140000C01401C05002015
:1006BC000800024080B588B000AF78607B681B688A
:1006CC00164A934225D1164A154BDB6943F48043F5
:1006DC00D361134BDB6903F48043FB60FB684FF47D
:1006EC0020433B6102237B610323FB6107F1100371
:1006FC0019460C4800F03CFF4FF480433B6100234B
:10070C007B610023BB6107F110031946054800F01B
:10071C002FFF00BF2037BD4680BD00BF0038004012
:10072C0000100240000C014080B588B000AF78602A
:10073C007B681B68164A934225D1164A154BDB6918
:10074C0043F48023D361134BDB6903F48023FB60F8
:10075C00FB684FF480633B6102237B610323FB61E5
:10076C0007F1100319460C4800F002FF4FF4006328
:10077C003B6100237B610023BB6107F11003194629
:10078C00054800F0F5FE00BF2037BD4680BD00BF18
:10079C000048004000100240000C014080B485B0BD
:1007AC0000AF78607B681B68094A93420BD1094AF9
:1007BC00084BDB6943F40003D361064BDB6903F49C
:1007CC000003FB60FB6800BF1437BD4680BC70475C
:1007DC00005C00400010024080B400AF00BFBD467A
:1007EC0080BC704780B400AFFEE700BF80B400AFA0
:1007FC00FEE700BF80B400AFFEE700BF80B400AFDF
:10080C00FEE700BF80B400AF00BFBD4680BC7047A0
:10081C0080B400AF00BFBD4680BC704780B400AF51
:10082C0000BFBD4680BC704780B500AF00F074F8C7
:10083C0000F058FC00BF80BD80B500AF024800F04E
:10084C00A7FC00BF80BD00BF1C05002080B400AF1A
:10085C00154A154B1B6843F0010313601249124BE8
:10086C005A68124B13404B600F4A0F4B1B6823F016
:10087C00847323F4803313600B4A0B4B1B6823F4F3
:10088C0080231360084A084B5B6823F4FE03536013
:10089C00054B4FF41F029A60054B4FF000629A60B3
:1008AC0000BFBD4680BC7047001002400000FFF83E
:1008BC0000ED00E080B500AF084A084B1B6843F020
:1008CC0010031360032000F0AFFB002000F008F8C9
:1008DC00FFF74CFE0023184680BD00BF00200240ED
:1008EC0080B582B000AF786002F0FAF90246094B8D
:1008FC00A3FB02239B09184600F0CCFB002279686D
:10090C004FF0FF3000F09CFB002318460837BD4623
:10091C0080BD00BFD34D621080B400AF044B1B6888
:10092C000133034A136000BFBD4680BC704700BF53
:10093C004C04002080B400AF024B1B681846BD4627
:10094C0080BC70474C04002080B584B000AF786048
:10095C000023FB60FFF7EEFFF86000BFFFF7EAFF34
:10096C000246FB68D21A7B689A42F7D300BF103755
:10097C00BD4680BD80B58CB000AF7860002387F891
:10098C002F300023BB6200233B6200237B627B6819
:10099C00002B01D10123E3E07B689B68002B7B6873
:1009AC009B6A002B09D17B680022DA627B680022EB
:1009BC0083F824207868FFF71BFE786800F034FA7F
:1009CC00034687F82F307B689B6A03F01003002BDB
:1009DC0040F0BB8097F82F30002B40F0B6807B683E
:1009EC009B6A23F4885323F0020343F002027B68D2
:1009FC009A627B685A687B68DB691A437B68D968A2
:100A0C0002237B617B6993FAA3F33B613B69B3FAE5
:100A1C0083F301FA03F313433A6A13433B627B6893
:100A2C009B68B3F5807F03D07B689B68012B02D158
:100A3C004FF4807300E00023BA6A1343BB627B68F7
:100A4C005B69012B24D17B68DB68002B14D17B689C
:100A5C009B695A1E4FF46043FB61FB6993FAA3F345
:100A6C00FB60FB68B3FA83F302FA03F343F400630D
:100A7C00BA6A1343BB620BE07B689B6A43F02002AB
:100A8C007B689A627B68DB6A43F001027B68DA62FE
:100A9C007B681B687A681268526822F46941BA6AEA
:100AAC000A435A607B681A687B681B6899682E4BEE
:100ABC000B40396A0B4393607B689B68B3F5807F6E
:100ACC0003D07B689B68012B0FD17B681B695A1E76
:100ADC004FF47003BB61BB6993FAA3F3BB60BB68B3
:100AEC00B3FA83F302FA03F37B627B681B687A68C0
:100AFC001268D26A22F470017A6A0A43DA627B685D
:100B0C001B689A68194B13403A6A93420BD17B6865
:100B1C000022DA627B689B6A23F0030343F0010234
:100B2C007B689A621AE07B689B6A23F0120343F09D
:100B3C0010027B689A627B68DB6A43F001027B6877
:100B4C00DA62012387F82F3008E07B689B6A43F058
:100B5C0010027B689A62012387F82F3097F82F30A8
:100B6C0018463037BD4680BDFDF7E1FFFE0E1FFF76
:100B7C0090B498B000AF78603960002387F85F308C
:100B8C000023BB607B6893F82430012B01D1022336
:100B9C003EE17B68012283F824203B685B68062BCE
:100BAC0030D87B681B687A681268516B4FF4787286
:100BBC007A657A6D92FAA2F2FA62FA6AB2FA82F263
:100BCC0010463A685268013A02FB00F21F2000FA04
:100BDC0002F2D24311403A6810684FF478727A638B
:100BEC007A6B92FAA2F23A633A6BB2FA82F2144638
:100BFC003A685268013A02FB04F200FA02F20A4324
:100C0C005A6364E03B685B680C2B30D87B681B68CC
:100C1C007A681268116B4FF47872FA64FA6C92FA73
:100C2C00A2F27A627A6AB2FA82F210463A68526892
:100C3C00073A02FB00F21F2000FA02F2D2431140E5
:100C4C003A6810684FF47872BA65BA6D92FAA2F2EB
:100C5C00BA62BA6AB2FA82F214463A685268073A31
:100C6C0002FB04F200FA02F20A431A632FE07B68DB
:100C7C001B687A681268D16A4FF478727A647A6C5D
:100C8C0092FAA2F2FA61FA69B2FA82F210463A6862
:100C9C0052680D3A02FB00F21F2000FA02F2D24316
:100CAC0011403A6810684FF478723A653A6D92FACE
:100CBC00A2F23A623A6AB2FA82F214463A6852687E
:100CCC000D3A02FB04F200FA02F20A43DA623B68C4
:100CDC001B68092B2ED97B681B687A681268D1684F
:100CEC003822FA63FA6B92FAA2F27A617A69B2FA52
:100CFC0082F210463A6812680A3A02FB00F20720A8
:100D0C0000FA02F2D24311403A6890683822BA6471
:100D1C00BA6C92FAA2F2BA61BA69B2FA82F21446C9
:100D2C003A6812680A3A02FB04F200FA02F20A4329
:100D3C00DA602BE07B681B687A68126811693822CC
:100D4C00BA63BA6B92FAA2F2FA60FA68B2FA82F259
:100D5C0010463A68126802FB00F2072000FA02F211
:100D6C00D24311403A68906838223A643A6C92FA4D
:100D7C00A2F23A613A69B2FA82F214463A681268FF
:100D8C0002FB04F200FA02F20A431A613B681B6888
:100D9C00102B03D03B681B68112B33D17B681B686D
:100DAC001E4A934225D17B681B689B6803F40003A1
:100DBC00002B27D17B681B687A681268926842F412
:100DCC0000029A603B681B68102B1BD1144B1B68EC
:100DDC00144AA2FB03239A0C13469B0013445B009A
:100DEC00BB6002E0BB68013BBB60BB68002BF9D168
:100DFC0008E07B689B6A43F020027B689A620123BF
:100E0C0087F85F307B68002283F8242097F85F30E6
:100E1C0018466037BD4690BC704700BF00240140A7
:100E2C000000002083DE1B4380B584B000AF7860E7
:100E3C000023FB607B681B689B6803F00103002B9D
:100E4C0027D07B681B687A681268926822F00102CE
:100E5C009A60FFF76FFDF86014E0FFF76BFD024638
:100E6C00FB68D31A022B0DD97B689B6A43F01002E6
:100E7C007B689A627B68DB6A43F001027B68DA620A
:100E8C00012307E07B681B689B6803F00103002BC0
:100E9C00E3D1002318461037BD4680BD80B485B021
:100EAC0000AF78607B6803F00703FB600C4BDB68DA
:100EBC00BB60BA684FF6FF031340BB60FB681A02B5
:100ECC00BB68134343F0BF6343F40033BB60044A75
:100EDC00BB68D36000BF1437BD4680BC704700BFF1
:100EEC0000ED00E080B400AF044BDB6803F4E0637A
:100EFC001B0A1846BD4680BC704700BF00ED00E0E1
:100F0C0080B483B000AF0346FB71084997F90730F2
:100F1C005B09FA7902F01F02012000FA02F241F893
:100F2C00232000BF0C37BD4680BC704700E100E0B9
:100F3C0080B483B000AF03463960FB7197F907307A
:100F4C00002B0BDA0D49FB7903F00F03043B3A68D5
:100F5C00D2B21201D2B20B441A7609E0084997F9C1
:100F6C0007303A68D2B21201D2B20B4483F8002394
:100F7C0000BF0C37BD4680BC704700BF00ED00E0E1
:100F8C0000E100E080B489B000AFF860B9607A602D
:100F9C00FB6803F00703FB61FB69C3F10703042B38
:100FAC0028BF0423BB61FB690433062B02D9FB6900
:100FBC00033B00E000237B610122BB6902FA03F3CF
:100FCC005A1EBB681A407B699A4001217B6901FA61
:100FDC0003F3591E7B680B40134318462437BD4658
:100FEC0080BC704780B582B000AF78607B68013BF5
:100FFC00B3F1807F01D301230FE00A4A7B68013BE8
:10100C0053600F214FF0FF30FFF792FF054B00228A
:10101C009A60044B07221A60002318460837BD4615
:10102C0080BD00BF10E000E080B582B000AF7860FA
:10103C007868FFF733FF00BF0837BD4680BD00BF9F
:10104C0080B586B000AF0346B9607A60FB730023AD
:10105C007B61FFF747FF78617A68B9687869FFF7B9
:10106C0091FF024697F90F3011461846FFF760FFC3
:10107C0000BF1837BD4680BD80B582B000AF0346B7
:10108C00FB7197F907301846FFF73AFF00BF083796
:10109C00BD4680BD80B582B000AF78607868FFF740
:1010AC00A1FF034618460837BD4680BD80B483B007
:1010BC0000AF78607B68042B06D1094A084B1B688B
:1010CC0043F00403136005E0054A054B1B6823F04D
:1010DC000403136000BF0C37BD4680BC704700BFD3
:1010EC0010E000E080B500AF00F002F800BF80BD5A
:1010FC0080B400AF00BFBD4680BC704780B485B0E3
:10110C0000AF78600023FB607B68002B01D10123CA
:10111C0039E07B6893F82130002B03D17B680022E7
:10112C0083F820207B68022283F821207B681B68CF
:10113C001B68FB60FB6823F47F5323F03003FB60D8
:10114C007B685A687B689B681A437B68DB681A4328
:10115C007B681B691A437B685B691A437B689B69D4
:10116C001A437B68DB691343FA681343FB607B68A3
:10117C001B68FA681A607B6800225A637B6801223C
:10118C0083F82120002318461437BD4680BC7047D5
:10119C0080B582B000AF78608F4B1A687B681B6893
:1011AC0019468E4B99422ED07B681B6819468C4B86
:1011BC00994226D07B681B6819468A4B99421DD0F0
:1011CC007B681B681946884B994214D07B681B6856
:1011DC001946864B99420BD07B681B681946844B89
:1011EC00994202D14FF400030EE04FF000630BE084
:1011FC004FF4002308E04FF4004305E04FF4006384
:10120C0002E0802300E008231340002B5CD07B68B5
:10121C001B681B6803F00803002B55D07B681B6808
:10122C007A681268126822F008021A606A4A7B68AF
:10123C001B681946694B99422ED07B681B6819466E
:10124C00674B994226D07B681B681946654B9942BF
:10125C001DD07B681B681946634B994214D07B6880
:10126C001B681946614B99420BD07B681B68194669
:10127C005F4B994202D14FF400030EE04FF0006334
:10128C000BE04FF4002308E04FF4004305E04FF46B
:10129C00006302E0802300E0082353607B685B6BF3
:1012AC0043F001027B685A637B68042283F8212097
:1012BC007B68002283F820207B681B6B002B03D0FB
:1012CC007B681B6B78689847434B1A687B681B6874
:1012DC001946424B99422ED07B681B681946404BED
:1012EC00994226D07B681B6819463E4B99421DD00B
:1012FC007B681B6819463C4B994214D07B681B6871
:10130C0019463A4B99420BD07B681B681946384BEF
:10131C00994202D14FF480030EE04FF080630BE052
:10132C004FF4802308E04FF4804305E04FF48063D2
:10133C0002E0402300E004231340002B68D07B68BC
:10134C001B681B6803F00403002B61D07B681B68CF
:10135C001B6803F02003002B07D17B681B687A689D
:10136C001268126822F004021A601B4A7B681B6820
:10137C0019461A4B99423DD07B681B681946184B8D
:10138C00994226D07B681B681946164B99421DD092
:10139C007B681B681946144B994214D07B681B68F8
:1013AC001946124B99420BD07B681B681946104B9F
:1013BC00994202D14FF480031DE04FF080631AE094
:1013CC004FF4802317E04FF4804314E04FF4806314
:1013DC0011E040230FE000BF000002400800024073
:1013EC001C00024030000240440002405800024001
:1013FC006C000240042353607B68112283F8212087
:10140C007B68DB6A002B03D07B68DB6A78689847C3
:10141C00504B1A687B681B6819464F4B99422ED06B
:10142C007B681B6819464D4B994226D07B681B681C
:10143C0019464B4B99421DD07B681B681946494B8A
:10144C00994214D07B681B681946474B99420BD0C4
:10145C007B681B681946454B994202D14FF4001327
:10146C000EE04FF000730BE04FF4003308E04FF444
:10147C00005305E04FF4007302E0202300E0022348
:10148C001340002B61D07B681B681B6803F00203C0
:10149C00002B5AD07B681B681B6803F02003002BC1
:1014AC0007D17B681B687A681268126822F0020206
:1014BC001A60284A7B681B681946274B99422ED024
:1014CC007B681B681946254B994226D07B681B68A4
:1014DC001946234B99421DD07B681B681946214B3A
:1014EC00994214D07B681B6819461F4B99420BD04C
:1014FC007B681B6819461D4B994202D14FF40013AF
:10150C000EE04FF000730BE04FF4003308E04FF4A3
:10151C00005305E04FF4007302E0202300E00223A7
:10152C0053607B685A6B7B685A637B68012283F833
:10153C0021207B68002283F820207B689B6A002B8B
:10154C0003D07B689B6A7868984700BF0837BD4614
:10155C0080BD00BF00000240080002401C00024099
:10156C003000024044000240580002406C0002402F
:10157C0080B48BB000AF786039600023FB6100232E
:10158C00BB6100237B6100233B6200233B61002392
:10159C007B6227E101227B6A02FA03F3FB613B6861
:1015AC001A68FB691340BB61BA69FB699A4240F047
:1015BC0016813B685B68122B34D0122B0DD8022B92
:1015CC002BD0022B04D8002B31D0012B1CD048E09F
:1015DC00032B43D0112B1BD043E0874A934226D0D8
:1015EC00854A934206D8854A934220D0844A934236
:1015FC001DD036E0834A934219D0834A934216D0C9
:10160C00824A934213D02CE03B68DB683B6228E0B3
:10161C003B68DB6804333B6223E03B68DB680833E0
:10162C003B621EE03B68DB680C333B6219E03B68B5
:10163C009B68002B02D104233B6212E03B689B6841
:10164C00012B05D108233B627B68FA691A6108E01B
:10165C0008233B627B68FA695A6102E000233B6213
:10166C0000BFBB69FF2B01D87B6801E07B680433AA
:10167C00FB60BB69FF2B02D87B6A9B0002E07B6A94
:10168C00083B9B003B61FB681A680F213B6901FA20
:10169C0003F3DB431A40396A3B6901FA03F31A433B
:1016AC00FB681A603B685B6803F08053002B00F00A
:1016BC009680574A564B9B6943F001039361544BF8
:1016CC009B6903F00103BB60BB68524A7B6A9B08B1
:1016DC00023352F823307B617B6A03F003039B00D7
:1016EC000F2202FA03F3DB437A6913407B617B68B8
:1016FC00494A934213D07B68484A93420DD07B6889
:10170C00474A934207D07B68464A934201D1032350
:10171C0006E0042304E0022302E0012300E000239E
:10172C007A6A02F00302920093407A6913437B6158
:10173C0038497B6A9B0802337A6941F823203B685D
:10174C005B6803F48033002B06D03749364B1A689C
:10175C00BB6913430B6006E03349334B1A68BB6912
:10176C00DB4313400B603B685B6803F40033002BD6
:10177C0006D02D492C4B5A68BB6913434B6006E0CD
:10178C002949294B5A68BB69DB4313404B603B68C2
:10179C005B6803F48013002B06D02349224B9A6814
:1017AC00BB6913438B6006E01F491F4B9A68BB69EA
:1017BC00DB4313408B603B685B6803F40013002B26
:1017CC0006D01949184BDA68BB691343CB6006E0A5
:1017DC001549154BDA68BB69DB431340CB607B6A58
:1017EC0001337B627B6A0F2B7FF6D4AE00BF2C37A4
:1017FC00BD4680BC704700BF0000211000001110D6
:10180C0000001210000031100000321000002210F5
:10181C00001002400000014000080140000C014093
:10182C0000100140001401400004014080B483B05A
:10183C0000AF78600B467B8013467B707B78002B67
:10184C0003D07A887B681A6103E07B881A047B6872
:10185C001A6100BF0C37BD4680BC704780B483B0A2
:10186C0000AF78600B467B807B68DA687B885A40D7
:10187C007B68DA6000BF0C37BD4680BC704700BF88
:10188C00F0B58BB006AF78600023FB607B68002B53
:10189C0001D10123CAE07B6893F8E933DBB2002B5A
:1018AC0006D17B68002283F8E8237868FEF776FF80
:1018BC007B68032283F8E9237B681B68184601F0D8
:1018CC0029FD7B681B683B607E686D4606F1100441
:1018DC000FCC0FC523682B60331D0ECB386801F07D
:1018EC0009FD7B681B680021184601F02FFD0023C1
:1018FC00FB6037E07A68FB685B01134429330122F3
:10190C001A70FB68D9B27A68FB685B011344283300
:10191C000A461A70FB6899B27A68FB685B0113443B
:10192C0034330A461A807A68FB685B0113442B3304
:10193C0000221A707A68FB685B011344383300226A
:10194C001A607A68FB685B0113443C3300221A600E
:10195C007A68FB6802335B01134400221A60FB684F
:10196C000133FB60FB680E2BC4D90023FB603CE009
:10197C007A68FB685B01134403F2092300221A7096
:10198C00FB68D9B27A68FB685B01134403F50273F8
:10199C000A461A70FB6899B27A68FB685B011344BB
:1019AC0034330A461A807A68FB685B01134403F2ED
:1019BC000B2300221A707A68FB685B01134403F551
:1019CC00067300221A607A68FB685B01134403F506
:1019DC00077300221A607A68FB6811335B011344A9
:1019EC0000221A60FB680133FB60FB680E2BBFD929
:1019FC007B681B683B607E686D4606F110040FCC5B
:101A0C000FC523682B60331D0ECB386801F0AAFC80
:101A1C007B68002283F824207B68012283F8E92369
:101A2C007B681B68184601F0BDFC00231846143770
:101A3C00BD46F0BD90B5E5B000AF3B1D186000236E
:101A4C00C7F88C313B1D1B681B6803F00103002B8E
:101A5C0000F07581B84B5B6803F00C03042B0BD0C2
:101A6C00B54B5B6803F00C03082B5FD1B24B5B6882
:101A7C0003F48033002B59D04FF40033C7F8CC302B
:101A8C00D7F8CC3093FAA3F3C7F8C830D7F8C830DE
:101A9C00B3FA83F35BB243F020035BB2DBB25B09B6
:101AAC00DBB2012B02D1A44B1B681BE04FF40033BB
:101ABC00C7F87031D7F8703193FAA3F3C7F8C43074
:101ACC00D7F8C430B3FA83F35BB243F020035BB2B4
:101ADC00DBB25B09DBB2022B02D1974B1B6A01E034
:101AEC00954B5B6A4FF40032C7F86C21D7F86C2128
:101AFC0092FAA2F2C7F8C020D7F8C020B2FA82F24C
:101B0C0052B242F0200252B2D2B202F01F02D340C3
:101B1C0003F00103002B00F011813B1D1B685B6877
:101B2C00002B40F00B81012300F09DBE3B1D1B6878
:101B3C005B68B3F5803F06D17F4A7F4B1B6843F44B
:101B4C008033136030E03B1D1B685B68002B0CD1AD
:101B5C00794A794B1B6823F480331360764A764BB1
:101B6C001B6823F4802313601EE03B1D1B685B681D
:101B7C00B3F5A02F0CD1704A6F4B1B6843F4802334
:101B8C0013606D4A6C4B1B6843F4803313600BE09D
:101B9C00694A694B1B6823F480331360664A664BB1
:101BAC001B6823F4802313603B1D1B685B68002BB0
:101BBC0060D0FEF7BFFEC7F88C010AE0FEF7BAFE54
:101BCC000246D7F88C31D31A642B02D9032300F0C8
:101BDC004ABE4FF40033C7F86831D7F8683193FA2E
:101BEC00A3F3C7F8BC30D7F8BC30B3FA83F35BB2BD
:101BFC0043F020035BB2DBB25B09DBB2012B02D1F9
:101C0C004D4B1B681BE04FF40033C7F88831D7F8F5
:101C1C00883193FAA3F3C7F8B830D7F8B830B3FAD1
:101C2C0083F35BB243F020035BB2DBB25B09DBB244
:101C3C00022B02D1404B1B6A01E03F4B5B6A4FF415
:101C4C000032C7F88421D7F8842192FAA2F2C7F89F
:101C5C00B420D7F8B420B2FA82F252B242F0200289
:101C6C0052B2D2B202F01F02D34003F00103002B98
:101C7C00A4D064E0FEF75EFEC7F88C010AE0FEF724
:101C8C0059FE0246D7F88C31D31A642B02D90323A0
:101C9C0000F0E9BD4FF40033C7F88031D7F880313C
:101CAC0093FAA3F3C7F8B030D7F8B030B3FA83F394
:101CBC005BB243F020035BB2DBB25B09DBB2012BFE
:101CCC0002D11D4B1B681BE04FF40033C7F87C316D
:101CDC00D7F87C3193FAA3F3C7F8AC30D7F8AC3013
:101CEC00B3FA83F35BB243F020035BB2DBB25B0964
:101CFC00DBB2022B02D1104B1B6A01E00E4B5B6A6C
:101D0C004FF40032C7F87821D7F8782192FAA2F272
:101D1C00C7F8A820D7F8A820B2FA82F252B242F043
:101D2C00200252B2D2B202F01F02D34003F00103E0
:101D3C00002BA4D103E000BF0010024000BF3B1DEC
:101D4C001B681B6803F00203002B00F09881BC4B4E
:101D5C005B6803F00C03002B0BD0B94B5B6803F0F2
:101D6C000C03082B74D1B64B5B6803F48033002B47
:101D7C006ED10223C7F87431D7F8743193FAA3F3F8
:101D8C00C7F8A430D7F8A430B3FA83F35BB243F0AE
:101D9C0020035BB2DBB25B09DBB2012B02D1A84B97
:101DAC001B681AE00223C7F84031D7F8403193FA88
:101DBC00A3F3C7F8A030D7F8A030B3FA83F35BB223
:101DCC0043F020035BB2DBB25B09DBB2022B02D126
:101DDC009B4B1B6A01E09A4B5B6A0222C7F83C21C1
:101DEC00D7F83C2192FAA2F2C7F89C20D7F89C2095
:101DFC00B2FA82F252B242F0200252B2D2B202F0E5
:101E0C001F02D34003F00103002B07D03B1D1B68BE
:101E1C001B69012B02D0012300F025BD8848884B9B
:101E2C001B6823F0F8023B1D1B685969F823C7F89F
:101E3C003831D7F8383193FAA3F3C7F89830D7F87C
:101E4C009830B3FA83F301FA03F31343036016E1FA
:101E5C003B1D1B681B69002B00F094800123C7F805
:101E6C003431D7F8343193FAA3F3C7F89430D7F858
:101E7C009430B3FA83F39B0003F1844303F584039A
:101E8C001A4601231360FEF755FDC7F88C010AE0D2
:101E9C00FEF750FD0246D7F88C31D31A022B02D92B
:101EAC00032300F0E0BC0223C7F86431D7F8643197
:101EBC0093FAA3F207F190031A6007F190031B68E1
:101ECC00B3FA83F35BB243F020035BB2DBB25B0982
:101EDC00DBB2012B02D15A4B1B681CE00223C7F862
:101EEC006031D7F8603193FAA3F207F18C031A60D2
:101EFC0007F18C031B68B3FA83F35BB243F0200346
:101F0C005BB2DBB25B09DBB2022B02D14C4B1B6A1E
:101F1C0001E04B4B5B6A0222C7F85C21D7F85C21CD
:101F2C0092FAA2F107F18802116007F18802126897
:101F3C00B2FA82F252B242F0200252B2D2B202F0A3
:101F4C001F02D34003F00103002BA1D03C4C3C4BAF
:101F5C001B6823F0F8023B1D1B685969F823C7F86E
:101F6C005831D7F8583193FAA3F007F1840318606D
:101F7C0007F184031B68B3FA83F301FA03F31343E9
:101F8C0023607CE00123C7F85431D7F8543193FA1D
:101F9C00A3F207F180031A6007F180031B68B3FA00
:101FAC0083F39B0003F1844303F584031A46002357
:101FBC001360FEF7BFFCC7F88C010AE0FEF7BAFC11
:101FCC000246D7F88C31D31A022B02D9032300F026
:101FDC004ABC0223C7F85031D7F8503193FAA3F218
:101FEC0007F17C031A6007F17C031B68B3FA83F3D7
:101FFC005BB243F020035BB2DBB25B09DBB2012BBB
:10200C0002D10F4B1B681FE00223C7F84C31D7F8E5
:10201C004C3193FAA3F207F178031A6007F17803B5
:10202C001B68B3FA83F35BB243F020035BB2DBB201
:10203C005B09DBB2022B05D1014B1B6A04E000BF2C
:10204C0000100240B74B5B6A0222C7F84821D7F850
:10205C00482192FAA2F107F17402116007F174029F
:10206C001268B2FA82F252B242F0200252B2D2B2EA
:10207C0002F01F02D34003F00103002B9ED13B1D45
:10208C001B681B6803F00803002B00F0F9803B1D54
:10209C001B689B69002B7BD00123C7F84431D7F810
:1020AC00443193FAA3F207F170031A6007F170033D
:1020BC001B68B3FA83F39B001A469B4B13441A46D6
:1020CC0001231360FEF736FCC7F88C0109E0FEF71C
:1020DC0031FC0246D7F88C31D31A022B01D90323D9
:1020EC00C1E30223C7F83031D7F8303193FAA3F2A9
:1020FC0007F16C031A6007F16C031B68B3FA83F3E6
:10210C005BB243F060035BB2DBB25B09DBB2012B69
:10211C0002D1844B1B681CE00223C7F82C31D7F882
:10212C002C3193FAA3F207F168031A6007F16803E4
:10213C001B68B3FA83F35BB243F060035BB2DBB2B0
:10214C005B09DBB2022B02D1764B1B6A01E0754BAB
:10215C005B6A0222C7F82821D7F8282192FAA2F14B
:10216C0007F16402116007F164021268B2FA82F29C
:10217C0052B242F0600252B2D2B202F01F02D3400D
:10218C0003F00103002BA2D00120FEF7DDFB77E06A
:10219C000123C7F82431D7F8243193FAA3F207F1BD
:1021AC0060031A6007F160031B68B3FA83F39B00AA
:1021BC001A465D4B13441A4600231360FEF7BAFB14
:1021CC00C7F88C0109E0FEF7B5FB0246D7F88C3155
:1021DC00D31A022B01D9032345E30223C7F820317C
:1021EC00D7F8203193FAA3F207F15C031A6007F1D8
:1021FC005C031B68B3FA83F35BB243F060035BB21E
:10220C00DBB25B09DBB2012B02D1464B1B681CE035
:10221C000223C7F81C31D7F81C3193FAA3F207F14B
:10222C0058031A6007F158031B68B3FA83F35BB2C7
:10223C0043F060035BB2DBB25B09DBB2022B02D171
:10224C00384B1B6A01E0374B5B6A0222C7F8182136
:10225C00D7F8182192FAA2F107F15402116007F194
:10226C0054021268B2FA82F252B242F0600252B2D6
:10227C00D2B202F01F02D34003F00103002BA2D113
:10228C003B1D1B681B6803F00403002B00F03C8112
:10229C00244A244BDB6943F08053D361214BDB6927
:1022AC0003F0805207F108031A6007F108031B685A
:1022BC001E4A1E4B1B6843F480731360FEF73AFBF7
:1022CC00C7F88C0109E0FEF735FB0246D7F88C31D4
:1022DC00D31A642B01D90323C5E2144B1B6803F4F6
:1022EC008073002BEFD03B1D1B68DB68012B06D1E4
:1022FC000C4A0C4B1B6A43F00103136236E03B1D86
:10230C001B68DB68002B13D1064A064B1B6A23F0B3
:10231C0001031362034A034B1B6A23F00403136289
:10232C0024E000BF001002408004424200700040D4
:10233C003B1D1B68DB68052B0CD1AC4AAB4B1B6AF5
:10234C0043F004031362A94AA84B1B6A43F0010330
:10235C0013620BE0A54AA54B1B6A23F00103136221
:10236C00A24AA24B1B6A23F0040313623B1D1B6899
:10237C00DB68002B64D0FEF7DDFAC7F88C010BE0AC
:10238C00FEF7D8FA0246D7F88C31D31A41F28832CC
:10239C00934201D9032366E20223C7F81431D7F81C
:1023AC00143193FAA3F207F150031A6007F15003AA
:1023BC001B68B3FA83F35BB243F040035BB2DBB24E
:1023CC005B09DBB2012B02D1884B1B681CE002239A
:1023DC00C7F81031D7F8103193FAA3F207F14C0378
:1023EC001A6007F14C031B68B3FA83F35BB243F03A
:1023FC0040035BB2DBB25B09DBB2022B02D17B4B3D
:10240C001B6A01E0794B5B6A0222C7F80C21D7F8F2
:10241C000C2192FAA2F107F14802116007F148026F
:10242C001268B2FA82F252B242F0400252B2D2B206
:10243C0002F01F02D34003F00103002BA0D063E095
:10244C00FEF778FAC7F88C010BE0FEF773FA024638
:10245C00D7F88C31D31A41F28832934201D9032335
:10246C0001E20223C7F80831D7F8083193FAA3F236
:10247C0007F144031A6007F144031B68B3FA83F3B2
:10248C005BB243F040035BB2DBB25B09DBB2012B06
:10249C0002D1564B1B681CE00223C7F80431D7F855
:1024AC00043193FAA3F207F140031A6007F14003D9
:1024BC001B68B3FA83F35BB243F040035BB2DBB24D
:1024CC005B09DBB2022B02D1484B1B6A01E0474B84
:1024DC005B6A0222C7F80021D7F8002192FAA2F118
:1024EC0007F13C02116007F13C021268B2FA82F269
:1024FC0052B242F0400252B2D2B202F01F02D340AA
:10250C0003F00103002BA0D13B1D1B68DB69002BE2
:10251C0000F0A881354B5B6803F00C03082B00F02E
:10252C009F813B1D1B68DB69022B40F01B814FF028
:10253C008073C7F8FC30D7F8FC3093FAA3F207F19C
:10254C0038031A6007F138031B68B3FA83F39B0056
:10255C0003F1844303F584031A4600231360FEF74A
:10256C00E9F9C7F88C0109E0FEF7E4F90246D7F85F
:10257C008C31D31A022B01D9032374E14FF0007371
:10258C00C7F8F830D7F8F83093FAA3F207F1340310
:10259C001A6007F134031B68B3FA83F35BB243F0A0
:1025AC0020035BB2DBB25B09DBB2012B02D10F4B18
:1025BC001B681FE04FF00073C7F8F430D7F8F43005
:1025CC0093FAA3F207F130031A6007F130031B688A
:1025DC00B3FA83F35BB243F020035BB2DBB25B096B
:1025EC00DBB2022B04D1014B1B6A03E0001002404A
:1025FC009F4B5B6A4FF00072C7F8F020D7F8F020C1
:10260C0092FAA2F107F12C02116007F12C02126868
:10261C00B2FA82F252B242F0200252B2D2B202F0BC
:10262C001F02D34003F00103002B9DD13B1D1B68FF
:10263C001B6AB3F5803F09D18D498D4B5B6823F440
:10264C0000323B1D1B689B6813434B608848884BCA
:10265C005B6823F474123B1D1B68196A3B1D1B68D5
:10266C005B6A0B43134343604FF08073C7F8EC3045
:10267C00D7F8EC3093FAA3F207F128031A6007F1AC
:10268C0028031B68B3FA83F39B0003F1844303F51F
:10269C0084031A4601231360FEF74CF9C7F88C012A
:1026AC0009E0FEF747F90246D7F88C31D31A022B12
:1026BC0001D90323D7E04FF00073C7F8E830D7F8FF
:1026CC00E83093FAA3F207F124031A6007F124030C
:1026DC001B68B3FA83F35BB243F020035BB2DBB24B
:1026EC005B09DBB2012B02D1614B1B681DE04FF083
:1026FC000073C7F8E430D7F8E43093FAA3F207F18B
:10270C0020031A6007F120031B68B3FA83F35BB252
:10271C0043F020035BB2DBB25B09DBB2022B02D1CC
:10272C00534B1B6A01E0524B5B6A4FF00072C7F8C7
:10273C00E020D7F8E02092FAA2F107F11C02116018
:10274C0007F11C021268B2FA82F252B242F0200275
:10275C0052B2D2B202F01F02D34003F00103002B9D
:10276C009FD07FE04FF08073C7F8DC30D7F8DC30B7
:10277C0093FAA3F207F118031A6007F118031B6808
:10278C00B3FA83F39B0003F1844303F584031A46E5
:10279C0000231360FEF7CEF8C7F88C0109E0FEF7B2
:1027AC00C9F80246D7F88C31D31A022B01D903236E
:1027BC0059E04FF00073C7F8D830D7F8D83093FAF7
:1027CC00A3F207F114031A6007F114031B68B3FAA0
:1027DC0083F35BB243F020035BB2DBB25B09DBB289
:1027EC00012B02D1224B1B681DE04FF00073C7F880
:1027FC00D430D7F8D43093FAA3F207F110031A604F
:10280C0007F110031B68B3FA83F35BB243F02003A8
:10281C005BB2DBB25B09DBB2022B02D1144B1B6A3D
:10282C0001E0134B5B6A4FF00072C7F8D020D7F869
:10283C00D02092FAA2F107F10C02116007F10C0200
:10284C001268B2FA82F252B242F0200252B2D2B202
:10285C0002F01F02D34003F00103002B9FD101E0D3
:10286C00012300E00023184607F5CA77BD4690BD4A
:10287C000010024080B598B000AF7860396000233A
:10288C00FB65A54B1B6803F007023B689A4210D20C
:10289C00A149A14B1B6823F007023B6813430B6053
:1028AC009D4B1B6803F007023B689A4201D0012341
:1028BC008FE17B681B6803F00203002B08D097495B
:1028CC00964B5B6823F0F0027B689B6813434B606C
:1028DC007B681B6803F00103002B00F027817B68E9
:1028EC005B68012B46D14FF400337B637B6B93FA0F
:1028FC00A3F33B633B6BB3FA83F35BB243F020036C
:10290C005BB2DBB25B09DBB2012B02D1834B1B68E0
:10291C0017E04FF40033BB65BB6D93FAA3F3FB6276
:10292C00FB6AB3FA83F35BB243F020035BB2DBB216
:10293C005B09DBB2022B02D1784B1B6A01E0774BAF
:10294C005B6A4FF400327A657A6D92FAA2F2BA623F
:10295C00BA6AB2FA82F252B242F0200252B2D2B247
:10296C0002F01F02D34003F00103002B40F08F80D4
:10297C0001232EE17B685B68022B45D14FF000737D
:10298C003B653B6D93FAA3F37B627B6AB3FA83F3EB
:10299C005BB243F020035BB2DBB25B09DBB2012B11
:1029AC0002D15E4B1B6817E04FF00073FB64FB6CAD
:1029BC0093FAA3F33B623B6AB3FA83F35BB243F043
:1029CC0020035BB2DBB25B09DBB2022B02D1534BAF
:1029DC001B6A01E0514B5B6A4FF00072BA64BA6C2F
:1029EC0092FAA2F2FA61FA69B2FA82F252B242F0A7
:1029FC00200252B2D2B202F01F02D34003F0010304
:102A0C00002B44D10123E4E002237B647B6C93FA1A
:102A1C00A3F3BB61BB69B3FA83F35BB243F020034E
:102A2C005BB2DBB25B09DBB2012B02D13B4B1B6807
:102A3C0016E002233B643B6C93FAA3F37B617B6946
:102A4C00B3FA83F35BB243F020035BB2DBB25B09F6
:102A5C00DBB2022B02D1314B1B6A01E02F4B5B6ABC
:102A6C000222FA63FA6B92FAA2F23A613A69B2FA6A
:102A7C0082F252B242F0200252B2D2B202F01F02E3
:102A8C00D34003F00103002B01D10123A1E0234922
:102A9C00224B5B6823F003027B685B6813434B603B
:102AAC00FDF748FFF8657B685B68012B12D10AE0E3
:102ABC00FDF740FF0246FB6DD31A41F28832934278
:102ACC0001D9032385E0154B5B6803F00C03042B41
:102ADC00EED12BE07B685B68022B21D10AE0FDF77D
:102AEC0029FF0246FB6DD31A41F28832934201D979
:102AFC0003236EE0094B5B6803F00C03082BEED14B
:102B0C0014E0FDF717FF0246FB6DD31A41F2883231
:102B1C00934205D903235CE00020024000100240E0
:102B2C002E4B5B6803F00C03002BEAD12C4B1B687B
:102B3C0003F007023B689A4210D92949284B1B68BD
:102B4C0023F007023B6813430B60254B1B6803F013
:102B5C0007023B689A4201D001233AE07B681B686C
:102B6C0003F00403002B08D01C491C4B5B6823F4B6
:102B7C00E0627B68DB6813434B607B681B6803F087
:102B8C000803002B09D01549144B5B6823F46052E1
:102B9C007B681B69DB0013434B6000F027F8014690
:102BAC000E4B5B6803F0F002F023BB63BB6B93FA34
:102BBC00A3F3FB60FB68B3FA83F322FA03F3094A2D
:102BCC00D35C21FA03F3084A13600020FDF788FE5A
:102BDC00002318466037BD4680BD00BF0010024080
:102BEC0000200240703500080000002090B48EB028
:102BFC0000AF364B3C1D186859689A68DB680FC4E7
:102C0C00334A3B4612881A800023FB620023BB62C6
:102C1C0000237B6300237B6200233B632D4B5B68AB
:102C2C00FB62FB6A03F00C03042B02D0082B03D0CD
:102C3C0043E0294B3B6343E0FB6A03F470124FF40F
:102C4C007013FB61FB6993FAA3F3BB61BB69B3FA25
:102C5C0083F322FA03F307F13802134413F8343CDC
:102C6C007B62FB6A03F48033002B1ED0194B5B682C
:102C7C0003F400324FF400333B623B6A93FAA3F344
:102C8C007B617B69B3FA83F322FA03F307F1380211
:102C9C00134413F8383CBB620F4ABB6AB2FBF3F324
:102CAC007A6A02FB03F37B6304E07B6A0B4A02FB48
:102CBC0003F37B637B6B3B6302E0074B3B6300BF1F
:102CCC003B6B18463837BD4690BC70475C350008E6
:102CDC006C3500080010024000127A0000093D001B
:102CEC0080B400AF024B1B681846BD4680BC7047D1
:102CFC000000002080B582B000AFFFF7F1FF014665
:102D0C000B4B5B6803F4E0624FF4E0637B607B6821
:102D1C0093FAA3F33B603B68B3FA83F322FA03F311
:102D2C00044AD35C21FA03F318460837BD4680BD2C
:102D3C00001002408035000880B582B000AFFFF76C
:102D4C00CFFF01460B4B5B6803F460524FF46053AA
:102D5C007B607B6893FAA3F33B603B68B3FA83F325
:102D6C0022FA03F3044AD35C21FA03F3184608371A
:102D7C00BD4680BD001002408035000880B590B083
:102D8C0000AF78600023FB630023BB637B681B6888
:102D9C0003F00103002B00F0BD80704A6F4BDB6920
:102DAC0043F08053D3616D4BDB6903F08053FB60C0
:102DBC00FB686B4A6A4B1B6843F480731360FDF726
:102DCC00B9FDF86308E0FDF7B5FD0246FB6BD31ABD
:102DDC00642B01D90323BCE0614B1B6803F48073A3
:102DEC00002BF0D05D4B1B6A03F44073BB63BB6BD1
:102DFC00002B00F086807B685B6803F44072BB6B31
:102E0C009A427ED0554B1B6A23F44073BB634FF43C
:102E1C0080333B633B6B93FAA3F3FB61FB69B3FA1F
:102E2C0083F39B001A464F4B13441A46012313603D
:102E3C004FF480337B627B6A93FAA3F33B623B6A69
:102E4C00B3FA83F39B001A46464B13441A460023ED
:102E5C001360424ABB6B1362BB6B03F00103002B84
:102E6C004FD0FDF767FDF8630AE0FDF763FD0246FE
:102E7C00FB6BD31A41F28832934201D9032368E0E9
:102E8C0002237B637B6B93FAA3F3BB61BB69B3FA3D
:102E9C0083F35BB243F040035BB2DBB25B09DBB2A2
:102EAC00012B02D12D4B1B6816E00223FB62FB6A3F
:102EBC0093FAA3F37B617B69B3FA83F35BB243F0C0
:102ECC0040035BB2DBB25B09DBB2022B02D1234BBA
:102EDC001B6A01E0214B5B6A0222BA62BA6A92FA5F
:102EEC00A2F23A613A69B2FA82F252B242F040026C
:102EFC0052B2D2B202F01F02D34003F00103002BF6
:102F0C00B3D01649154B1B6A23F440727B685B687F
:102F1C0013430B627B681B6803F00203002B08D081
:102F2C000E490E4B5B6823F440427B689B6813434D
:102F3C004B607B681B6803F01003002B08D007491B
:102F4C00064B5B6823F480027B68DB6813434B60A1
:102F5C00002318464037BD4680BD00BF001002401C
:102F6C00007000400004424280B582B000AF78602F
:102F7C007B68002B01D1012356E07B6893F851301C
:102F8C00DBB2002B02D17868FDF794FB7B68022240
:102F9C0083F851207B681B687A681268126822F0EB
:102FAC0040021A607B681B687A6851687A6892687C
:102FBC0011437A68D26811437A68126911437A68AE
:102FCC00526911437A68926902F4007211437A686B
:102FDC00D26911437A68126A11437A68926A0A4379
:102FEC001A607B681B687A689269120C02F0040103
:102FFC007A68526A0A435A607B681B687A68D26A9C
:10300C001A617B681B687A681268D26922F40062C4
:10301C00DA61074B00221A707B6800225A657B68C4
:10302C00012283F85120002318460837BD4680BD85
:10303C005004002080B582B000AF78607B68002B14
:10304C0001D101233BE07B6893F83930DBB2002BD4
:10305C0006D17B68002283F838207868FDF764FB82
:10306C007B68022283F839207B681B687A681268B7
:10307C00D26822F40052DA60786800F025F87B6898
:10308C001B687A681268126922F490421A617B6894
:10309C001B687A681268526922F02A025A617B68AE
:1030AC001B687A681268D26842F40052DA607B6856
:1030BC000022DA637B68012283F83920002318464A
:1030CC000837BD4680BD00BFF0B585B000AF786055
:1030DC000023FB607B681B687A681268126922F413
:1030EC0040517A68D2680A431A617B689A687B6897
:1030FC001B691A437B685B691343FB607B681A6826
:10310C007B681B68DB6823F4B05323F00C03F9686D
:10311C000B43D3607B681B687A681268526922F48F
:10312C0040717A6892690A435A617B681B686F4ADE
:10313C0093426BD17B681C68FFF7FEFD0246134679
:10314C009B0013449A001A447B685B689B00B2FB9B
:10315C00F3F3674AA2FB03235B091D01FFF7ECFDA8
:10316C00024613469B0013449A001A447B685B6822
:10317C009B00B2FBF3F6FFF7DFFD024613469B0004
:10318C0013449A001A447B685B689B00B2FBF3F310
:10319C00574AA2FB03235B09642202FB03F3F31AD5
:1031AC001B013233524AA2FB03235B0903F0F003E9
:1031BC001D44FFF7C1FD024613469B0013449A00C1
:1031CC001A447B685B689B00B2FBF3F6FFF7B4FD17
:1031DC00024613469B0013449A001A447B685B68B2
:1031EC009B00B2FBF3F3424AA2FB03235B0964226C
:1031FC0002FB03F3F31A1B0132333D4AA2FB0323F8
:10320C005B0903F00F032B44A3606AE07B681C6826
:10321C00FFF770FD024613469B0013449A001A44B4
:10322C007B685B689B00B2FBF3F3314AA2FB032380
:10323C005B091D01FFF75EFD024613469B0013441C
:10324C009A001A447B685B689B00B2FBF3F6FFF7AD
:10325C0051FD024613469B0013449A001A447B68A6
:10326C005B689B00B2FBF3F3214AA2FB03235B09CF
:10327C00642202FB03F3F31A1B0132331C4AA2FB38
:10328C0003235B0903F0F0031D44FFF733FD0246F3
:10329C0013469B0013449A001A447B685B689B009E
:1032AC00B2FBF3F6FFF726FD024613469B001344D0
:1032BC009A001A447B685B689B00B2FBF3F30C4AE0
:1032CC00A2FB03235B09642202FB03F3F31A1B0129
:1032DC003233074AA2FB03235B0903F00F032B4491
:1032EC00A36000BF1437BD46F0BD00BF00380140DD
:1032FC001F85EB5184B080B483B000AF786007F1C8
:10330C00140080E80E00002318460C37BD4680BC24
:10331C0004B0704780B485B000AF78600023FB60C8
:10332C004FF43D43FB607B68B3F840309AB2FB68C6
:10333C009BB2DB439BB213409AB27B68A3F840204C
:10334C00002318461437BD4680BC704780B483B048
:10335C0000AF78600B46FB70002318460C37BD4657
:10336C0080BC704784B080B483B000AF786007F144
:10337C00140080E80E007B680122A3F840207B68D3
:10338C000022A3F840207B680022A3F844207B682D
:10339C000022A3F85020002318460C37BD4680BCF1
:1033AC0004B0704780B483B000AF78600023184637
:1033BC000C37BD4680BC704780B582B000AF7860DA
:1033CC007868FDF7C1FA00BF0837BD4680BD00BF65
:1033DC0080B500AF4FF480710448FEF73FFA4FF40C
:1033EC00FA70FFF7E9FF00BF80BD00BF0008014085
:1033FC0080B500AFFFF7ECFFFCE700BF70B50F4ED8
:10340C000F4D761BB61018BF002405D0013455F8AB
:10341C00043B9847A642F9D10A4E0B4D00F08CF8AC
:10342C00761BB61018BF002406D0013455F8043BA7
:10343C009847A642F9D170BD70BD00BF8C3500080D
:10344C008C350008943500088C350008024B13B1FC
:10345C00024800F005B870470000000079340008FD
:10346C00002301461A46184600F014B838B5074D2B
:10347C00074C2C1BA41005D0013C55F8043D984773
:10348C00002CF9D1BDE8384000F05CB89835000844
:10349C00943500082DE9F047254C064625688846EA
:1034AC00D5F8484192469946C4B360681F2817DC8A
:1034BC00411C76B104EB8003C3F888A0D4F8885182
:1034CC00012282401543022EC4F88851C3F808919A
:1034DC001ED0831C6160002044F82380BDE8F08777
:1034EC00144B03B34FF4C870AFF300800446D0B153
:1034FC00D5F84831002784E888003846C5F848419B
:10350C000121C4F88871C4F88C71002EE1D0D1E788
:10351C00D4F88C311A43C4F88C21DAE705F5A6747B
:10352C00C5F84841C1E74FF0FF30BDE8F08700BF58
:10353C008835000800000000F8B500BFF8BC08BCD6
:10354C009E467047F8B500BFF8BC08BC9E46704755
:10355C0002030405060708090A0B0C0D0E0F1010C8
:10356C000102000000000000000000000102030442
:10357C0006070809000000000102030408000020EF
:08358C00593400083101000868
:043594000D0100081D
:1035980000A24A040000000000000000F40200201D
:1035A8005C030020C40300200000000000000000AD
:1035B8000000000000000000000000000000000003
:1035C80000000000000000000000000000000000F3
:1035D80000000000000000000000000000000000E3
:1035E80000000000000000000000000000000000D3
:1035F80000000000000000000000000000000000C3
:1036080000000000000000000000000000000000B2
:1036180000000000000000000000000000000000A2
:103628000000000000000000000000000000000092
:103638000000000000000000000000000000000082
:1036480001000000000000000E33CDAB34126DE61F
:10365800ECDE05000B000000000000000000000088
:103668000000000000000000000000000000000052
:103678000000000000000000000000000000000042
:103688000000000000000000000000000000000032
:103698000000000000000000000000000000000022
:040000050800016985
:00000001FF
