:020000040800F2
:20000000C01500200D020008150200081702000819020008C91300081D0200080000000066
:200020000000000000000000000000001F020008210200080000000023020008954A000858
:20004000270200082702000827020008270200082702000827020008270200082702000818
:2000600027020008270200082702000827020008751A000827020008270200082702000892
:2000800027020008270200082702000827020008A55000082702000827020008270200080C
:2000A0002702000827020008270200082702000827020008270200082702000827020008B8
:2000C000270200082702000827020008270200082702000827020008270200080D4B000869
:2000E0002702000827020008294F0008270200082702000827020008270200082702000829
:20010000270200082702000827020008270200082702000827020008270200082702000857
:200120002702000827020008270200082702000800F002F800F05AF80AA090E8000C8244DB
:200140008344AAF10107DA4501D100F04FF8AFF2090EBAE80F0013F0010F18BFFB1A43F072
:2001600001031847F86A0000186B00000A444FF0000C10F8013B13F0070408BF10F8014B31
:200180001D1108BF10F8015B641E05D010F8016B641E01F8016BF9D113F0080F1EBF10F88B
:2001A000014BAD1C0C1B09D16D1E58BF01F801CBFAD505E014F8016B01F8016B6D1EF9D5D8
:2001C0009142D6D3704700000023002400250026103A28BF78C1FBD8520728BF30C148BFE5
:2001E0000B6070471FB51FBD10B510BD00F0CFF81146FFF7F7FF05F0C7FB00F0EDF803B45E
:20020000FFF7F2FF03BC00F0F1F800000948804709480047FEE7FEE7FEE7FEE7FEE7FEE751
:20022000FEE7FEE7FEE7FEE704480549054A064B70470000AD4A000831010008C00F002011
:20024000C0150020C0110020C0110020032A40F2308010F0030C00F0158011F8013BBCF132
:20026000020F624498BF11F801CB00F8013B38BF11F8013BA2F1040298BF00F801CB38BF80
:2002800000F8013B11F0030300F02580083AC0F0088051F8043B083A51F804CBA0E8081092
:2002A000F5E7121D5CBF51F8043B40F8043BAFF30080D20724BF11F8013B11F801CB48BF1A
:2002C00011F8012B24BF00F8013B00F801CB48BF00F8012B704710B5203AC0F00B80B1E839
:2002E0001850203AA0E81850B1E81850A0E81850BFF4F5AF5FEA027C24BFB1E81850A0E8D1
:20030000185044BF18C918C0BDE810405FEA827C24BF51F8043B40F8043B08BF7047D20744
:2003200028BF31F8023B48BF11F8012B28BF20F8023B48BF00F8012B70474FF0000200B520
:20034000134694469646203922BFA0E80C50A0E80C50B1F12001BFF4F7AF090728BFA0E8F1
:200360000C5048BF0CC05DF804EB890028BF40F8042B08BF704748BF20F8022B11F0804F99
:2003800018BF00F8012B7047704770477047754600F028F8AE4605006946534620F0070063
:2003A000854618B020B5FFF73FFFBDE820404FF000064FF000074FF000084FF0000B21F06F
:2003C0000701AC46ACE8C009ACE8C009ACE8C009ACE8C0098D4670470446AFF30080204653
:2003E000FFF70DFF00487047600F002001491820ABBEFEE726000200704721B1826842F0D0
:200400000102826003E0826822F001028260704721B1826842F48072826003E0826822F4D3
:20042000807282607047014600208A6812F0040F01D0012000E000207047014600208A68C1
:2004400012F0080F01D0012000E000207047000030B502460020002350680F4C20400D7971
:200460000C6844EA05242043506090680B4C2040D1E902542C434D7944EA450420439060E0
:20048000D06A20F470000C7C641EE4B2234340EA0350D06230BD0000FFFEF0FFFDF7F1FF2C
:2004A000F0B504460D4600200021092D11DDE068A5F10A0606EB4607072606FA07F1884379
:2004C000A5F10A0606EB460603FA06F10843E0600CE0206905EB4507072606FA07F1884319
:2004E00005EB450603FA06F108432061072A0FDA606B561E06EB86071F2606FA07F1884322
:20050000561E06EB860605FA06F10843606322E00D2A0FDA206BD61F06EB86071F2606FA81
:2005200007F18843D61F06EB860605FA06F10843206310E0E06AA2F10D0606EB86071F261F
:2005400006FA07F18843A2F10D0606EB860605FA06F10843E062F0BD816841F00801816081
:20056000704721B1826842F4A002826003E0826822F4A00282607047816841F00401816030
:200580007047000070B58AB0202102A8FFF7D5FE4E48007810B100200AB070BD002607206E
:2005A00003F00AFE044614F0400F42D005F008FB602003F001FE4649087008460078002832
:2005C00009DD08460078212805DA0846027802A9612003F007FEFF21E22003F023FE05F030
:2005E000DFFA3C480078401C3A4908700C20032300900846027807215A2003F0BBF8522269
:2006000007216C2003F06AF978220721722003F065F900250AE002A94A5D05EB4501490645
:20062000080E062103F05AF9681CC5B2102DF2DB012614F0200F21D014F0010F03D01021CF
:20064000254802F076FA05F0ABFA24480078401C224908700C20032300900846027807213C
:200660005A2003F087F8542207216C2003F036F978220721722003F031F9022614F0100F86
:200680001ED0FF21E12003F0CDFD05F089FA14480078401C124908700C20032300900846E3
:2006A000027807215A2003F065F8452207216C2003F014F972220721104603F00FF903267D
:2006C0002146272003F0AEFD304665E75201002001020020F9010020000C0140FA010020F4
:2006E000F801002010B500F03FF9044605480068A04205D804F164000249086000F052FCEC
:2007000010BD0000D001002010B500F02DF9044605480068A04205D804F1FA0002490860E0
:2007200000F0DEFB10BD0000D401002010B5002400F01AF9044616480068A04226D804F559
:200740007A701349086013480068401C1149086011480078012802D1087803F033F90D4849
:200760000068052812D900200A4908600B48006860B90B48006848B90A48006830B90120CA
:20078000094908600102094802F0D3F910BD0000C8010020CC0100205E0100207C010020CE
:2007A0007401002080010020780100200008014010B500F0D9F804461D480068A04235D895
:2007C00004F5FA701A4908601A48006880F4807018490860091517480C3802F0A1F9164948
:2007E00008700846007818B901201449086002E000201249086012480088B0F5406F07DD25
:200800000F48C088B0F5806F02DA01200D4908600B480088B0F5406F08DA0A4800680128F6
:2008200004D100200749086000F012F910BD0000C40100200C0801405E0100207C010020ED
:200840000C0F00208801002010B500F08DF8044631480068012807D114F0004F03D1002007
:200860002D49086000E010BD2C480068A04250D804F164002949086008460068A04202D862
:200880000120254908602648006830BB25480068062805D24FF48071234802F04CF92BE0E5
:2008A00020480068062805D14FF480711E4802F040F921E01B480068072805D14FF480719A
:2008C000194802F038F917E016480068082813D14101154802F02DF90EE012480068042830
:2008E00005D24FF48071104802F023F904E04FF480710D4802F01FF90A480068082805D24F
:2009000008480068401C0749086002E000200549086000BFA7E70000BC010020B801002050
:200920007C010020C0010020000801400C48006800B970470B480068401C0A4908600846A4
:2009400000680A2809D008460068142805D008460068322801D10020086000BFE9E7000064
:200960008C010020D80100202DE9FC474FF0E02040694FF0E0218969401A0E490968B0FB91
:20098000F1FA504605F087FB064600220A4B05F0FDF904460D460948006805F07CFB804629
:2009A00022462B4605F04AF9CDE9000105F046FBBDE8FC870000002000408F40DC010020E5
:2009C00070B503460A46002000210EE05E5CA6F13005002403E005EB85067500641C561EB9
:2009E000761AA642F7D82844491C9142EED370BD10B588B041208DF8000054208DF8010041
:200A00002B208DF8020052208DF803004F208DF804004C208DF8050045208DF806003F20CD
:200A20008DF8070000240DE01DF80410074804F058FA00BF8021054804F080F90028F9D050
:200A4000601CC4B2082CEFDB08B010BD0048004010B588B041208DF8000054208DF80100BC
:200A60002B208DF8020043208DF803004C208DF8040045208DF8050041208DF80600522077
:200A80008DF8070000240DE01DF80410074804F028FA00BF8021054804F050F90028F9D050
:200AA000601CC4B2082CEFDB08B010BD00480040F0B591B000240020009000270025002112
:200AC0002D4800F0F5FF00BF002604E02E2001A98855701CC6B2402EF8DB07E09DF80070EE
:200AE0003C2C03DA01A80755601CC4B26946234802F056F80028F1D1002C27DD25090A2DE1
:200B000005DA05F13000C0B28DF8400004E005F13700C0B28DF8400004F00F050A2D05DA33
:200B200005F13000C0B28DF8410004E005F13700C0B28DF8410043208DF8420047208DF8F8
:200B40004300402101A805F05BF80EE030208DF840008DF8410043208DF8420047208DF821
:200B60004300402101A805F04BF80121024800F09FFF11B0F0BD0000300002406001002095
:200B800030B589B08D484088B0F5406F79DD4FF480418B4801F0C4FF002872D10021894808
:200BA00000F086FF012240F22551874804F0D3F886A20721002002F0B9FE4FF4165004F0B1
:200BC00095F94FF47A7000F09CFB86A20721002002F0ACFE41208DF8040054208DF80500DF
:200BE0002B208DF8060052208DF807004F208DF808004C208DF8090045208DF80A003120E6
:200C00008DF80B0000207D49087000250DE001A8415D6D4804F065F900BF80216A4804F080
:200C20008DF80028F9D0681CC5B2082DEFDB4FF47A7000F066FB72A20721002002F076FE04
:200C400000252BE07448445D302C01DB392C0DDD412C01DB5A2C09DD612C01DB7A2C05DDDA
:200C60002B2C03D03D2C01D03A2C0BD105EB4501362202EB4101C8B22246072102F02EFEE9
:200C80000AE098E005EB4501362202EB4101C8B22A22072102F022FE681CC5B2082DD1DB59
:200CA0004FF47A7000F02DFB5CA20721002002F03DFE41208DF8040054208DF805002B2049
:200CC0008DF8060042208DF8070041208DF8080055208DF8090044208DF80A0034208DF8DE
:200CE0000B0000204549087000250DE001A8415D354804F0F6F800BF8021334804F01EF826
:200D00000028F9D0681CC5B2082DEFDB4FF47A7000F0F7FA3AA20721002002F007FE00259A
:200D20002AE03D48445D302C01DB392C0DDD412C01DB5A2C09DD612C01DB7A2C05DD2B2CFF
:200D400003D03D2C01D03A2C0AD105EB4501362202EB4101C8B22246072102F0BFFD09E0E7
:200D600005EB4501362202EB4101C8B22A22072102F0B4FD681CC5B2082DD2DB4FF47A701B
:200D800000F0BFFA2BA20721002002F0CFFD4FF47A7000F0B6FA01210A4800F089FE0022FD
:200DA00040F22551084803F0D6FF00201349087001202649087009B030BD00000C0F002096
:200DC000001001403000024000480040424C45204346473A2053657420434F4D3D393630A4
:200DE00030000000424C45204346473A2053657420424C4520526F6C650000009401002020
:200E0000424C45204346473A202D2D2D2D2D2D2D2D2D2D2D2D000000DB0B0020424C4520A0
:200E20004346473A2053657420424C452042617564000000424C45204346473A20506F777A
:200E40006572204F66662D2D2D0000009C010020002002490870024908607047940100203A
:200E60009801002070B51AA20721002002F05EFD00252AE01948445D302C01DB392C0DDD8B
:200E8000412C01DB5A2C09DD612C01DB7A2C05DD2B2C03D03D2C01D03A2C0AD105EB4501D1
:200EA0003C2202EB4101C8B22246072102F016FD09E005EB45013C2202EB4101C8B22A2224
:200EC000072102F00BFD681CC5B2082DD2DB70BD424C4520544553543A200000DB0B002053
:200EE0007047000010B588B03A208DF800005A208DF8010054208DF802004F208DF803006D
:200F000046208DF8040042208DF8050044208DF806002F208DF8070000240DE01DF80410F2
:200F2000074803F0DEFF00BF8021054803F006FF0028F9D0601CC4B2082CEFDB08B010BD87
:200F40000048004010B588B03A208DF800005A208DF8010054208DF802004F208DF803003B
:200F60004E208DF8040042208DF8050035208DF806002F208DF8070000240DE01DF8041099
:200F8000074803F0AEFF00BF8021054803F0D6FE0028F9D0601CC4B2082CEFDB08B010BD88
:200FA00000480040F8B500200090002600243648007800B1F8BD3548007810B134480078FC
:200FC00000B9F7E70020314908700021314800F06FFD002030490870002504E02E202F4992
:200FE0004855681CC5B2402DF8DB0EE09DF80060294800783C2808DA28482749097846540C
:2010000025480078401C244908706946244801F0C7FD0028EAD12048007800282DDD1E487F
:20102000007804090A2C05DA04F130001B4981F83C0004E004F13700184981F83C00164854
:20104000007800F00F040A2C05DA04F13000134981F83D0004E004F13700104981F83D00AA
:2010600042200E4981F83E00542081F83F0040210A4804F0C5FDFFF759FC0121054800F0C1
:2010800017FD00BF96E7000063000020920100206200002030000240ED0100201E0F00207B
:2010A0006001002010B504460848007808B1002010BD01200549087005480462012104482A
:2010C0001C3000F0F5FC0120F2E70000910100200000024008B50121080702F0CFFD012127
:2010E000880302F0CBFD0121042002F0E7FD0121082002F0E3FD0121102002F0DFFD012131
:20110000880402F0BBFD0121084602F0D7FD01212B4801F0BDFC4FF40140ADF800001020CB
:201120008DF8030003208DF802006946254801F026FC0420ADF8000010208DF803000320AA
:201140008DF802006946204801F019FCE020ADF8000003208DF8020048208DF803006946FD
:20116000194801F00CFC4FF46040ADF8000003208DF8020048208DF803006946134801F0F8
:20118000FEFB4FF4C060ADF8000003208DF8020048208DF8030069460A4801F0F0FB4FF494
:2011A0000041084801F0C7FC4FF48071054801F0C0FC0421044801F0BCFC002008BD0000BD
:2011C0000002300000080140000C0140001001402DE9F0410020294908600A2028490860B2
:2011E000084600684FF47A71B1FBF0F025490968B1FBF0F4601EB0F1807F00D30FE0601EB2
:201200004FF0E02148610F214FF0FF3002F0D6F800204FF0E02188610720086100BF00BF30
:2012200019490968C1F30220002213460146C1F10707042F01D9042701E0C1F107073E4626
:201240000F1D072F01D2002700E0CF1E3D460127B7407F1E1740AF404FF0010C0CFA05FC8D
:20126000ACF1010C0CEA030C47EA0C0421464FF0FF3002F0A3F8BDE8F0810000DC01002009
:20128000E0010020000000200CED00E010B502F035FD4FF4803002F0F3FD02F055FE044607
:2012A000012C25D1102001F0FFFA022001F03CFB002002F0D9FD002002F014FEA00202F007
:2012C00005FE4FF4E011200402F01EFE012002F015FE00BF392002F0A1FD0028FAD00220C3
:2012E00002F020FE00BF02F0B7FD0828FBD101E000BFFEE710BD10B54FF4A06002F054F8E5
:2013000010BD70B50446FFF72FFB051900BFFFF72BFBA842FBD970BD1FB50121080702F096
:20132000ADFC0121042002F0C9FC4FF40040ADF80C0003208DF80E0010208DF80F0003A9AD
:20134000204801F01CFB4FF400411E4801F0F3FB4FF4802001F002FA4FF4802001900020F0
:201360008DF8080008208DF8090001208DF80A0001A801F0F9F9002002F0E0FD0121C80510
:2013800002F07CFC14208DF8000003208DF8010000208DF8020001208DF80300684601F092
:2013A000C9FF2A208DF8000002208DF8010000208DF8020001208DF80300684601F0BAFF46
:2013C0001FBD00000008014070470146CAB20B1243EA02207047000010B502460B460021CC
:2013E00000BF04E052F82100034C2060491C9942F8D30148006810BD003002400146024884
:2014000001600068704700000030024001200149886070470030024010B500240BE18C48B5
:20142000008800F00F008B4908700846007800287ED189480068894908800846008800F043
:201440003000874908808548008800F4405083490880814909684BF6BF7201EA020080F4C9
:20146000005080F0200040F4004141F080017A4A11607748008810F0100F32D11046006809
:2014800048F60F7108401146086001F01DFC724909684BF6BF7201EA02007049098811F4A3
:2014A000805F01D080F480506C49098811F4005F01D080F400506A49098811F0100F01D0C4
:2014C00080F010006649098811F0200F01D080F0200081B241F4004141F080015E4A116047
:2014E00010BD5D48006884B214F4006F36D05A480068C0F30E0048F68F7108405649086007
:2015000003F022F8544909684BF6BF7201EA02005249098811F4805F01D080F480504F4994
:20152000098811F4005F01D080F400504C4900E04CE0098811F0100F01D080F010004849ED
:20154000098811F0200F01D080F0200081B241F4004141F08001404A1160C1E714F4004F14
:2015600069D03D480068C0F30E0048F68F7108403949086002F0E6FA374909684BF6BF72DF
:2015800001EA02003549098811F4805F01D080F480503249098811F4005F01D080F4005051
:2015A0002F49098811F0100F01D080F010002C49098811F0200F01D080F0200081B241F4B2
:2015C000004141F08001244A116089E721480078214951F8200084B214F4004F14D01D483F
:2015E000007851F82000C0F30E0048F68F71084018490978184A42F8210016490978491EDD
:20160000184A52F82100804714F0800F13D011480078114951F8200048F60F7108400D49D0
:2016200009780D4A42F821000A490978491E0E4A52F82100804708484430006880B2044907
:20164000088010F4004F7FF4EAAE00BF48E70000A40000202C000020005C004040000020AA
:2016600042000020880000206C00002004210DE0027812F0800F01D01B2200E0002203782C
:2016800082EA43020270401C4A1ED1B20029EFDC704710B502460B460021012000BF505432
:2016A00019544C1CE1B210F0800F01D01B2400E0002484EA40044440E0B20128EFD11478E2
:2016C00082F8FF4010BD000070B50246002000BF002808DD0E4D2D682D5CC5F1FF050D4E9D
:2016E0003668715D00E0002181F06304042306E04D0045EAE115E9B24C405D1EEBB2002BBC
:20170000F6DC1454451CEDB22800E1D170BD0000A4010020A001002010B502460B46002084
:20172000002100BF00BF545C844201D11954FF214C1CE4B22100F6D1441CE4B22000F1D177
:2017400010BD70B505460024002604E0701C285C0444701CC6B20A2EF8DB6042C4B2204639
:2017600005F10B0101F048FA70BD0000094951F8201011F4804F0BD0064951F8201048F687
:201780008F7211404CF280021143024A42F8201070470000005C0040094951F8201011F00E
:2017A000400F0BD0064951F8201048F68F72114048F2C0021143024A42F8201070470000EA
:2017C000005C0040064951F8201048F68F62114048F280021143024A42F8201070470000A8
:2017E000005C004000BF0B680360001D091D531E1A00F8D17047000070B504460025062CA4
:2018000018D118480068007800F07F00012811D114480068407968B9124800688078222883
:2018200001D1114D10E00F480068807821280BD10E4D09E00B480068007800F07F0021287D
:2018400002D1032C00D10A4D0DB9022070BD05480068856100210348006841820020A84708
:201860000020F3E730000020CD1800089D180008B118000810B504460249204602F07AFF78
:2018800010BD00000801002010B504460249204602F070FF10BD00000001002010B5044634
:2018A0000249204602F066FF10BD000018010020014629B90120034A1268108200207047A0
:2018C0000148FCE7300000204001002010B504460249204602F04EFF10BD0000100100202E
:2018E00070B5054606480068C478042C01DD002070BD044800EBC401284602F03BFFF7E7B7
:2019000030000020200100200246002901DD02207047002A01DD0220FAE70020F8E7000004
:2019200000B5024606480068007800F07F00212804D10B2A02D100F073F800BD0220FCE7CA
:201940003000002010B5002028490968887227490968C8722648C0792449096848720020FC
:2019600002F096FC4FF40071002002F077FD1021002002F041FD1821002002F0B5FC5821B3
:20198000002002F01BFD0020FFF71CFF194890F82C10002002F0BAFC002002F0F9FC4FF4B5
:2019A000C061012002F05AFD4FF48071012002F005FD4FF4A071012002F096FC40210120D8
:2019C00002F00CFD4021012002F0A0FC4FF44051012002F0C1FC2021012002F00DFD0020DA
:2019E00002F05EFC01200449086010BD300000204A630008AC00002048010020034800680B
:201A0000807A10B105200249086070473000002048010020042001490860704748010020CD
:201A200003480068C1780348016000207047000030000020400100207047704710B5002033
:201A400005490968887202F0DDF803F02FFB00200249086010BD0000300000204801002090
:201A600001784278027082784270C2788270C1707047000010B5202000F00CF8002103489C
:201A800000F016F800200249087010BD1C0002409101002010F0805F02D00349086001E042
:201AA0000249486070470000040402400000024021B1026842F00102026004E002684FF68A
:201AC000FE731A400260704701684FF6FE72114001600021016041608160C1604B498842CF
:201AE00008D14A490839496841F00F01474A083A51608AE045491431884208D14349083916
:201B0000496841F0F001414A083A51607DE03F492831884208D13D490839496841F4706115
:201B20003A4A083A516070E038493C31884208D136490839496841F47041344A083A516085
:201B400063E032495031884208D130490839496841F470212D4A083A516056E02B496431C9
:201B6000884208D129490839496841F47001274A083A516049E025497831884208D1234905
:201B80000839496841F07061204A083A51603CE01F49884206D1011F096841F00F01021FDC
:201BA000116032E01A491431884208D11849091F096841F0F001164A121F116025E01449D7
:201BC0002831884208D11249091F096841F470610F4A121F116018E00D493C31884208D1B6
:201BE0000B49091F096841F47041094A121F11600BE007495031884207D10549091F0968D8
:201C000041F47021024A121F1160704708000240080402401AB103680B43036002E003688D
:201C20008B430360704710B50022026847F6F0739A430C6A8B6823430C6923434C69234329
:201C40008C692343CC6923434C6A23438C6A23431A430260CB6843600B6883604B68C36055
:201C600010BD00002DE9F0472848006800F110052E8826480068077AD6B9042F18D1244848
:201C8000007801280FD100212248006880B2801C214A42F8101030202049088000BF00201D
:201CA0001B49087003E0072710201C49088027E0AC88A64201D8042000E002200746B442B5
:201CC00000D93446A0B2A96888478046002000F057FF8146A2B24946404603F027FAA1B2BC
:201CE000002002F07BFB2888001B288068882044688030200949088000020949088000BFE8
:201D0000024909680F72BDE8F08700003000002028000020505C00400060004042000020E4
:201D2000400000202DE9F0412848006800F110042688A068C0B1BEB1A588B54200D9354611
:201D4000A8B2A168884707462088401B2080608828446080002000F0F1FE8046AAB2414685
:201D6000384601F017FF00BF208850B14FF44050174908800021084602F030FB3020154981
:201D800008802088A188884204DB03200F490968087218E02088002804DD05200B49096848
:201DA000087210E0208870B9062008490968087200210948006880B2801C084A42F8101032
:201DC000302004490880BDE8F0810000300000204000002042000020505C0040006000402A
:201DE0002DE9F05F9848006845780027BA46062D1AD195480068007810F07F0F13D192492A
:201E000009688878012803D190490968CF690AE0022803D18D4909680F6A04E0032802D148
:201E20008A4909684F6A90E0002D60D186480068408800285BD184480068C088022856D1B8
:201E4000814800680079002851D17F480068007810F07F0F05D17C480068808808B97C4FC3
:201E600073E079480068007800F07F00012810D1754909684879754909688A6900219047EB
:201E8000002862D170480068807A00285DD0704F5BE06D480068007800F07F00022854D12B
:201EA00069480068407900F00F0667480068407900F0700964480068407910F0800F05D0E1
:201EC000644850F8260000F0300804E0614850F8260000F4405860480078B04235D9B9F16F
:201EE000000F32D1B8F1000F2FD0594F2DE0082D07D155480068007810F07F0F25D1574FB0
:201F000023E00A2D21D150480068007800F07F0001281AD14C480068807AB0B14A48006849
:201F2000408890B948480068007970B946480068C088012809D144490968487943490968F9
:201F40008A690021904700B9454F57B13E480068A0F812A03C48006887610020B8470024F2
:201F60000FE0394A12685078384A1268116988470446032C05D10920334909680872BDE8E4
:201F8000F09F31480068008AA0F57F41FF3904D109202D4909680872F1E7022C03D02A4810
:201FA0000068008A20B90820274909680872E6E725480068007810F0800F3BD0224800684D
:201FC000B0F806B020480068008A584504D91E490968A1F810B023E01B480068008A1A49E3
:201FE0000968C98888421BDA17480068008A1749096891F82C10884203DA002019490870D8
:202000000EE011480068008A1049096891F82C1090FBF1F201FB120010B9012011490870C0
:202020000A48006890F82C10074800688182FFF719FE06E0032004490968087200030A49C4
:20204000088000BF9BE700003000002034000020C5470008005C0040A80000204947000803
:2020600099470008280000204000002005E0022100BF0A00A1F10101FBD10200A0F101000B
:20208000F5D170470120014908707047640000202DE9F04F91B0F749012003F019F88246E2
:2020A0000026002010900D90002780468146F2A2D2E900109268CDE907020691F1A30FCBCC
:2020C00002AC0FC44FF44051012002F045F9E9480078552815D1E7484078AA2811D1012092
:2020E000EC490860BAF12C0F05D92C22E149EA4803F075FA24E35246DE49E74803F06FFA22
:202100001EE3DC480078422877D1DA4840785428FAD1D84880782D28F6D1D648C078562847
:2021200034D1D4480079452830D1D248407952282CD10120D94908700020D94908700D20AB
:20214000D84908703A2048700826002406E006A8015DD44AA01C1154601CC4B2B442F6DB98
:202160002F21D04AB01C11543020114681F83C00412081F83D00432081F83E00472081F857
:202180003F004021104603F03BFDD9E2B948C07843286ED1B74800794F28FAD1B548407910
:2021A0004D287ED100201090032412E0B148005D0D2800D10FE0AF48005D302807DBAD48B4
:2021C000005D392803DC1098401CC0B21090601CC4B25445EAD300BFA648801D1099FEF71C
:2021E000EFFB8346BBF57A7F05D9AF48834502D2584602F07BFE00250AE09DE205EB450145
:202200004906080E2022062101F068FB681CC5B2142DF3DB43220621002001F05FFB4F222A
:202220000621084601F05AFB4D2206210C2001F055FB3A220621122001F050FB0C2006239A
:202240005A4619460090182001F094FA0D20954908703A2048700E26002406E002A8015D5D
:20226000904AA01C1154601CC4B2B442F6DB002409E016E07F49A01D095CB01C2044894ABA
:202280001154601CC4B210988442F3DB2F2110983044801C834A11544021104603F0B0FC1B
:2022A0004EE27448C0784E2818D172480079522814D170484079462810D120216D48801DB6
:2022C00003F086FC0D20774908703A2048702F2088704021734803F093FC31E26548C07835
:2022E0004B287DD1634800794528FAD1614840795928F6D10D206B4908703A204870022486
:2023000004E0312067490855601CC4B20F2CF8DB4021664800F004FC10B9302061498870C1
:202320004FF40051624800F0FBFB10B930205D4948714FF400415E4800F0F2FB10B93020E1
:20234000584988714FF48041594800F0E9FB10B930205449C8718021544800F0E1FB10B9A9
:202360003020504908722021504800F0D9FB10B930204C4948724FF400714E4800F0D0FBF0
:2023800010B93020474988724FF48061494800F0C7FB10B930204349C8722020414908730F
:2023A000454988883F490D3100F03DFC20203D4948744149C8883B49123100F034FC20200D
:2023C000384988753C4908883649173100F02BFC20203449C8763849488832491C3100E098
:2023E000D9E000F020FC20202E4981F82000324908892C49213100F016FC2020294981F8C8
:2024000025000EA800F0E8FB00240AE0262202EB4402244BD1180EAA105D00F0EDFB601CB4
:20242000C4B2052CF2DB20201E4981F830002248C08800110D9020484788B0F80080B0F871
:202440000490B7F5006F05D3A7F50060870907F07F0704E0C7F50060870947F08007B8F5F1
:20246000006F2BD3A8F500604FEA901848F080082AE000004006002056657220332E3020E3
:20248000000000004368616E676520434F4D20746F20000080010020C00600205C010020D0
:2024A0005D0100201B08002080969800000C014000100140000801400C0F0020C8F500606E
:2024C0004FEA901808F07F08B9F5006F06D3A9F500604FEA901909F07F0905E0C9F5006042
:2024E0004FEA901949F08009002404E0202009A90855601CC4B20E2CF8DB3A208DF82400DF
:2025000052208DF8250043208DF826000D99C8B20DF1270100F070FBF8B20DF1290100F02E
:202520006BFB08F0FF000DF12B0100F065FB09F0FF000DF12D0100F05FFB09A8FFF701F9B5
:202540002F208DF83100002405E009A8005D7E490855601CC4B20E2CF7DB0E20FEF7A2FD7B
:20256000002407E009A9601C095C784A30301154601CC4B20C2CF5DB2F20744981F83D007A
:20258000522081F83E00432081F83F0040216F4803F036FBD4E06E48C078432879D16C48B0
:2025A0000079462875D16A484079472871D10120684908700026002404E000206349085531
:2025C000601CC4B2402CF8DB0220634908700D205E4908703A20487006244CE05C48005DCF
:2025E0000D2838D1002E36DD002509E005EB45014906080E2022072101F070F9681CC5B2F4
:20260000142DF3DB43220721002001F067F946220721062001F062F9472207210C2001F0FD
:202620005DF93A220721122001F058F900250CE045494A5D05EB4501182303EB4101C8B2EB
:20264000072101F04BF9681CC5B2B542F0DB3046FEF728FD11E03E48005D1F2809DD3C484B
:20266000005D7F2805DA3A48005D37498855701CC6B2601CC4B25445B0D300BF4FF4FA70BD
:20268000FEF73FFEFEF714FA00203249087057E0FFE7002603244CE02D48005D0D2838D14C
:2026A000002E36DD002509E005EB45014906080E2022072101F012F9681CC5B2142DF3DBC0
:2026C00055220721002001F009F953220721062001F004F9422207210C2001F0FFF83A229B
:2026E0000721122001F0FAF800250CE016494A5D05EB4501182303EB4101C8B2072101F052
:20270000EDF8681CC5B2B542F0DB3046FEF7CAFC11E00F48005D1F2809DD0D48005D7F28BB
:2027200005DA0B48005D08498855701CC6B2601CC4B25445B0D303E04021054803F060FAEC
:2027400011B0BDE8F08F0000DB0A00201B080020400600206300002051010020014908603F
:202760007047000014040140002123498279002A3AD00A46126803689A430B461A600A1D89
:20278000126803689A430B1D1A60027911440A6803681A430A60184A0832126803689A4303
:2027A000154B08331A601A1D126803689A43124B0C331A604279102A0ED11A1F1268036803
:2027C0001A430D4B08331A601A1D126803681A43094B0C331A600DE00749427911440A684A
:2027E00003681A430A6005E0027911440A6803689A430A6070470000000401400320014965
:2028000008607047480100200149C860704700000020024030B5044604254FF4302000F0CA
:202820009BF80546042D17D10C48006940F002000A49086108464461006940F040000861C1
:202840004FF4302000F088F805460448006941F6FD71084001490861284630BD0020024018
:2028600004200B49C96811F0010F01D001200EE00749C96811F0040F01D0022007E0044902
:20288000C96811F0100F01D0032000E004207047002002400348006940F0800001490861BF
:2028A00070470000002002400549096821F01001034A11601146096801431160704700002C
:2028C00000200240F0B504460D4604260027F00200F042F80646042E22D11248006940F083
:2028E0000100104908612580F00200F035F80646042E0ED1A71C280C3880F00200F02CF84F
:2029000006460848006941F6FE7108400549086106E00448006941F6FE71084001490861D1
:202920003046F0BD0020024001460020034A106800F03800084310607047000000200240EA
:202940000248034948600348486070472301674500200240AB89EFCD00B502460423FFF753
:202960007FFF034603E0FFF77BFF0346521E012B01D1002AF7D102B90523184600BD2DE980
:20298000F041024600250026002000230024002791F803C00CF00F0591F803C01CF0100F12
:2029A00003D091F802C04CEA050591F800C0BCF1000F31D0146800202BE04FF0010C0CFABA
:2029C00000F3B1F800C00CEA03069E4220D183004FF00F0C0CFA03F7BC4305FA03FC4CEABB
:2029E000040491F803C0BCF1280F06D14FF0010C0CFA00FCC2F814C00AE091F803C0BCF109
:202A0000480F05D14FF0010C0CFA00FCC2F810C0401C0828D1D31460B1F800C0BCF1FF0FE9
:202A200034DD546800202EE000F1080C4FF0010808FA0CF3B1F800C00CEA03069E4221D113
:202A400083004FF00F0C0CFA03F7BC4305FA03FC4CEA040491F803C0BCF1280F05D100F167
:202A6000080C08FA0CF8C2F8148091F803C0BCF1480F07D100F1080C4FF0010808FA0CF873
:202A8000C2F81080401C0828CED35460BDE8F081F0B50A46002300240021002500F000463D
:202AA000B6F1004F02D11D4EF16901E01B4E7168C0F3034583B200F44016B6F5401F08D108
:202AC00021F07061154E766826F07066134F7E6012E000F48016B6F5801F06D1032606FAE1
:202AE00005F4A14341F0706106E0460D360103FA06F6B14341F0706122B1460D360103FA3E
:202B000006F6314300F00046B6F1004F02D1034EF16101E0014E7160F0BD000000000140B4
:202B20000246002093680B4201D0012000E000207047416170470161704700000146054836
:202B4000006880B200EBC100001D034A32F8100080B27047505C0040006000400146064881
:202B6000006880B200EBC100801D044A32F81000C0F3090070470000505C004000600040EB
:202B800001460548006880B200EBC100034A32F8100080B270470000505C0040006000405F
:202BA00030B50246D46810682468001B5468031B7BB1D2E90140005D08705068401C5060F2
:202BC000D2E90040B0FBF4F504FB15005060012030BD0020FCE7000010B5044605480078BD
:202BE00000B110BD05222146102001F0FBFA00BFF7E700005201002010B500F00F020309D1
:202C00000A2B03DA03F130040C7002E003F137040C700A2A03DA02F130044C7002E002F1A8
:202C200037044C7010BD18B50A46002104E000230DF801304B1CD9B20429F8DB42F20F73AD
:202C4000984200D91846B0F57A7F0ED34FF47A73B0FBF3F3DBB28DF803309DF8033003EB28
:202C60004304C4EBC313A0EBC30063280DD96423B0FBF3F3DBB28DF802309DF8023003EBB8
:202C8000C30404EB0313A0EB830009280BD90A23B0FBF3F3DBB28DF801309DF8013003EB90
:202CA0008303A0EB4300C3B28DF80030002107E0C1F103031DF80330303353544B1CD9B292
:202CC0000429F5DB18BD000010B518480068047A022C01D0042C05D1FEF7C4FF1348006897
:202CE000047A1CE0062C19D110480068407805280ED10E480068007810F07F0F08D10B49C9
:202D00000968C87801F0CCFA09490968086A80470849096888688047082400E00824034952
:202D200009680C7200F04AFF10BD0000300000203C000020340000207CB50020009001902C
:202D400000253748007800B17CBD6420FFF78EF910213448FFF7EDFE002001F02DFA05465B
:202D6000052231492A2001F073FA05222F49302001F06EFA052269460A2001F033FA002480
:202D800005E01DF804002A490855601CC4B2052CF7DB4E220721002000F0A0FD522207218F
:202DA000062000F09BFD462207210C2000F096FD3A220721122000F091FD002408E01C4981
:202DC0000A5DA11CC8B2072100F016FD601CC4B2052CF4DB0121212001F024FA0121222062
:202DE00001F020FA0321232001F01CFA1A21242001F018FA5021252001F014FA0F212620AD
:202E000001F010FA1021312001F00CFA0F21202001F008FA10210348FFF78DFE00BF93E7A5
:202E200052010020000C0140F3010020EE010020FB0100202DE9F04105460C464FF009085F
:202E4000A03404222146284602F08CF9103C00BF284600F0B6F810222146284600F0CAF85C
:202E6000103C0426002706E0E81900F016F8701EC6B2381DC7B2002EF6DCA8F10100C0B2F0
:202E80005FEA0008E4D1284600F09BF810222146284600F0AFF8BDE8F08118B50446607898
:202EA000A1784840E17848408DF800002078A1784840E17848408DF8010020786178484072
:202EC000E17848408DF80200207861784840A17848408DF803002046FEF7C8FB20786178D9
:202EE00048409DF8001048408DF800006078A17848409DF8011048408DF80100A078E178FA
:202F000048409DF8021048408DF802002078E17848409DF8031048408DF803002046FEF7E7
:202F2000A5FB2078A17848409DF8001048408DF800006078E17848409DF8011048408DF89A
:202F400001002078A17848409DF8021048408DF802006078E17848409DF8031048408DF813
:202F600003002046FEF782FB6078A1784840E17848402178484020709DF8000021784840B5
:202F80008DF800009DF80100217848408DF801009DF80200217848408DF802009DF8030098
:202FA000217848408DF803009DF8000020709DF8010060709DF80200A0709DF80300E0704E
:202FC00018BD417B427A4273427942724278427141708178827A827081728179827B82719E
:202FE0008173C178C279C270C27AC271C27BC272C173704710B500BF0378064CE35C0C7858
:2030000063400370401C491C531EDBB21A00F3D110BD0000EB0C002000B591B04F48FEF797
:2030200053FD4F4806904F480790002008900920099000200A9080200B9040000C9080001A
:203040000D9020200E9000020F900020109006A94248FEF7E8FD01214048FEF729FD4FF479
:20306000004000F0EFFD0020019001208DF808008DF809004FF46020039000200490092014
:203080008DF8140001A936484C38FDF7E1F907230122002132484C38FDF702FA0723022273
:2030A00001212F484C38FDF7FBF90723032202212B484C38FDF7F4F90723042203212848DD
:2030C0004C38FDF7EDF907230522042124484C38FDF7E6F907230622082121484C38FDF7FD
:2030E000DFF907231A4609211D484C38FDF7D8F90723082210211A484C38FDF7D1F9072343
:203100000922112116484C38FDF7CAF9012114484C38FDF77DF9012111484C38FDF76DF9F4
:203120000F484C38FDF718FA00BF0D484C38FDF784F90028F9D10A484C38FDF71DFA00BF13
:2031400007484C38FDF76FF90028F9D1012104484C38FDF706FA11B000BD000008000240A0
:203160004C2401400C0F002008B50121042000F0A5FD0121082000F0A1FD0121102000F0B4
:203180009DFD0121480200F099FD0121084600F065FD0F20ADF8000003208DF80200002043
:2031A0008DF8030069460E48FFF7E9FB1020ADF8000003208DF8020000208DF803006946D2
:2031C0000748FFF7DCFB0320ADF800008DF8020000208DF8030069460248FFF7D0FB08BD5D
:2031E00000080140000C01407CB504462FA0006800902F4E102500BF30782070641C761C3C
:20320000681EC0B20500F7D1211F012201A8FEF7E9FA102546E0E91705EB11710911B5EB7E
:2032200001111BD101A8FEF71BFC042101A801F00FFC0122694601A801F094FF9DF800007D
:2032400010F0800F01D01B2000E000209DF8001080EA4100C0B28DF800000BE0E91705EBB1
:2032600011710911A5EB0111102903D1042101A801F0EEFBA4F11001012201A801F072FF87
:203280009DF8040004F8010B9DF8050004F8010B9DF8060004F8010B9DF8070004F8010BA4
:2032A000281DC5B2B02DB6DB7CBD000001000000EB0E002010B5154C4FF4803000F0E0FDAB
:2032C00000F042FE1249087000BF312000F0A6FD0028FAD0012000F011FE00BF392000F02E
:2032E0009DFD0028FAD0022000F01CFE00BF00F0B3FD0828FBD1A07A18B1052005490860FD
:2033000002E001200349086010BD00002406002044000020480100207047000000F01F024A
:2033200001219140024A430942F823107047000080E100E070B5002100230F22C4780CB308
:20334000164C246804F4E064C4F5E064210AC1F10403CA40447804FA03F1847814402143F6
:2033600009010F4C0678A155047804F01F050124AC4005786D114FF0E02606EB8505C5F857
:20338000004109E0047804F01F050124AC40054D0678761145F8264070BD00000CED00E05E
:2033A00000E400E080E100E002490143024A1160704700000000FA050CED00E010B5002840
:2033C00007DA0A07140E054A00F00F031B1FD45403E00A07130E024A135410BD18ED00E0AC
:2033E00000E400E070B5022646480068447845480068007810F07F0F44D1092C03D101F000
:203400005DFA06465FE0052C14D13E480068C0787F280BDC3B480068807838B93948006843
:20342000808818B937480068807A08B1082565E0002648E0032C0ED132480068C078012808
:2034400007D130480068808818B901F05BFA064639E0022637E0012C35D12A480068C078AC
:2034600001280DD127480068808848B925480068407A10F0200F03D001F0C2F8064622E0DB
:20348000022620E01F480068007800F07F00012805D10B2C17D101F0A5FA064613E0194800
:2034A0000068007800F07F0002280BD1012C03D101F0A6F8064606E0032C04D101F036FAD0
:2034C000064600E002264EB1E0B20F4A1268516988470646032E01D109250FE00EB1082553
:2034E0000CE0062500210948006880B2801C084A42F8101030200749088000BF01490968BF
:203500000D7270BD3000002034000020505C0040006000404200002070B5002419E004F136
:20352000B001C8B2002100F0D1FA0021084600F0CDFA0021102000F0C9FA002505E001212E
:20354000002000F0C3FA681CC5B2802DF7DB601CC4B2082CE3DB70BD08B50121042000F020
:20356000ADFBE020ADF8000010208DF8030003208DF8020069465748FFF701FAE0215548BF
:20358000FFF7D9FA0121082000F098FB4FF44070ADF8000010208DF8030003208DF802009B
:2035A00069464D48FFF7EBF94FF440714A48FFF7C2FA4FF400714848FFF7BDFA6420FDF74C
:2035C000A0FE4FF400714448FFF7B3FAC820FDF798FE4FF400714048FFF7ADFA0021AE2030
:2035E00000F074FA0021084600F070FA0021102000F06CFA0021402000F068FA0021812068
:2036000000F064FA0021CF2000F060FA0021A02000F05CFA0021C02000F058FA0021A620B1
:2036200000F054FA0021A82000F050FA00213F2000F04CFA0021D32000F048FA00210846BE
:2036400000F044FA0021D52000F040FA0021802000F03CFA0021D92000F038FA0021F120A7
:2036600000F034FA0021DA2000F030FA0021122000F02CFA0021DB2000F028FA00214020DF
:2036800000F024FA0021202000F020FA0021022000F01CFA00218D2000F018FA0021142043
:2036A00000F014FA0021A42000F010FA0021A62000F00CFA0021AF2000F008FA0021AF207E
:2036C00000F004FAFFF728FF0021084600F006F808BD000000080140000C014070B50446B8
:2036E0000D4605F1B001C8B2002100F0EFF9102141EA1410002100F0E9F904F00F0141F0B5
:203700000100002100F0E2F970BD00002DE9F04180460E461546002731464046FFF7DEFFDC
:2037200000240AE0124A02EB8511085D012100F0CDF9781CC7B2601CC4B2102CF2DB701CCB
:20374000C1B24046FFF7CAFF00240CE06900491C074A02EB4111085D012100F0B7F9781C88
:20376000C7B2601CC4B2102CF0DBBDE8F0810000020200202DE9FF5F074691461D460E9EF6
:203780004FF0000A002433E0281B401EC1B20A2002F0EEF9B9FBF0F00A21B0FBF1F201FB49
:2037A0001208BAF1000F13D1681EA04210DDB8F1000F0BD1B34606EBDB71491001FB047168
:2037C000C8B23022019900F089F80FE04FF0010AB34606EBDB71491001FB0471C8B208F166
:2037E0003001CAB2019900F079F800BF601CC4B2AC42C9DBBDE8FF9F2DE9F04705460F46AE
:20380000164600BF00BF00BF06F00F094FEA161805EB45018906080E3946FFF75FFF0024C8
:203820000AE008EB4801124A02EB4101085D012100F04CF9601CC4B2062CF2DB05EB4501F4
:20384000062202EB8101C8B23946FFF747FF00240AE009EB4901064A02EB4101085D01214A
:2038600000F034F9601CC4B2062CF2DBBDE8F0870A6600082DE9F04180460E4615460027C3
:2038800031464046FFF72AFF00240AE0124A02EB8511085D012100F019F9781CC7B2601C0D
:2038A000C4B2102CF2DB701CC1B24046FFF716FF00240CE06900491C074A02EB4111085D26
:2038C000012100F003F9781CC7B2601CC4B2102CF0DBBDE8F0810000220400202DE9F04131
:2038E00005460E4617464FF000080024A7F1200000F0FF087F2D02DD0025701CC6B2314687
:203900002846FFF7EBFE00240AE008EB4801064A02EB4101085D012100F0D8F8601CC4B258
:20392000062CF2DBBDE8F081E26300082DE9F04104460F46154600260DE0AA5D39462046E5
:20394000FFF7CCFFA01DC4B2782C02DD0024781CC7B2701CC6B2A85D0028EED1BDE8F081B9
:203960002DE9F04180460E461546002731464046FFF7B4FE00240AE0114901EB4511085DB0
:20398000012100F0A3F8781CC7B2601CC4B2082CF2DB701CC1B24046FFF7A0FE08240AE04B
:2039A000074901EB4511085D012100F08FF8781CC7B2601CC4B2102CF2DBBDE8F081000059
:2039C000C203002070B5054607210020FFF786FE002405E00121002000F078F8601CC4B233
:2039E000802CF7DB072D00DD07252907080E0721FFF774FE002405E00121FF2000F066F89E
:203A0000601CC4B2082CF7DB70BD10B5002211461046FFF77BFE012200211220FFF776FE9E
:203A2000022200212420FFF771FE032200213620FFF76CFE042200214820FFF767FE05226B
:203A400000215A20FFF762FE062200216C20FFF75DFE10BD10B5002203210F20FFF780FFD3
:203A6000012203211820FFF77BFF022203212120FFF776FF002203212A20FFF7FBFE0122C1
:203A800003213C20FFF7F6FE022203214E20FFF7F1FE032211466020FFF7ECFE10BD10B5B3
:203AA000042203211B20FFF7E5FE052203212D20FFF7E0FE062203213F20FFF7DBFE072299
:203AC00003215120FFF7D6FE10BD000070B504460E4626B140211948FFF72DF803E04021FF
:203AE0001648FFF726F84FF480711548FFF721F8002517E020211148FFF71BF814F0800F62
:203B000004D080210D48FFF716F803E080210B48FFF70FF820210948FFF70DF86006040EFE
:203B2000681CC5B2082DE5DB4FF480710448FFF702F840210148FEF7FEFF70BD0008014013
:203B4000000C014010B511480068047A022C01D0042C01D1082412E0032C01D0052C05D1EE
:203B6000FEF7E0F809480068047A08E0072C05D107490968C8688047082400E00824034914
:203B800009680C7200F01AF810BD00003000002034000020F0B5561C7510074E06EB41049C
:203BA0002B4605E034F8047B20F8017B401C5B1E002BF7D1F0BD00000060004010B50D4841
:203BC00090F82C10002000F0A1FB0B480068007A082805D140020949088010200849088015
:203BE00005480068007A092801D1012010BD0020FCE70000AC000020300000204000002026
:203C00004200002010B5012001F094F901240B48046000200A490880084600880749086079
:203C20000020091D08604FF4E050054908800846008802490860002010BD0000405C00403B
:203C40003A00002001460020034A506820F4404008435060704700000010024029B1064ADC
:203C600052690243044B5A6104E0034A52698243014B5A61704700000010024029B1064A4F
:203C8000D2690243044BDA6104E0034AD2698243014BDA61704700000010024029B1064A2F
:203CA00012690243044B1A6104E0034A12698243014B1A61704700000010024029B1064A0F
:203CC00092690243044B9A6104E0034A92698243014B9A61704700000010024029B1064AEF
:203CE000D2680243044BDA6004E0034AD2688243014BDA6070470000001002400F4800683E
:203D000040F001000D490860084640680C4908400A494860084600680A490840074908601D
:203D20000846006820F4802008600846406820F4FE0048604FF41F008860704700100240AE
:203D40000000FFF8FFFFF6FE30B500210022002400232D4D6D6805F00C0121B1042905D0E6
:203D6000082923D105E0294D056022E0274D05601FE0254D6D6805F47012234D6D6805F484
:203D80008034022505EB92421CB9214D554305600BE01D4D6D6815F4003F03D01C4D5543FE
:203DA000056002E0194D5543056002E0174D056000BF00BF144D6D6805F0F0010909154DA0
:203DC0006B5C0568DD4045600F4D6D6805F4E061090A104D6B5C4568DD4085600A4D6D6870
:203DE00005F46051C90A0B4D6B5C4568DD40C560054D6D6805F44041890B074D6B5CC568BB
:203E0000B5FBF3F5056130BD0010024000127A0000093D00140000202400002010B501460F
:203E20000022002300204A11012A02D1094C236806E0022A02D1074C236A01E0054C636A20
:203E400001F01F02012494401C4201D0012000E0002010BD001002400248406800F00C00FA
:203E6000704700000010024001460020034A506820F0F000084350607047000000100240C9
:203E80001149096821F480310F4A11601146096821F480211160B0F5803F03D0B0F5802F4D
:203EA0000ED106E00849096841F48031064A116007E00549096841F4A021034A116000E09A
:203EC00000BF00BF704700000010024001460020034A506820F4E0600843506070470000E9
:203EE0000010024001460020034A506820F4605040EAC100506070470010024001490866E4
:203F0000704700000000424202460020044B586820F47C1042EA01031843014B5860704709
:203F20000010024001460020034A506820F0030008435060704700000010024001490860FA
:203F400070470000D800424270B500240025002600BF3120FFF762FF0646641CB4F5A06FCF
:203F600001D0002EF5D03120FFF758FF08B1012500E00025284670BD70B50546072D01D0EB
:203F80002748057026480078082841D2DFE800F0040A1016212E414200F046F8062020499A
:203FA00008703BE000F040F804201D49087035E002201B494870032008702FE0184840782F
:203FC000401E174948700846407808B90420087024E01448006884B244F010041148046005
:203FE00005200F4908700A20487017E00C484078401E0B4948700846407840B909480068C5
:2040000084B224F01004074804600620087005E000BF00BF06200249087000BF00BF70BDFA
:204020004D010020405C004010B50748006884B224F0040404480460FFF73CF94FF43F40CB
:204040000149086010BD0000405C004000B587B001210420FFF732FE01210820FFF72EFE41
:204060004FF46040ADF8180018208DF81B0003208DF81A0006A92448FEF781FC4FF4805066
:20408000ADF8180004208DF81B0006A91E48FEF776FC1820ADF8180010208DF81B0003203B
:2040A0008DF81A0006A91848FEF769FC08211648FEF741FD10211448FEF73BFD0020ADF8BF
:2040C00004004FF48270ADF806000020ADF80800ADF80A00ADF80C004FF40070ADF80E0069
:2040E0001020ADF810000020ADF812000720ADF8140001A9054800F041F80121034800F0A7
:2041000023F807B000BD0000000C01400038004010B5044600BF02210A4800F021F80028D7
:20412000F9D02146074800F027F800BF0121054800F016F80028F9D0024800F01AF8C0B216
:2041400010BD00000038004021B1028842F04002028004E002884FF6BF731A400280704750
:204160000246002013890B4201D0012000E0002070470146888970478181704710B5002296
:20418000028802F441520B884C8823438C882343CC8823430C8923434C8923438C8923435A
:2041A000CC8923431A430280838B4FF2FF74234083830B8A038210BD70B50446082108486B
:2041C000FEF7B7FC2046FFF7A3FF0020FFF7A0FF054608210248FEF7AEFC284670BD00008C
:2041E000000C01402DE9F04107460D46164608210B48FEF79EFC3846FFF78AFF804600243D
:2042000005E00020FFF784FF2855601CC4B2B442F7DB08210248FEF78EFC4046BDE8F0815B
:20422000000C014070B505460C4608210748FEF780FC2846FFF76CFF06462046FFF768FFA8
:2042400008210248FEF777FC304670BD000C01402DE9F04107460C46154608210B48FEF7E1
:2042600068FC3846FFF754FF8046002605E014F8010BFFF74DFF701CC6B2AE42F7DB0821F9
:204280000248FEF758FC4046BDE8F081000C01404FF6F8710140014A11607047505C004054
:2042A00030B501460E4B1A78002010E0C3B20D4C54F8233048F68F74234048F280042343A2
:2042C000C4B22343C4B2074D45F82430401C9042ECD341F08003034C4C34236030BD0000C7
:2042E000A8000020005C004010B54A105300054A126892B202EBC002121D034C44F8123030
:2043000010BD0000505C00400060004010B502460F48006880B200EBC200801D0D4C04EBB4
:2043200040033E290BDD481111F01F0F01D1441EA0B24FF4004444EA80241C6007E04810C9
:2043400011F0010F01D0441CA0B284021C6010BD505C00400060004010B50C4B53F82030B7
:204360004BF68F7403EA040211F4805F01D082F4805211F4005F01D082F4005242F4004393
:2043800043F08003014C44F8203010BD005C0040094A52F820204BF68F7302EA030181F4A0
:2043A000805181F4005141F4004242F08002024B43F8202070470000005C004010B54A1001
:2043C0005300044A126892B202EBC002024C44F8123010BD505C004000600040044A1268E2
:2043E00092B202EBC002921C024B43F812107047505C00400060004010B50C4B53F8203078
:2044000048F6BF7403EA040211F0100F01D082F0100211F0200F01D082F0200242F40043B5
:2044200043F08003014C44F8203010BD005C0040094A52F8202048F6BF7302EA030181F0D6
:20444000100181F0200141F4004242F08002024B43F8202070470000005C0040054A52F8DA
:20446000202048F68F131A400A43024B43F8202070470000005C004010B500F001F810BDDF
:20448000002100202E4A126842F480322C4B1A6000BF2B4A126802F40030491C10B9B1F568
:2044A000A06FF6D1264A126812F4003F01D0012000E00020012842D1224A126842F010029F
:2044C000204B1A601A46126822F003021A601A46126842F002021A60194A5268184B5A60C8
:2044E0001A4652685A601A46526842F480625A601A46526822F47C125A601A46526842F434
:20450000E8125A601A46126842F080721A6000BF0B4A126812F0007FFAD0094A526822F077
:204520000302074B5A601A46526842F002025A6000BF034A526802F00C02082AF9D17047E7
:20454000001002400020024038B501242948006880B2001D284931F8100080B201EB400065
:20456000009026480068007A092832D0009800782249096808700098401C00900098007830
:204580001E49096848700098401C0090009800EB44000090009931F8020B0091FCF715FF49
:2045A000164909684880009800EB44000090009931F8020B0091FCF708FF104909688880E0
:2045C000009800EB44000090009800880B490968C880012009490968087208480068C088F9
:2045E00010B9FEF7FFFE01E0FDF7FAFBFFF7E6FA38BD0000505C004000600040300000208F
:204600002DE9F0474B480068007800F07F08B8F1000F0AD147480068407A00F0DF004549C2
:20462000096848720020BDE8F087B8F1020F7ED140480068408818B93E480068007908B161
:204640000220F0E7DFF8F0903A480068477927F080052C4637480068407910F0800F05D04E
:20466000364850F8240000F0300604E0334850F8240000F4405699F80000A84204D91EB1AE
:204680002C480068807A08B90220CCE717F0800F0ED02A4850F8240000F0300010283FD1F4
:2046A000E0B2FDF779F8E0B23021FFF7A5FE37E0224850F8240000F44050B0F5805F2FD192
:2046C000C4B91F4A92F82C10E0B2FFF71FFE1B4951F824104BF68F7201EA020080F4805035
:2046E00080F4005040F4004141F08001134A42F8241015E0E0B2FDF739F8104951F8241082
:204700004BF68F7201EA020080F4805080F4005040F4004141F08001084A42F8241000BFBC
:20472000084909684869804700207CE7FFE700BF022078E730000020A8000020005C0040E2
:20474000AC0000203C00002010B504462CB90120064909680882002010BD054909680868B6
:204760008047024800680A30F6E70000300000203C00002010B5024606480068438A32B982
:204780008888C01A034C24682082002010BD08681844FBE73000002010B504462CB90120B2
:2047A000064909680882002010BD0549096888688047024800680C30F6E700003000002031
:2047C0003C00002010B504462CB90220374909680882002010BD00203549088033480068F6
:2047E000007810F07F0F23D130490968487A10F0200F06D02E49097841F002012C4A1170EB
:2048000005E02B49097801F0FD01294A117010F0400F06D02649097841F00101244A1170A4
:2048200005E02349097801F0FE01214A117036E01E480068007800F07F00012801D11C48A0
:20484000C8E71A480068007800F07F00022824D1164A1268517901F00F0011F0800F0DD0C8
:20486000144A52F8202002F03002102A14D1104A127842F001020E4B1A700DE00D4A52F883
:20488000202002F44052B2F5805F05D1084A127842F00102064B1A7001E000209AE7064937
:2048A000096808698047024894E70000300000202A000020005C00403C00002010B50E48DD
:2048C0000068C0780D494978884213DC0A480068807878B908480068808858B906480068FE
:2048E000C0780549096888720549096848688047002010BD0220FCE730000020A800002087
:204900003C00002010B507480068407A40F0200004490968487204490968C8698047002067
:2049200010BD0000300000203C0000202DE9F04128480068467926F080073C46254800682C
:20494000407910F0800F05D0234850F8240000F0300504E0204850F8240000F440551F4896
:204960000078A04208D91B480068408820B91DB118480068807A10B90220BDE8F08116F0F9
:20498000800F10D0144951F8241048F6BF7201EA020080F0100040F4004141F080010E4A73
:2049A00042F8241010E00C4951F824104BF68F7201EA020080F4805040F4004141F080012D
:2049C000054A42F8241000BF05490968886980470020D2E730000020005C0040A800002057
:2049E0003C00002010B5174B1B68D978154B1B685879154B1B689A699047044611480068E4
:204A0000807AE8B13CB90F480068007918B90D480068807808B1022010BD8CB90B4909689E
:204A2000C868804707480068407906490968C87204480068C0780349096808730020EBE7FF
:204A40000220E9E730000020340000203C00002000BF0278044B1B689A5C0270401C4A1E2D
:204A60001100F6D170470000A801002010B50848006884B244F0080405480460006884B29C
:204A800044F0040402480460FDF7B8FE10BD0000405C0040034800680349096808440149D3
:204AA00008607047DC010020E001002010B51348006840F00100114908600846406810490F
:204AC00008400E494860084600680E4908400B4908600846006820F48020086008464068B6
:204AE00020F4FE0048604FF41F008860FFF7C4FC4FF000600449086010BD00000010024089
:204B00000000FFF8FFFFF6FE08ED00E010B51021194800F013F9A0B118480068401C1749AF
:204B2000086001201649087013480088C4B21248001D0088C4B240F224410F4800F02FF842
:204B400019E020210C4800F0F9F8A0B10A4800F0C3F90C490C4A127888540B4800780F2884
:204B600004DA09480078401C0749087040F22551014800F014F810BD00480040980100206F
:204B800092010020DB0B00209401002001F40072B2F5007F00D100BFCA430280704710B57F
:204BA00000220023A1F510646A3C00D100BF0A1201249440A3B2DC43048010BD21B18289B9
:204BC00042F40052828104E082894DF6FF731A40828170471AB1838A0B43838202E0838A78
:204BE0008B4383827047000010B500F05DF8154881684FF4007000F02BF810211248FFF794
:204C0000C5FF20211048FFF7C1FF002240F225510D4800F0A0F8012240F224410A4800F0DE
:204C20009AF8012202210948FCF7F4FF012280210548FFF7CFFF012240210348FFF7CAFF02
:204C400010BD000060010020004800401C00024030B58BB004460D4601210846FEF7FEFF01
:204C60000F48FCF731FF0F480090019500200290039404908020059000200690079020209E
:204C800008904FF44050099000200A9069460448FCF7C9FF01210248FCF70AFF0BB030BD90
:204CA000300002400448004000B58BB001210846FEF7D4FF0E48FCF707FF0E4800900E4843
:204CC00001901020029000010390002004908020059000200690079008904FF48050099073
:204CE00000200A9069460248FCF79DFF0BB000BD1C00024004480040DB0A002008B501212C
:204D00001C20FEF7DBFF18208DF803004FF48060ADF8000003208DF8020069460648FDF765
:204D20002EFE04208DF803004002ADF8000069460148FDF724FE08BD000C0140024600202C
:204D4000B1F5007F00D100BF13880B4201D0012000E000207047F0B50346002400260025B0
:204D60000020A1F510676A3F00D100BF1846C1F3421401F01F06012707FA06F5012C01D12C
:204D80000C3004E0022C01D1103000E014301AB107682F43076002E00768AF430760F0BD25
:204DA0002DE9F04786B005460E460024A24600BFA1460027B08900B100BF2F462C8A4CF6E2
:204DC000FF700440F08804432C82AC894EF6F3100440B08831890843718908430443AC81FD
:204DE000AC8A4FF6FF400440B0890443AC8201A8FEF7AAFF1F48874202D1DDF810A001E057
:204E0000DDF80CA0A88910F4004F08D00AEBCA0000EB0A1031684900B0FBF1F807E00AEB9F
:204E2000CA0000EB0A1031688900B0FBF1F86420B8FBF0F004012009642101FB1089A8895D
:204E400010F4004F08D0322000EBC900B0FBF1F000F00700044308E0322000EB0910642194
:204E6000B0FBF1F000F00F0004432C8106B0BDE8F08700000038014010B54FF4E13000F05F
:204E800035F8FFF73BFF00F009F8012240F225510148FFF760FF10BD0048004008B5272002
:204EA0008DF8000001208DF8010000208DF8020001208DF803006846FEF73CFA0C208DF8EC
:204EC000000001208DF801008DF802008DF803006846FEF72FFA08BD01468888C0F3080079
:204EE0007047C1F308028280704700001FB5044600210C48FFF762FE00940020ADF806003C
:204F0000ADF80400ADF80800ADF80C000C20ADF80A0069460348FFF743FF01210148FFF71C
:204F20004DFE1FBD0048004010B54FF48020FDF715FC10BD7047000010B54FF400410448FC
:204F4000FDF7F7FD4FF480710148FDF7F2FD10BD0008014010B54FF400410448FDF7EBFD82
:204F60004FF480710148FDF7E4FD10BD0008014010B508480849086002200968087207489F
:204F800007490860074808490860054909680868804710BD2406002030000020AC00002028
:204FA00034000020DC0000203C00002010B537480068374908800846008800F40040354909
:204FC0000988084201D0FCF727FA3148008800F4806030490988084206D04FF6FF302B492A
:204FE00008602D49486880472948008800F4005028490988084203D04DF6FF70234908607A
:205000002348008800F4805022490988084206D04EF6FF701D4908600020FEF7ADFF1C4817
:20502000008800F400601B49098808420CD01B48007810B1FFF71AFD02E00220FEF79CFF3C
:205040004FF2FF70114908601148008800F4007010490988084208D04FF6FF500B4908603D
:205060000F480078401C0E4908700948008800F4807008490988084206D04FF6FF60034987
:2050800008600720FEF778FF10BD0000445C0040A40000203A000020AC0000204C01002011
:2050A0006800002010B5FFF781FF10BD0020064908604FF43F4005490880084600880249D0
:2050C000091F086000207047445C00403A0000202DE9F04104460E46002504F07F00FDF7BE
:2050E0003DFD054604F07F00FDF728FD07462A4639463046FEF74EFD2846BDE8F0812DE913
:20510000F04104460E46154604F07F00FDF738FD0746AAB23946304600F008F8A9B204F0EC
:205120007F00FFF75BF90020BDE8F081F0B5144604F1010C4FEA6C07DFF824C00CEB4103CD
:205140003D460AE00678401C90F800C046EA0C2223F8022B9B1C401C6D1E002DF2D1F0BDDF
:205160000060004010B500BF03680C6863400360001D091D531E1A00F6D110BD00B51248B5
:2051800012490860124813490860084601680F480068FCF77EFA104810490860084600687E
:2051A000FCF792FA08480E49086008460068FEF71BF807480B49086008460168074800682A
:2051C000FCF7AAFA00BD0000EB0B0020A0010020EB0C0020A4010020EB0D0020A8010020E7
:2051E000B0010020AC01002030B504460D46042221460948FCF7F6FA084801682046FDF7BB
:2052000019FE042229462046FFF7ACFF042202492846FCF7E7FA30BDEB0D0020B001002052
:2052200070B58CB006460D46FFF7A8FF002403E0305D04A90855641C102CF9D3002403E0A4
:2052400000200DF80400641C102CF9D3694604A8FFF7CAFF002403E004A8005D2855641C76
:20526000102CF9D3002403E0285D0DF80400641C102CF9D3002405E004F11000305C04A9C2
:205280000855641C102CF7D3694604A8FFF7ACFF002405E004A8015D04F110002954641C1A
:2052A000102CF7D30CB070BD0146002004E00A5C034B1A54421CD0B22028F8DB70470000E0
:2052C000EB0E00200548006840F400300349086096200349486048607047000024ED00E0EE
:2052E000002002402DE9F04FA3B005460020229059480678407800F0FE075748407800F074
:20530000010056490870FA2E1AD1042F18D15248808884B2A005800D01D1A40A02E00120B9
:2053200000EB94241CB9002023B0BDE8F08F202C00D9202421464A4800F0E6F9229049E0D2
:205340005A2E20D1A42F1ED1434800684FEA104800BF4348804420223F49091D01A8FAF7F6
:20536000BAFF09A901A8FFF75BFF202209A93A48001DFAF7B0FF08223749091D404600F050
:20538000A5FA229026E0F52E1BD10A2F19D1324880881FFA80FB304880682190DFF8C08046
:2053A0005946404600F07DF982462198824505D15946504600F030FA22900BE00020229086
:2053C00008E0D52E06D12A2F04D101202549086000202290229801283BD12048007838B35A
:2053E0004FF0000907E0002011A901F8090009F1010000F0FF09B9F1400FF4DB55208DF8ED
:205400004400AA208DF8450004208DF84600281F114908440068CDF8470044208DF88200F9
:205420004C208DF88300402111A800F0E9FB0EE0281F094901440C480968C0F80510042583
:20544000552009498870AA210748C170057101206AE7002068E700005807002050010020FB
:205460000080000884010020980700202DE9F0412D4800F00FF9C4B22C48007864280DD1C0
:20548000012C02DA0020BDE8F081274800F0E8F8552846D165202549087042E0234800788A
:2054A000652818D1022C01DA0020ECE71E4800F0D7F8AA280BD11C4800F0D2F81B490870AD
:2054C0000846007840282CDD6420087029E064201649087025E01548007840281EDC13489E
:2054E0000078844201DA0020CDE71048047822460F490D4800F09EF80120C0EBA4050C4887
:2055000050F82570294600F015F80646B74200D000246420054908702046B4E764200349EE
:2055200008700020AFE70000C0060020710100205807002070B504460D46FBF767FF2946BD
:205540002046FBF749FF70BD10B501214020FEF785FB10BD2DE9F0470446884616461D46D1
:20556000A06800F10109A0680540A9EB0500B04202D2A9EB050000E030460746E168481996
:205580003A46414600F0FFFAF21B08EB0701E06800F0F9FABDE8F0872DE9F04704460E46E1
:2055A00017461D46A06800F10109A0680540A9EB0500B84202D2A9EB050000E038468046B7
:2055C000E06841194246304600F0DDFAA7EB080206EB0800E16800F0D6FABDE8F0872DE994
:2055E000F04104460F46154672B6204600F04AF80646B54200D935462A4639462046236849
:20560000FFF7A8FF2068284420602069401B206162B62846BDE8F0810346002018605860DF
:20562000D960022A01D298607047501E98601A610120F9E72DE9F04104460E46174672B637
:205640003A463146204600F08BF9054660682844606020692844206162B62846BDE8F08128
:2056600038B5044672B601226946204600F078F96068401C60602069401C206162B69DF83B
:20568000000038BD0146D1E90002821A8868401C801A7047014672B6D1E90023D01A62B68B
:2056A00070472DE9F04105460E464FF00008FBF7ADFE002406E055F824703846FBF79EFE72
:2056C0008046641CB442F6D34046BDE8F08100002DE9F0410B4E0B4820380768001D0568E5
:2056E000B5F5005F01D94FF4005529463046FFF7D8FF0446BC4202D00120BDE8F08100200C
:20570000FBE70000008000082DE9F04104460D4605271448844202D20020BDE8F081202D96
:2057200001D90020F9E7FDF70BF93520FDF76CF86FF30904002609E02046FDF76BF8074662
:2057400004F58064052F00D102E0761CAE42F3D300BFFDF79FF8042F01D10120DDE70020E9
:20576000DBE700000080000810B50446FDF7E8F83520FDF749F82046FDF74CF8FDF78AF85E
:2057800010BD000010B500204FF0E02108611420FDF7C4FD2A20FDF7C1FD2720FDF7BEFDD3
:2057A0001948FCF791F918481430FCF78DF916482830FCF789F900211448FFF7FFF9002137
:2057C0001348FAF71AFE01218804FEF787FA00214FF48020FEF782FA01214FF08450FEF7A2
:2057E0005DFA00214FF08450FEF758FA012080F3138800BF0749086880F3088800BF084619
:205800004468A047002010BD080002400048004000240140008000082DE9F04705460F465C
:20582000DFF89880DFF898902648FFF79DFF00260BE02448042101FB06000468601C02D01C
:205840000020BDE8F087701CC6B2082EF1DBFDF777F83520FCF7D8FF29461B48FDF732F894
:2058600039461948001DFDF72DF8494616480830FDF728F8414614480C30FDF723F8FDF7B7
:2058800009F811480468AC4201D00020D9E70E48001D0468BC4201D00020D2E70A48083092
:2058A00004684C4501D00020CBE707480C300468444501D00020C4E70120C2E75665723104
:2058C00044725244007C0008E07F00082DE9F04705460F4616464FF005081F48854202D2FA
:2058E0000020BDE8F0871D48854201D90020F8E74FF0000A002408E055F8249019F1010006
:2059000002D04FF0010A02E0641CB442F4D300BFBAF1000F18D1FDF713F83520FCF774FF30
:2059200000240CE057F82410042202FB0450FCF7C9FF8046B8F1050F00D102E0641CB442F6
:20594000F0D300BFFCF7A6FFB8F1040F01D10120C7E70020C5E7000000800008FFFF000876
:205960002DE9F04104460F461546D4E90001461AB54200D935462A46394620466368FFF767
:205980000BFE2846BDE8F0811FB562A30FCB8DE80F00FBF77BFCFBF7AEFCFBF719FCFBF745
:2059A00099FBFDF7E1FBFDF737FBFFF765FA04215C48FDF7C0F84FF4FA70FBF7A2FC042131
:2059C0005848FDF7B6F8FDF7C7FDFDF7A5FDFEF71CF8FBF73DFAFBF70BF84FF4FA70FBF771
:2059E00090FCFBF73FFAFFF7FFF8FEF72FFB01204D490870FDF7A0F900204C490870FBF709
:205A00008BFCFFF7B5FA4FF4FA70FBF77AFCFFF793FAFFF799FD6846FFF746FC8022444921
:205A20004448FFF7F9FD6420434908700120434981F84200FFF74CFE414908600020414922
:205A4000086041490860414908604149086041490860414908604FF480614048FDF760F82C
:205A60003F4908700846007828B9FDF7F3FF01203449086001E0FEF712F800BFFAF7E4FE21
:205A8000FAF796FE3148006860B1FFF7EFFC3549087008460078002806DD08460078FFF72B
:205AA00021FC01E0FAF71EFE2D48007828B9FBF767F8FAF729FEFAF765FD2B48007801283D
:205AC00007D12A48007820B9012028490870FBF739FAFAF72BFE1C48006818B91C48006879
:205AE0000028CBD0FBF7FEF904210E48FDF723F84FF4FA70FBF705FC04210A48FDF719F854
:205B0000FFF7E0FBFFF726FAFFF73CFE002004B010BD0000000102360405060708090A0B58
:205B20000CCD0E0F000C01405201002050010020D8060020C0060020710100209807002009
:205B4000740100207C010020780100208001002084010020880100208C0100200008014095
:205B60005E010020720100205C0100205D01002010B50246012000E050430B00A1F10104D5
:205B8000E1B2F9D110BD70B503460C4603E014F8015B03F8015B1500A2F10102F7D170BDD9
:205BA00010B510210548FCF7C4FF0F212020FEF739FB10210148FCF7BEFF10BD000C01400F
:205BC00010B510210148FCF7B4FF10BD000C014070B505460E460948007808B1002070BD33
:205BE0000720FEF7E9FA044614F0010F01D00120F5E76420FCF73AFA0020F0E75201002065
:205C000070B504460D46402D01D2284600E04020024621460748FAF719FB40220549812080
:205C2000FFF76DFA0120FEF703FC00200249087070BD0000800600206400002010B591EA78
:205C4000030F48BF83F0004300F19482841A71EB030C05D2121943EB0C03001B61EB0C01B2
:205C6000DFF824E14FEA1154A4EB135C1EEA430F18BF9EEA445F73D023EA0E03DCF1200EF4
:205C800021EA045143F4801332D322FA0CFE10EB0E0023FA0CFE41EB0E01CCF1200E03FA5C
:205CA0000EFE10EB0E0051F10001B1F5801FCCF1200E32D201EB045112FA0EF2BDE8104016
:205CC00058BF7047401C38BF5FEA420218BF7047002814BF20F0010041F100014FEA4103CC
:205CE00013F5001F38BF7047A1F1C04100F034BA012A43EB0302ACF1200CDCF11F0E32BF4C
:205D00004FF0000E23FA0CF310EB030041EB0451B4EB115FD0D0A1EB045101F58011490833
:205D20005FEA300001EB04510ED350F1000038BF12FA0EFE08D1BDE81040C9E7401C38BFA7
:205D40005FEA4202CAD1C3E7BDE810404FEA410313F5001F38BF7047A1F1C04100F0FCB9F2
:205D60009EEA445F08D011EA5E0FBDE8104004BF01F0004100207047BDE8104070B500F0ED
:205D80009DF900BF64FBBE3E0000E0FF2DE9C04130B4DFF8A0C23CEA111418BF3CEA1314D1
:205DA00000F0EC8081EA03051CEA111444EAD57418BF1CEA131500F0C780A4EB05044FF05F
:205DC000004545EAC12145EAC32341EA505143EA525304F17F74994204F500344FEAC020B1
:205DE0004FEAC22208BF904200F09C804FEA13650FF24016765D4FEA134506FB05F7C7F1C0
:205E0000807706FB07F74FEAD737A7FB03687642C8F58038A7FB06CE38BFA8F1010807FBFA
:205E200008E64FF0000EA6FB028CE6FB03CEDCF1000CCEF1004E38BFAEF1010EA6FB0C58B6
:205E40004FF000074FF00005E6FB0E87A1FB08C6A0FB07CE16EB0E0645F10005E1FB0765D0
:205E600015F1E04E7EBFA4F580345FEA46066D4116F1800745F100054FEA17274FEA06663C
:205E800047EA0567A6F1DE46B6F1805F4FEA15251FD9384624F0010C05EBC471BCF1FE6FDB
:205EA00001EB0C1102D8F0BCBDE8008124425CBF01F5801E9EEAC47F02D4F0BCBDE80081A5
:205EC000244238D4F0BCA1F1C041BDE8004100F043B94FEAD22242EA43524FEAD323A7FB80
:205EE00002864FEAD02040EA415007FB03661EEA0E0F4FEAD12105FB026658BFA6EB005615
:205F0000B6EB00564FEA520E4EEAC37E18EB0E0E56EB530EBDD518EB02085E417F1C55F198
:205F20000005B6E74FF480154FF000074FF000064FF00008ADE7F0BC4FF0000001F1C041A3
:205F400001F00041BDE8008111EA0C1F0CEA131500D00CE013EA0C1F00F025804FF00000ED
:205F6000F0BC81EA030101F00041BDE80081F0BCBDE8004181EA030100F0EEB8F0BCBDE8C6
:205F8000004170B500F09AF8097EFC3E00F007B881EA03014FF0000001F00041704781EAA7
:205FA000030100F0D9B8F0BCBDE800414FF0000021497047FFFDFBF9F7F5F4F2F0EEEDEBF2
:205FC000E9E8E6E4E3E1E0DEDDDBDAD8D7D5D4D3D1D0CFCDCCCBCAC8C7C6C5C4C2C1C0BF69
:205FE000BEBDBCBBBAB9B8B7B6B5B4B3B2B1B0AFAEADACABAAA9A8A8A7A6A5A4A3A3A2A1C5
:20600000A09F9F9E9D9C9C9B9A9999989797969595949393929191908F8F8E8E8D8C8C8BDA
:206020008B8A8989888887878685858484838382828181800000FF070000F87F4FEA1153DD
:20604000A3F58063D3F11E03A8BFD3F1200C08DB4FF0004242EAC12252EA505232FA03F019
:20606000704709420BD4102BC4BF0020704703F5787CBCF1FF3F05D04FF0FF3070474FF09A
:206080000000704770B500F019F800BF4992248000207047F0E7B0FA80F310FA03F10AD042
:2060A000C3F11D0303F580634FEA41504FEA035202EBD12170474FF0000070470EF1020E3E
:2060C0002EF0030E5EF8046B364205D4012A43EB030515F5001F12D8012841EB010C1CF594
:2060E000001F0CD80ED14FEAD17C15F5001F0CEB4C0C0CF1020C08BF4CEBD37C04E04FF045
:20610000080C01E04FEAD37C0CEB4C0526FA05F606F00706B6F1040C06D20EEB860CBDE8DD
:2061200070404CF0010C6047DFE80CF0090B02024FF000414FF00000A1F5002170BD1946E2
:206140001046012851EB010418BFD4F5001484BF002001F0004170BD0808A0F500114FEA1A
:206160003101704710B591EA030F48BF83F000433FF56CAD841A71EB030C07D212198CF051
:20618000004C43EB0C03001B61EB0C01DFF8A4E14FEA1154A4EB135C1EEA430F18BF9EEA51
:2061A000445F00F0B08023EA6E03524221EA0451C3EB6E0338BF5B1EDCF1200E25D322FA0C
:2061C0000CFE10EB0E0043FA0CFE41EB0E01CCF1200E03FA0EFE10EB0E0051F10001CCF12D
:2061E000200E29D412FA0EF201EB0451BDE8104058BF7047401C1CBFB2F1004F704700285C
:206200000CBF491C20F00100704712EB020E43EB030218BF4FF0010E4EEA4202ACF1200CDC
:20622000DCF11E0E54D943FA0CFE10EB0E0051F1FF31CCF11E0ED5D50EF1010E12FA0EFEBD
:20624000404141EB010101EB445C5FEA5C5C10D910EBDE7001EB045138BFBEF1004FBDE8F5
:20626000104018BF704700280CBF491C20F00100704730D24FEAD42C11F5001124F4006452
:206280001BD0B1FA81F20B3AA41AA41ED2F12003914030FA03F31943904001EBCC71002CD8
:2062A00001EB0451BDE81040A8BF704701F1C0414FF0000001F000417047B0FA80F310FA48
:2062C00003F100D110BDE41A173C4805C90AE4E701EB045110BD491001EB0451BDE8104053
:2062E0004FEA300002E04FF0000170474A0008BF0042F8D0B2F5001F28BF704701F00041AB
:206300004FF0000070479EEA445F07D011EA5E0FBDE8104004BF002100207047BDE8104078
:2063200070B5FFF7CBFE00BF40DFF63E83F00041104670470000E0FF120100020000004072
:206340008304031500020102030109022900010100E032090400000203000000092100020F
:2063600000012217000705810340000107050103400001058C0901A1010901150025FF95AC
:20638000407508810209029102C0040309042803440072002E0052002600440028006500F3
:2063A00074006F006F0074006C0065002E0063006F006D0029002C0359004400420053004F
:2063C0002000530054004D003300320020003400580048004800200042006F006100720064
:2063E00064000000000000000000002F000000000700070000147F147F1400242A7F2A12B9
:2064000000626408132300364955225000000503000000001C224100000041221C00001418
:20642000083E08140008083E0808000000A06000000808080808000060600000002010087C
:206440000402003E5149453E0000427F4000004261514946002141454B31001814127F1067
:20646000002745454539003C4A49493000017109050300364949493600064949291E0000FC
:2064800036360000000056360000000814224100001414141414000041221408000201514E
:2064A000090600324959513E007C1211127C007F49494936003E41414122007F4141221C4B
:2064C000007F49494941007F09090901003E4149497A007F0808087F0000417F41000020C4
:2064E00040413F01007F08142241007F40404040007F020C027F007F0408107F003E414176
:20650000413E007F09090906003E4151215E007F091929460046494949310001017F010128
:20652000003F4040403F001F2040201F003F4038403F006314081463000708700807006144
:206540005149454300007F41410000552A552A55000041417F0000040201020400404040F7
:206560004040000001020400002054545478007F4844443800384444442000384444487FCE
:2065800000385454541800087E0901020018A4A4A47C007F080404780000447D4000004055
:2065A00080847D00007F102844000000417F4000007C04180478007C080404780038444487
:2065C000443800FC242424180018242418FC007C0804040800485454542000043F4440206C
:2065E000003C4040207C001C2040201C003C4030403C004428102844001CA0A0A07C0044BF
:2066000064544C44141414141414003E5149453E0000427F40000042615149460021414534
:206620004B31001814127F10002745454539003C4A494930000171090503003649494936D0
:2066400000064949291E007C1211127C007F49494936003E41414122007F4141221C007FBD
:2066600049494941007F0909090100000000000000000000000000000000000000F800006B
:206680000000000000333000000000100C06100C0600000000000000000040C07840C07863
:2066A0004000043F04043F040400007088FC08300000001820FF211E0000F008F000E01886
:2066C000000000211C031E211E0000F00888700000001E2123241927211010160E00000002
:2066E00000000000000000000000000000E018040200000000071820400000020418E0001F
:2067000000000040201807000000404080F0804040000202010F01020200000000F0000001
:2067200000000101011F01010100000000000000000080B070000000000000000000000094
:206740000000000101010101010100000000000000000030300000000000000000008060F2
:206760001804006018060100000000E010080810E000000F102020100F00001010F80000F8
:2067800000000020203F20200000007008080888700000302824222130000030088888483B
:2067A00030000018202020110E000000C02010F8000000070424243F240000F8088888085C
:2067C00008000019212020110E0000E0108888180000000F112020110E0000380808C83839
:2067E00008000000003F000000000070880808887000001C222121221C0000E01008081084
:20680000E0000000312222110F00000000C0C00000000000003030000000000000800000A3
:206820000000000080600000000000008040201008000001020408102000404040404040C1
:206840004000040404040404040000081020408000000020100804020100007048080808D5
:20686000F0000000003036010000C030C828E810E0000718272423140B000000C038E00085
:206880000000203C23020227382008F8888888700000203F202020110E00C0300808080800
:2068A0003800071820202010080008F808080810E000203F202020100F0008F88888E80823
:2068C0001000203F20202320180008F88888E8081000203F200003000000C03008080838DC
:2068E000000007182020221E020008F808000008F808203F210101213F20000808F80808CD
:2069000000000020203F2020000000000808F8080800C08080807F00000008F888C0281859
